{
  "address": "0xD25c6f0293d41758552b0B27d6F69353a1134d51",
  "abi": [
    {
      "inputs": [
        {
          "internalType": "address",
          "name": "implementation",
          "type": "address"
        },
        {
          "internalType": "address",
          "name": "initialOwner",
          "type": "address"
        }
      ],
      "stateMutability": "nonpayable",
      "type": "constructor"
    },
    {
      "inputs": [
        {
          "internalType": "address",
          "name": "implementation",
          "type": "address"
        }
      ],
      "name": "BeaconInvalidImplementation",
      "type": "error"
    },
    {
      "inputs": [],
      "name": "Create2EmptyBytecode",
      "type": "error"
    },
    {
      "inputs": [],
      "name": "FailedDeployment",
      "type": "error"
    },
    {
      "inputs": [
        {
          "internalType": "uint256",
          "name": "balance",
          "type": "uint256"
        },
        {
          "internalType": "uint256",
          "name": "needed",
          "type": "uint256"
        }
      ],
      "name": "InsufficientBalance",
      "type": "error"
    },
    {
      "inputs": [
        {
          "internalType": "address",
          "name": "owner",
          "type": "address"
        }
      ],
      "name": "OwnableInvalidOwner",
      "type": "error"
    },
    {
      "inputs": [
        {
          "internalType": "address",
          "name": "account",
          "type": "address"
        }
      ],
      "name": "OwnableUnauthorizedAccount",
      "type": "error"
    },
    {
      "anonymous": false,
      "inputs": [
        {
          "indexed": false,
          "internalType": "address",
          "name": "feeCollector",
          "type": "address"
        },
        {
          "indexed": false,
          "internalType": "bytes32",
          "name": "salt",
          "type": "bytes32"
        }
      ],
      "name": "FeeCollectorDeployed",
      "type": "event"
    },
    {
      "anonymous": false,
      "inputs": [
        {
          "indexed": true,
          "internalType": "address",
          "name": "previousOwner",
          "type": "address"
        },
        {
          "indexed": true,
          "internalType": "address",
          "name": "newOwner",
          "type": "address"
        }
      ],
      "name": "OwnershipTransferred",
      "type": "event"
    },
    {
      "anonymous": false,
      "inputs": [
        {
          "indexed": true,
          "internalType": "address",
          "name": "implementation",
          "type": "address"
        }
      ],
      "name": "Upgraded",
      "type": "event"
    },
    {
      "inputs": [
        {
          "internalType": "bytes32",
          "name": "salt",
          "type": "bytes32"
        }
      ],
      "name": "deployFeeCollector",
      "outputs": [
        {
          "internalType": "address",
          "name": "",
          "type": "address"
        }
      ],
      "stateMutability": "nonpayable",
      "type": "function"
    },
    {
      "inputs": [
        {
          "internalType": "bytes32",
          "name": "salt",
          "type": "bytes32"
        }
      ],
      "name": "getFeeCollectorAddress",
      "outputs": [
        {
          "internalType": "address",
          "name": "",
          "type": "address"
        }
      ],
      "stateMutability": "view",
      "type": "function"
    },
    {
      "inputs": [],
      "name": "implementation",
      "outputs": [
        {
          "internalType": "address",
          "name": "",
          "type": "address"
        }
      ],
      "stateMutability": "view",
      "type": "function"
    },
    {
      "inputs": [],
      "name": "owner",
      "outputs": [
        {
          "internalType": "address",
          "name": "",
          "type": "address"
        }
      ],
      "stateMutability": "view",
      "type": "function"
    },
    {
      "inputs": [],
      "name": "renounceOwnership",
      "outputs": [],
      "stateMutability": "nonpayable",
      "type": "function"
    },
    {
      "inputs": [
        {
          "internalType": "address",
          "name": "newOwner",
          "type": "address"
        }
      ],
      "name": "transferOwnership",
      "outputs": [],
      "stateMutability": "nonpayable",
      "type": "function"
    },
    {
      "inputs": [
        {
          "internalType": "address",
          "name": "newImplementation",
          "type": "address"
        }
      ],
      "name": "upgradeTo",
      "outputs": [],
      "stateMutability": "nonpayable",
      "type": "function"
    }
  ],
  "transactionHash": "0x1bb5d0c721d2e4d7d24481424b6ef1e586da7cd511e3cdc09f91e68d54efd859",
  "args": [
    "0xc73Db31a51Aa0B9BF04EFd210faAdD1F92a2e24F",
    "0x56E44874F624EbDE6efCc783eFD685f0FBDC6dcF"
  ],
  "numDeployments": 1,
  "bytecode": "0x60803461011857601f610da338819003918201601f19168301916001600160401b0383118484101761011c57808492604094855283398101031261011857602061004882610130565b916001600160a01b0391829161005e9101610130565b16918215610100575f5460018060a01b03199380858316175f558360405192167f8be0079c531659141344cd1fd0a4f28419497f9722a3daafe3b4186f6b6457e05f80a3813b156100e957501680916001541617600155604051907fbc7cd75a20ee27fd9adebab32041f755214dbc6bffa90cc0225b39da2e5c2d3b5f80a2610c5e90816101458239f35b63211eb15960e21b81529082166004820152602490fd5b604051631e4fbdf760e01b81525f6004820152602490fd5b5f80fd5b634e487b7160e01b5f52604160045260245ffd5b51906001600160a01b03821682036101185756fe6080604081815260049182361015610015575f80fd5b5f3560e01c90816302ca63d914610489575080633659cfe6146103a95780635c60da1b14610357578063715018a6146102bd5780637e5d5a27146101a25780638da5cb5b146101515763f2fde38b1461006c575f80fd5b3461014d5760207ffffffffffffffffffffffffffffffffffffffffffffffffffffffffffffffffc36011261014d5781359173ffffffffffffffffffffffffffffffffffffffff9182841680940361014d576100c66106b1565b831561011e5750505f54827fffffffffffffffffffffffff00000000000000000000000000000000000000008216175f55167f8be0079c531659141344cd1fd0a4f28419497f9722a3daafe3b4186f6b6457e05f80a3005b905f60249251917f1e4fbdf7000000000000000000000000000000000000000000000000000000008352820152fd5b5f80fd5b503461014d575f7ffffffffffffffffffffffffffffffffffffffffffffffffffffffffffffffffc36011261014d5760209073ffffffffffffffffffffffffffffffffffffffff5f54169051908152f35b503461014d57602091827ffffffffffffffffffffffffffffffffffffffffffffffffffffffffffffffffc36011261014d576055600b73ffffffffffffffffffffffffffffffffffffffff926105278551906102008882018361061a565b8082526107028883013961029061029c875180610246308c830173ffffffffffffffffffffffffffffffffffffffff606092168152604060208201525f60408201520190565b03906102787fffffffffffffffffffffffffffffffffffffffffffffffffffffffffffffffe09283810183528261061a565b895193849161028a8d84018098610688565b90610688565b0390810183528261061a565b519020908551918683015235868201523081520160ff815320169051908152f35b3461014d575f7ffffffffffffffffffffffffffffffffffffffffffffffffffffffffffffffffc36011261014d576102f36106b1565b5f73ffffffffffffffffffffffffffffffffffffffff81547fffffffffffffffffffffffff000000000000000000000000000000000000000081168355167f8be0079c531659141344cd1fd0a4f28419497f9722a3daafe3b4186f6b6457e08280a3005b503461014d575f7ffffffffffffffffffffffffffffffffffffffffffffffffffffffffffffffffc36011261014d5760209073ffffffffffffffffffffffffffffffffffffffff600154169051908152f35b50903461014d5760207ffffffffffffffffffffffffffffffffffffffffffffffffffffffffffffffffc36011261014d5780359173ffffffffffffffffffffffffffffffffffffffff83169283810361014d576104046106b1565b3b1561045b5782807fffffffffffffffffffffffff000000000000000000000000000000000000000060015416176001557fbc7cd75a20ee27fd9adebab32041f755214dbc6bffa90cc0225b39da2e5c2d3b5f80a2005b9160249251917f847ac564000000000000000000000000000000000000000000000000000000008352820152fd5b83833461014d57602092837ffffffffffffffffffffffffffffffffffffffffffffffffffffffffffffffffc36011261014d578235906105276104ce8682018361061a565b80825261070286830139610290610558845180610514308a830173ffffffffffffffffffffffffffffffffffffffff606092168152604060208201525f60408201520190565b03906105467fffffffffffffffffffffffffffffffffffffffffffffffffffffffffffffffe09283810183528261061a565b865193849161028a8b84018098610688565b8051156105f1575182915ff53d15198115166105e75773ffffffffffffffffffffffffffffffffffffffff169283156105c05750817f1ad11ed57937bb25ad1dfc66c953a6c847823f72cdafa3d7bb7a41e84e7ed6499181519085825286820152a151908152f35b82517fb06ebf3d000000000000000000000000000000000000000000000000000000008152fd5b82513d5f823e3d90fd5b505050517f4ca249dc000000000000000000000000000000000000000000000000000000008152fd5b90601f7fffffffffffffffffffffffffffffffffffffffffffffffffffffffffffffffe0910116810190811067ffffffffffffffff82111761065b57604052565b7f4e487b71000000000000000000000000000000000000000000000000000000005f52604160045260245ffd5b908151915f5b83811061069e575050015f815290565b806020809284010151818501520161068e565b73ffffffffffffffffffffffffffffffffffffffff5f541633036106d157565b60246040517f118cdaa7000000000000000000000000000000000000000000000000000000008152336004820152fdfe60a0604090808252610527803803809161001982856102a3565b8339810182828203126101e15761002f826102da565b60208084015191939091906001600160401b0382116101e1570182601f820112156101e157805190610060826102ee565b9361006d875195866102a3565b8285528383830101116101e15782905f5b83811061028f5750505f9184010152823b1561026f577fa3f0ad74e5423aebfd80d3ef4346578335a9a72aeaee59ff6cb3582b35133d5080546001600160a01b0319166001600160a01b038581169182179092558551635c60da1b60e01b8082529194928482600481895afa918215610265575f9261022e575b50813b156102155750508551847f1cf3b03a6cf19fa2baba4df148e9dcabedea7f8a5c07840e207e5c089be95d3e5f80a28251156101f657508290600487518096819382525afa9283156101ec575f936101ac575b50915f80848461018996519101845af4903d156101a3573d61016e816102ee565b9061017b885192836102a3565b81525f81943d92013e610309565b505b608052516101ba908161036d82396080518160450152f35b60609250610309565b92508183813d83116101e5575b6101c381836102a3565b810103126101e1575f806101d9610189956102da565b94505061014d565b5f80fd5b503d6101b9565b85513d5f823e3d90fd5b935050505034610206575061018b565b63b398979f60e01b8152600490fd5b8751634c9c8ce360e01b81529116600482015260249150fd5b9091508481813d831161025e575b61024681836102a3565b810103126101e157610257906102da565b905f6100f8565b503d61023c565b88513d5f823e3d90fd5b8351631933b43b60e21b81526001600160a01b0384166004820152602490fd5b81810183015186820184015284920161007e565b601f909101601f19168101906001600160401b038211908210176102c657604052565b634e487b7160e01b5f52604160045260245ffd5b51906001600160a01b03821682036101e157565b6001600160401b0381116102c657601f01601f191660200190565b90610330575080511561031e57805190602001fd5b60405163d6bda27560e01b8152600490fd5b81511580610363575b610341575090565b604051639996b31560e01b81526001600160a01b039091166004820152602490fd5b50803b1561033956fe6080806040527f5c60da1b00000000000000000000000000000000000000000000000000000000815260208160048173ffffffffffffffffffffffffffffffffffffffff7f0000000000000000000000000000000000000000000000000000000000000000165afa90811561010b575f9161007b575b50610167565b905060203d602011610104575b7fffffffffffffffffffffffffffffffffffffffffffffffffffffffffffffffe0601f82011682019180831067ffffffffffffffff8411176100d7576100d19260405201610116565b5f610075565b7f4e487b71000000000000000000000000000000000000000000000000000000005f52604160045260245ffd5b503d610088565b6040513d5f823e3d90fd5b7fffffffffffffffffffffffffffffffffffffffffffffffffffffffffffffff8060209101126101635760805173ffffffffffffffffffffffffffffffffffffffff811681036101635790565b5f80fd5b5f8091368280378136915af43d5f803e15610180573d5ff35b3d5ffdfea2646970667358221220b60cbf4ce8772cb3e254605ee39a357ae36438377aa078a457c041ee4eec50da64736f6c63430008170033a26469706673582212207c5b9336f1a2cc012f06361f557cbb15041a4a08bc1c73339f94506ee860d3a564736f6c63430008170033"
}