{
  "address": "0x4EA90d283BD851c26EEfF1A3799FbC9CEfe50EA8",
  "abi": [
    {
      "inputs": [
        {
          "internalType": "contract IWETH",
          "name": "weth",
          "type": "address"
        },
        {
          "internalType": "address",
          "name": "owner",
          "type": "address"
        }
      ],
      "stateMutability": "nonpayable",
      "type": "constructor"
    },
    {
      "inputs": [],
      "name": "ETHTransferFailed",
      "type": "error"
    },
    {
      "inputs": [
        {
          "internalType": "bool[]",
          "name": "statuses",
          "type": "bool[]"
        },
        {
          "internalType": "bytes[]",
          "name": "results",
          "type": "bytes[]"
        }
      ],
      "name": "EstimationResults",
      "type": "error"
    },
    {
      "inputs": [],
      "name": "ForceApproveFailed",
      "type": "error"
    },
    {
      "inputs": [],
      "name": "InvalidLength",
      "type": "error"
    },
    {
      "inputs": [],
      "name": "LengthMismatch",
      "type": "error"
    },
    {
      "inputs": [],
      "name": "NotEnoughProfit",
      "type": "error"
    },
    {
      "inputs": [],
      "name": "OnlyOwner",
      "type": "error"
    },
    {
      "inputs": [],
      "name": "SafeTransferFailed",
      "type": "error"
    },
    {
      "inputs": [
        {
          "internalType": "contract IERC20",
          "name": "token",
          "type": "address"
        },
        {
          "internalType": "address",
          "name": "to",
          "type": "address"
        }
      ],
      "name": "approve",
      "outputs": [],
      "stateMutability": "nonpayable",
      "type": "function"
    },
    {
      "inputs": [
        {
          "internalType": "address[]",
          "name": "targets",
          "type": "address[]"
        },
        {
          "internalType": "bytes[]",
          "name": "arguments",
          "type": "bytes[]"
        }
      ],
      "name": "arbitraryCalls",
      "outputs": [],
      "stateMutability": "payable",
      "type": "function"
    },
    {
      "inputs": [
        {
          "internalType": "address[]",
          "name": "targets",
          "type": "address[]"
        },
        {
          "internalType": "bytes[]",
          "name": "arguments",
          "type": "bytes[]"
        },
        {
          "internalType": "uint256[]",
          "name": "values",
          "type": "uint256[]"
        }
      ],
      "name": "arbitraryCalls",
      "outputs": [],
      "stateMutability": "payable",
      "type": "function"
    },
    {
      "inputs": [
        {
          "internalType": "address[]",
          "name": "targets",
          "type": "address[]"
        },
        {
          "internalType": "bytes[]",
          "name": "arguments",
          "type": "bytes[]"
        },
        {
          "internalType": "uint256",
          "name": "minReturn",
          "type": "uint256"
        }
      ],
      "name": "arbitraryCallsWithEthCheck",
      "outputs": [],
      "stateMutability": "payable",
      "type": "function"
    },
    {
      "inputs": [
        {
          "internalType": "address[]",
          "name": "targets",
          "type": "address[]"
        },
        {
          "internalType": "bytes[]",
          "name": "arguments",
          "type": "bytes[]"
        },
        {
          "internalType": "uint256[]",
          "name": "values",
          "type": "uint256[]"
        },
        {
          "internalType": "uint256",
          "name": "minReturn",
          "type": "uint256"
        }
      ],
      "name": "arbitraryCallsWithEthCheck",
      "outputs": [],
      "stateMutability": "payable",
      "type": "function"
    },
    {
      "inputs": [
        {
          "internalType": "address[]",
          "name": "targets",
          "type": "address[]"
        },
        {
          "internalType": "bytes[]",
          "name": "arguments",
          "type": "bytes[]"
        },
        {
          "internalType": "uint256[]",
          "name": "values",
          "type": "uint256[]"
        },
        {
          "internalType": "contract IERC20",
          "name": "token",
          "type": "address"
        },
        {
          "internalType": "uint256",
          "name": "minReturn",
          "type": "uint256"
        }
      ],
      "name": "arbitraryCallsWithTokenCheck",
      "outputs": [],
      "stateMutability": "payable",
      "type": "function"
    },
    {
      "inputs": [
        {
          "internalType": "address[]",
          "name": "targets",
          "type": "address[]"
        },
        {
          "internalType": "bytes[]",
          "name": "arguments",
          "type": "bytes[]"
        },
        {
          "internalType": "contract IERC20",
          "name": "token",
          "type": "address"
        },
        {
          "internalType": "uint256",
          "name": "minReturn",
          "type": "uint256"
        }
      ],
      "name": "arbitraryCallsWithTokenCheck",
      "outputs": [],
      "stateMutability": "payable",
      "type": "function"
    },
    {
      "inputs": [
        {
          "internalType": "bytes",
          "name": "data",
          "type": "bytes"
        }
      ],
      "name": "batchApprove",
      "outputs": [],
      "stateMutability": "nonpayable",
      "type": "function"
    },
    {
      "inputs": [
        {
          "internalType": "bytes",
          "name": "data",
          "type": "bytes"
        }
      ],
      "name": "batchTransfer",
      "outputs": [],
      "stateMutability": "nonpayable",
      "type": "function"
    },
    {
      "inputs": [
        {
          "internalType": "address[]",
          "name": "targets",
          "type": "address[]"
        },
        {
          "internalType": "bytes[]",
          "name": "arguments",
          "type": "bytes[]"
        },
        {
          "internalType": "uint256[]",
          "name": "values",
          "type": "uint256[]"
        }
      ],
      "name": "estimateArbitraryCalls",
      "outputs": [],
      "stateMutability": "payable",
      "type": "function"
    },
    {
      "inputs": [
        {
          "internalType": "address[]",
          "name": "targets",
          "type": "address[]"
        },
        {
          "internalType": "bytes[]",
          "name": "arguments",
          "type": "bytes[]"
        }
      ],
      "name": "estimateArbitraryCalls",
      "outputs": [],
      "stateMutability": "payable",
      "type": "function"
    },
    {
      "inputs": [
        {
          "internalType": "bytes32",
          "name": "hash",
          "type": "bytes32"
        },
        {
          "internalType": "bytes",
          "name": "signature",
          "type": "bytes"
        }
      ],
      "name": "isValidSignature",
      "outputs": [
        {
          "internalType": "bytes4",
          "name": "magicValue",
          "type": "bytes4"
        }
      ],
      "stateMutability": "view",
      "type": "function"
    },
    {
      "inputs": [],
      "name": "rescueEther",
      "outputs": [],
      "stateMutability": "nonpayable",
      "type": "function"
    },
    {
      "inputs": [
        {
          "internalType": "contract IERC20",
          "name": "token",
          "type": "address"
        },
        {
          "internalType": "address",
          "name": "to",
          "type": "address"
        },
        {
          "internalType": "uint256",
          "name": "amount",
          "type": "uint256"
        }
      ],
      "name": "transfer",
      "outputs": [],
      "stateMutability": "nonpayable",
      "type": "function"
    },
    {
      "inputs": [
        {
          "internalType": "address payable",
          "name": "receiver",
          "type": "address"
        },
        {
          "internalType": "uint256",
          "name": "amount",
          "type": "uint256"
        }
      ],
      "name": "unwrapTo",
      "outputs": [],
      "stateMutability": "nonpayable",
      "type": "function"
    },
    {
      "stateMutability": "payable",
      "type": "receive"
    }
  ],
  "transactionHash": "0x2853a6ccc069f950fd1f94a59d5b25ddf66fb73de6e834ab2a6545eb8895149e",
  "args": [
    "0x0d500B1d8E8eF31E21C99d1Db9A6444d3ADf1270",
    "0xa98f85f55f259ef41548251c93409f1d60e804e4"
  ],
  "numDeployments": 1,
  "solcInputHash": "d7a9d5f8a1b1af5e713a88cd1337ed1d",
  "bytecode": "0x60c0346100d957601f611c1638819003918201601f19168301916001600160401b038311848410176100dd5780849260409485528339810103126100d95780516001600160a01b039182821682036100d9576020015191821682036100d95760805260a052604051611b2490816100f2823960805181610171015260a05181818161011d01528181610249015281816102c901528181610597015281816106d601528181610902015281816109ce01528181610cbd01528181610d6a01528181610e8d015281816110130152818161145501526117e80152f35b5f80fd5b634e487b7160e01b5f52604160045260245ffdfe60406080815260048036101561001e575b5050361561001c575f80fd5b005b5f3560e01c8063038ec2ab1461110357806310a890af14610fa85780631626ba7e14610dfd5780631f3177ba14610d4757806320969d0714610c76578063295861b1146109a7578063343590a41461089c5780633a9d666f146108055780633d006abd146107925780634cbdf31c146107065780637e5465ba1461067e57806385c014381461056f578063bdbb216a146102a4578063beabacc8146101ef5763c12ea3ca0361001057346101eb57817ffffffffffffffffffffffffffffffffffffffffffffffffffffffffffffffffc3601126101eb57803573ffffffffffffffffffffffffffffffffffffffff918282168092036101eb57602435927f00000000000000000000000000000000000000000000000000000000000000001633036101c45782907f2e1a7d4d000000000000000000000000000000000000000000000000000000005f52525f80602481807f00000000000000000000000000000000000000000000000000000000000000005af1156101ba573081036101a057005b5f8080938193611388f1156101b157005b513d5f823e3d90fd5b82513d5f823e3d90fd5b83517f5fc483c5000000000000000000000000000000000000000000000000000000008152fd5b5f80fd5b5090346101eb5760607ffffffffffffffffffffffffffffffffffffffffffffffffffffffffffffffffc3601126101eb576102286111e0565b9061023161131a565b9073ffffffffffffffffffffffffffffffffffffffff7f000000000000000000000000000000000000000000000000000000000000000016330361027c5761001c6044358385611911565b8390517f5fc483c5000000000000000000000000000000000000000000000000000000008152fd5b506102ae36611231565b9092919373ffffffffffffffffffffffffffffffffffffffff7f0000000000000000000000000000000000000000000000000000000000000000163303610548578185036105215794939290610303846116df565b956103108651978861133d565b84875261031c856116df565b93602092838901947fffffffffffffffffffffffffffffffffffffffffffffffffffffffffffffffe0809701368737610354886116df565b976103618a51998a61133d565b8089528761036e826116df565b015f5b8181106105125750505f5b81811061049a57505050505085519687967f9cb0e09d0000000000000000000000000000000000000000000000000000000088526044880192880152518091526064860192905f5b818110610481575050507ffffffffffffffffffffffffffffffffffffffffffffffffffffffffffffffffc8583030160248601528351908183528083019281808460051b8301019601945f915b84831061041e5788880389fd5b919395975091939582828203018752848389518051908185525f5b82811061046a575050838392601f835f86809660019a01015201160101990197019301909188979695939492610411565b818101850151868201860152899488945001610439565b82511515855288975093830193918301916001016103c4565b805f808d9e98999a9c9d6104b96104b4600196888c6116f7565b611734565b906104c5858a366116f7565b356104d1868b8b611755565b8093519384928337810185815203925af18c6104f5836104ef611682565b926117b5565b5261050082896117b5565b9015159052019a99989695949a61037c565b60608b82018901528701610371565b85517fff633a38000000000000000000000000000000000000000000000000000000008152fd5b85517f5fc483c5000000000000000000000000000000000000000000000000000000008152fd5b506105793661129a565b9573ffffffffffffffffffffffffffffffffffffffff9594919392957f0000000000000000000000000000000000000000000000000000000000000000163303610657578582036106305786820361063057505f5b8181106105d757005b5f806105e76104b484868a6116f7565b8a6105f3858c8a6116f7565b356105ff868c8a611755565b8093519384928337810185815203925af1610618611682565b5015610626576001016105ce565b87513d5f823e3d90fd5b87517fff633a38000000000000000000000000000000000000000000000000000000008152fd5b87517f5fc483c5000000000000000000000000000000000000000000000000000000008152fd5b5090346101eb57807ffffffffffffffffffffffffffffffffffffffffffffffffffffffffffffffffc3601126101eb576106b66111e0565b6106be61131a565b9173ffffffffffffffffffffffffffffffffffffffff7f000000000000000000000000000000000000000000000000000000000000000016330361027c5761001c83836119a9565b5060807ffffffffffffffffffffffffffffffffffffffffffffffffffffffffffffffffc3601126101eb5767ffffffffffffffff81358181116101eb5761075090369084016111af565b6024929192358281116101eb5761076a90369086016111af565b90926044359081116101eb5761001c95610786913691016111af565b939092606435956117c9565b5060607ffffffffffffffffffffffffffffffffffffffffffffffffffffffffffffffffc3601126101eb5767ffffffffffffffff81358181116101eb576107dc90369084016111af565b916024359081116101eb5761001c936107f7913691016111af565b8092916044359436936117c9565b5060807ffffffffffffffffffffffffffffffffffffffffffffffffffffffffffffffffc3601126101eb5767ffffffffffffffff81358181116101eb5761084f90369084016111af565b9190926024359182116101eb57610868913691016111af565b6044939193359173ffffffffffffffffffffffffffffffffffffffff831683036101eb578161001c956064359536936113e5565b50346101eb5760207ffffffffffffffffffffffffffffffffffffffffffffffffffffffffffffffffc3601126101eb57803567ffffffffffffffff81116101eb576108ea9036908301611203565b9173ffffffffffffffffffffffffffffffffffffffff7f00000000000000000000000000000000000000000000000000000000000000001633036101c457602893602884066109815750505f5b82811061094057005b8061097b601486930161095e61095882858989611626565b9061163e565b610972610958606093878701908a8a611626565b821c911c6119a9565b01610937565b517f947d5a84000000000000000000000000000000000000000000000000000000008152fd5b506109b13661129a565b9473ffffffffffffffffffffffffffffffffffffffff96929394967f0000000000000000000000000000000000000000000000000000000000000000163303610c4e57838703610c2657610a0a879694939298976116df565b97610a178851998a61133d565b868952610a23876116df565b95602094858b01967fffffffffffffffffffffffffffffffffffffffffffffffffffffffffffffffe0809901368937610a5b8a6116df565b99610a688c519b8c61133d565b808b5289610a75826116df565b015f5b818110610c175750505f5b818110610ba3575050505050505085519687967f9cb0e09d0000000000000000000000000000000000000000000000000000000088526044880192880152518091526064860192905f5b818110610b8a575050507ffffffffffffffffffffffffffffffffffffffffffffffffffffffffffffffffc8583030160248601528351908183528083019281808460051b8301019601945f915b848310610b275788880389fd5b919395975091939582828203018752848389518051908185525f5b828110610b73575050838392601f835f86809660019a01015201160101990197019301909188979695939492610b1a565b818101850151868201860152899488945001610b42565b8251151585528897509383019391830191600101610acd565b808c8e9f999a9b9d9e5f8981928a610bdc878f610bd5828f928f908f60019f6104b491610bcf936116f7565b986116f7565b3593611755565b8093519384928337810185815203925af190610bfa836104ef611682565b52610c05828b6117b5565b9015159052019c9b9a9897969c610a83565b60608d82018b01528901610a78565b8288517fff633a38000000000000000000000000000000000000000000000000000000008152fd5b8288517f5fc483c5000000000000000000000000000000000000000000000000000000008152fd5b5090346101eb575f7ffffffffffffffffffffffffffffffffffffffffffffffffffffffffffffffffc3601126101eb5773ffffffffffffffffffffffffffffffffffffffff7f0000000000000000000000000000000000000000000000000000000000000000163303610d21575f80808047335af1610cf3611682565b5015610cfb57005b517fb12d13eb000000000000000000000000000000000000000000000000000000008152fd5b517f5fc483c5000000000000000000000000000000000000000000000000000000008152fd5b50610d5136611231565b909373ffffffffffffffffffffffffffffffffffffffff7f00000000000000000000000000000000000000000000000000000000000000001633036105485781830361052157505f5b828110610da357005b5f80610db36104b48487896116f7565b610dbe8486366116f7565b35610dca85878b611755565b9190828c519384928337810185815203925af1610de5611682565b5015610df357600101610d9a565b85513d5f823e3d90fd5b50346101eb57817ffffffffffffffffffffffffffffffffffffffffffffffffffffffffffffffffc3601126101eb576024359167ffffffffffffffff83116101eb57610e4e60209336908401611203565b5f935f92845192838682604114610f91575050604014610f4e57505f9150815b610f06575b505073ffffffffffffffffffffffffffffffffffffffff807f000000000000000000000000000000000000000000000000000000000000000016911614610ede575b7fffffffff00000000000000000000000000000000000000000000000000000000905191168152f35b7f1626ba7e000000000000000000000000000000000000000000000000000000009150610eb5565b7f7fffffffffffffffffffffffffffffff5d576e7357a4501ddfe92f46681b20a160608301511015610e73578592505f9160809135815282805260015afa505f515f80610e73565b7f7fffffffffffffffffffffffffffffffffffffffffffffffffffffffffffffff81888086940135918260ff1c601b018286015288850137166060820152610e6e565b80925083919301355f1a8984015281830137610e6e565b50346101eb5760209060207ffffffffffffffffffffffffffffffffffffffffffffffffffffffffffffffffc3601126101eb57803567ffffffffffffffff81116101eb57610ff99036908301611203565b92909173ffffffffffffffffffffffffffffffffffffffff7f00000000000000000000000000000000000000000000000000000000000000001633036110dc57604894604885066109815750505f5b83811061105157005b806110a4601487930161106961095882858a8a611626565b906060916110916110836109586028880180958d8d611626565b841c92878701908b8b611626565b939035938881106110aa575b501c611911565b01611048565b7fffffffffffffffffffffffffffffffffffffffffffffffffffffffffffffffff90890360031b1b909316925f61109d565b84517f5fc483c5000000000000000000000000000000000000000000000000000000008152fd5b5060a07ffffffffffffffffffffffffffffffffffffffffffffffffffffffffffffffffc3601126101eb5767ffffffffffffffff81358181116101eb5761114d90369084016111af565b9290916024358181116101eb5761116790369084016111af565b9190926044359182116101eb57611180913691016111af565b916064359373ffffffffffffffffffffffffffffffffffffffff851685036101eb5761001c96608435966113e5565b9181601f840112156101eb5782359167ffffffffffffffff83116101eb576020808501948460051b0101116101eb57565b6004359073ffffffffffffffffffffffffffffffffffffffff821682036101eb57565b9181601f840112156101eb5782359167ffffffffffffffff83116101eb57602083818601950101116101eb57565b60407ffffffffffffffffffffffffffffffffffffffffffffffffffffffffffffffffc8201126101eb5767ffffffffffffffff916004358381116101eb578261127c916004016111af565b939093926024359182116101eb57611296916004016111af565b9091565b9060607ffffffffffffffffffffffffffffffffffffffffffffffffffffffffffffffffc8301126101eb5767ffffffffffffffff6004358181116101eb57836112e5916004016111af565b939093926024358381116101eb5782611300916004016111af565b939093926044359182116101eb57611296916004016111af565b6024359073ffffffffffffffffffffffffffffffffffffffff821682036101eb57565b90601f7fffffffffffffffffffffffffffffffffffffffffffffffffffffffffffffffe0910116810190811067ffffffffffffffff82111761137e57604052565b7f4e487b71000000000000000000000000000000000000000000000000000000005f52604160045260245ffd5b919082018092116113b857565b7f4e487b71000000000000000000000000000000000000000000000000000000005f52601160045260245ffd5b969490969593919573ffffffffffffffffffffffffffffffffffffffff809516926040978851957f70a08231000000000000000000000000000000000000000000000000000000009485885260049b308d8a01526020998a8a6024818c5afa998a1561161c575f9a6115ed575b507f00000000000000000000000000000000000000000000000000000000000000001633036115c55782810361159d5781810361159d5790899695949392915f5b8d82821061152f57955050505050506024915051809481938252308b8301525afa928315610df3575f936114fd575b50506114ce91926113ab565b116114d7575050565b517f3b5c3088000000000000000000000000000000000000000000000000000000008152fd5b90809350813d8311611528575b611514818361133d565b810103126101eb576114ce9151915f6114c2565b503d61150a565b879899505f919293949596979061154b6104b4858786956116f7565b9061155785888c6116f7565b35611563868a8c611755565b8093519384928337810185815203925af161157c611682565b501561159357600101908a97969594939291611493565b8c513d5f823e3d90fd5b8c8c517fff633a38000000000000000000000000000000000000000000000000000000008152fd5b8c8c517f5fc483c5000000000000000000000000000000000000000000000000000000008152fd5b9099508a81813d8311611615575b611605818361133d565b810103126101eb5751985f611452565b503d6115fb565b8d513d5f823e3d90fd5b909392938483116101eb5784116101eb578101920390565b7fffffffffffffffffffffffffffffffffffffffff000000000000000000000000903581811693926014811061167357505050565b60140360031b82901b16169150565b3d156116da573d9067ffffffffffffffff821161137e57604051916116cf60207fffffffffffffffffffffffffffffffffffffffffffffffffffffffffffffffe0601f840116018461133d565b82523d5f602084013e565b606090565b67ffffffffffffffff811161137e5760051b60200190565b91908110156117075760051b0190565b7f4e487b71000000000000000000000000000000000000000000000000000000005f52603260045260245ffd5b3573ffffffffffffffffffffffffffffffffffffffff811681036101eb5790565b91908110156117075760051b810135907fffffffffffffffffffffffffffffffffffffffffffffffffffffffffffffffe1813603018212156101eb57019081359167ffffffffffffffff83116101eb5760200182360381136101eb579190565b80518210156117075760209160051b010190565b929094939193479573ffffffffffffffffffffffffffffffffffffffff7f00000000000000000000000000000000000000000000000000000000000000001633036118e7578281036118bd578181036118bd575f5b81811061186857505050505050506118379047926113ab565b1161183e57565b60046040517f3b5c3088000000000000000000000000000000000000000000000000000000008152fd5b6118766104b48284896116f7565b5f8061188384878a6116f7565b359261189085898d611755565b90946040958287519384928337810185815203925af16118ae611682565b50156101b1575060010161181e565b60046040517fff633a38000000000000000000000000000000000000000000000000000000008152fd5b60046040517f5fc483c5000000000000000000000000000000000000000000000000000000008152fd5b9160446020925f92604051917fa9059cbb0000000000000000000000000000000000000000000000000000000083526004830152602482015282855af19081611987575b501561195d57565b60046040517ffb7f5079000000000000000000000000000000000000000000000000000000008152fd5b90503d156119a1575060015f5114601f3d11165b5f611955565b3b151561199b565b906119b48183611a6a565b156119bd575050565b60205f60446040517f095ea7b300000000000000000000000000000000000000000000000000000000815284600482015282602482015282865af180611a4b575b15918215611a39575b5050611a0f57565b60046040517f19be9a90000000000000000000000000000000000000000000000000000000008152fd5b611a439250611a6a565b155f80611a07565b503d15611a615760015f5114601f3d11166119fe565b813b15156119fe565b91905f6044602092604051907f095ea7b300000000000000000000000000000000000000000000000000000000825260048201527fffffffffffffffffffffffffffffffffffffffffffffffffffffffffffffffff602482015282865af19182611ad15750565b9091503d15611ae8575060015f5114601f3d111690565b3b15159056fea2646970667358221220ad951d22db9dc027832f55db9d5740daa6e4e28cf5e87fcc09b12ed82443a19d64736f6c63430008170033",
  "devdoc": {
    "kind": "dev",
    "methods": {
      "isValidSignature(bytes32,bytes)": {
        "details": "Should return whether the signature provided is valid for the provided data",
        "params": {
          "hash": "Hash of the data to be signed",
          "signature": "Signature byte array associated with _data"
        }
      }
    },
    "version": 1
  },
  "userdoc": {
    "kind": "user",
    "methods": {
      "approve(address,address)": {
        "notice": "See {IBalanceManager-approve}."
      },
      "arbitraryCalls(address[],bytes[])": {
        "notice": "See {IBalanceManager-arbitraryCalls}."
      },
      "arbitraryCalls(address[],bytes[],uint256[])": {
        "notice": "See {IBalanceManager-arbitraryCalls}."
      },
      "arbitraryCallsWithEthCheck(address[],bytes[],uint256)": {
        "notice": "See {IBalanceManager-arbitraryCallsWithEthCheck}."
      },
      "arbitraryCallsWithEthCheck(address[],bytes[],uint256[],uint256)": {
        "notice": "See {IBalanceManager-arbitraryCallsWithEthCheck}."
      },
      "arbitraryCallsWithTokenCheck(address[],bytes[],address,uint256)": {
        "notice": "See {IBalanceManager-arbitraryCallsWithTokenCheck}."
      },
      "arbitraryCallsWithTokenCheck(address[],bytes[],uint256[],address,uint256)": {
        "notice": "See {IBalanceManager-arbitraryCallsWithTokenCheck}."
      },
      "batchApprove(bytes)": {
        "notice": "See {IBalanceManager-batchApprove}."
      },
      "batchTransfer(bytes)": {
        "notice": "See {IBalanceManager-batchTransfer}."
      },
      "estimateArbitraryCalls(address[],bytes[])": {
        "notice": "See {IBalanceManager-estimateArbitraryCalls}."
      },
      "estimateArbitraryCalls(address[],bytes[],uint256[])": {
        "notice": "See {IBalanceManager-estimateArbitraryCalls}."
      },
      "rescueEther()": {
        "notice": "See {IBalanceManager-rescueEther}."
      },
      "transfer(address,address,uint256)": {
        "notice": "See {IBalanceManager-transfer}."
      },
      "unwrapTo(address,uint256)": {
        "notice": "See {IBalanceManager-unwrapTo}."
      }
    },
    "version": 1
  },
  "storageLayout": {
    "storage": [],
    "types": null
  }
}