{
  "address": "0x080AB73787A8B13EC7F40bd7d00d6CC07F9b24d0",
  "abi": [
    {
      "inputs": [
        {
          "internalType": "address",
          "name": "owner",
          "type": "address"
        }
      ],
      "stateMutability": "nonpayable",
      "type": "constructor"
    },
    {
      "inputs": [
        {
          "internalType": "uint256",
          "name": "i",
          "type": "uint256"
        },
        {
          "internalType": "bytes",
          "name": "result",
          "type": "bytes"
        }
      ],
      "name": "CallFailed",
      "type": "error"
    },
    {
      "inputs": [
        {
          "internalType": "bool[]",
          "name": "statuses",
          "type": "bool[]"
        },
        {
          "internalType": "bytes[]",
          "name": "results",
          "type": "bytes[]"
        }
      ],
      "name": "EstimationResults",
      "type": "error"
    },
    {
      "inputs": [],
      "name": "ForceApproveFailed",
      "type": "error"
    },
    {
      "inputs": [],
      "name": "InvalidLength",
      "type": "error"
    },
    {
      "inputs": [],
      "name": "NotEnoughProfit",
      "type": "error"
    },
    {
      "inputs": [
        {
          "internalType": "address",
          "name": "owner",
          "type": "address"
        }
      ],
      "name": "OnlyOwner",
      "type": "error"
    },
    {
      "inputs": [],
      "name": "SafeTransferFailed",
      "type": "error"
    },
    {
      "anonymous": false,
      "inputs": [
        {
          "indexed": false,
          "internalType": "uint256",
          "name": "i",
          "type": "uint256"
        },
        {
          "indexed": false,
          "internalType": "bytes",
          "name": "result",
          "type": "bytes"
        }
      ],
      "name": "CallFailure",
      "type": "event"
    },
    {
      "inputs": [
        {
          "internalType": "contract IERC20",
          "name": "token",
          "type": "address"
        },
        {
          "internalType": "address",
          "name": "to",
          "type": "address"
        }
      ],
      "name": "approve",
      "outputs": [],
      "stateMutability": "nonpayable",
      "type": "function"
    },
    {
      "inputs": [
        {
          "internalType": "bytes",
          "name": "data",
          "type": "bytes"
        }
      ],
      "name": "batchApprove",
      "outputs": [],
      "stateMutability": "nonpayable",
      "type": "function"
    },
    {
      "inputs": [
        {
          "internalType": "bytes",
          "name": "data",
          "type": "bytes"
        }
      ],
      "name": "batchTransfer",
      "outputs": [],
      "stateMutability": "nonpayable",
      "type": "function"
    },
    {
      "inputs": [
        {
          "components": [
            {
              "internalType": "address",
              "name": "to",
              "type": "address"
            },
            {
              "internalType": "uint256",
              "name": "value",
              "type": "uint256"
            },
            {
              "internalType": "bytes",
              "name": "data",
              "type": "bytes"
            }
          ],
          "internalType": "struct LeftoverExchanger.Call[]",
          "name": "calls",
          "type": "tuple[]"
        }
      ],
      "name": "estimateMakeCalls",
      "outputs": [],
      "stateMutability": "payable",
      "type": "function"
    },
    {
      "inputs": [
        {
          "internalType": "bytes32",
          "name": "hash",
          "type": "bytes32"
        },
        {
          "internalType": "bytes",
          "name": "signature",
          "type": "bytes"
        }
      ],
      "name": "isValidSignature",
      "outputs": [
        {
          "internalType": "bytes4",
          "name": "magicValue",
          "type": "bytes4"
        }
      ],
      "stateMutability": "view",
      "type": "function"
    },
    {
      "inputs": [
        {
          "components": [
            {
              "internalType": "address",
              "name": "to",
              "type": "address"
            },
            {
              "internalType": "uint256",
              "name": "value",
              "type": "uint256"
            },
            {
              "internalType": "bytes",
              "name": "data",
              "type": "bytes"
            }
          ],
          "internalType": "struct LeftoverExchanger.Call[]",
          "name": "calls",
          "type": "tuple[]"
        }
      ],
      "name": "makeCalls",
      "outputs": [],
      "stateMutability": "payable",
      "type": "function"
    },
    {
      "inputs": [
        {
          "components": [
            {
              "internalType": "address",
              "name": "to",
              "type": "address"
            },
            {
              "internalType": "uint256",
              "name": "value",
              "type": "uint256"
            },
            {
              "internalType": "bytes",
              "name": "data",
              "type": "bytes"
            }
          ],
          "internalType": "struct LeftoverExchanger.Call[]",
          "name": "calls",
          "type": "tuple[]"
        }
      ],
      "name": "makeCallsNoThrow",
      "outputs": [],
      "stateMutability": "payable",
      "type": "function"
    },
    {
      "inputs": [
        {
          "components": [
            {
              "internalType": "address",
              "name": "to",
              "type": "address"
            },
            {
              "internalType": "uint256",
              "name": "value",
              "type": "uint256"
            },
            {
              "internalType": "bytes",
              "name": "data",
              "type": "bytes"
            }
          ],
          "internalType": "struct LeftoverExchanger.Call[]",
          "name": "calls",
          "type": "tuple[]"
        },
        {
          "internalType": "uint256",
          "name": "minReturn",
          "type": "uint256"
        }
      ],
      "name": "makeCallsWithEthCheck",
      "outputs": [],
      "stateMutability": "payable",
      "type": "function"
    },
    {
      "inputs": [
        {
          "internalType": "contract IERC20",
          "name": "token",
          "type": "address"
        },
        {
          "internalType": "address",
          "name": "to",
          "type": "address"
        },
        {
          "internalType": "uint256",
          "name": "amount",
          "type": "uint256"
        }
      ],
      "name": "transfer",
      "outputs": [],
      "stateMutability": "nonpayable",
      "type": "function"
    },
    {
      "stateMutability": "payable",
      "type": "receive"
    }
  ],
  "transactionHash": "0x6dc3058b8e7387a5b5bcd6bb41437ace78817361717744d4d4f88e2bbe89badb",
  "args": [
    "0xa3bf91a131fccfecc43999c9ff4612a25a572859"
  ],
  "numDeployments": 1,
  "solcInputHash": "3e1cb656bb4d15f80231003442127f84",
  "bytecode": "0x60a0346100a157601f61138e38819003918201601f19168301916001600160401b038311848410176100a6578084926020946040528339810103126100a157516001600160a01b03811681036100a1576080526040516112d190816100bd823960805181818160e6015281816101ba01528181610438015281816104d001528181610645015281816107b50152818161098b01528181610af70152610c810152f35b600080fd5b634e487b7160e01b600052604160045260246000fdfe6080604090808252600480361015610022575b505050361561002057600080fd5b005b600091823560e01c90816310a890af14610c13575080631626ba7e14610a63578063343590a41461092257806336669a321461074f578063473aaada146105df578063785620281461046a5780637e5465ba146103e1578063ba80b51e146101515763beabacc803610012573461014d5760607ffffffffffffffffffffffffffffffffffffffffffffffffffffffffffffffffc36011261014d576100c5610dde565b906100ce610e01565b9073ffffffffffffffffffffffffffffffffffffffff7f00000000000000000000000000000000000000000000000000000000000000001680330361011e578461011b60443585876110b8565b80f35b602492508551917f0a86c02a000000000000000000000000000000000000000000000000000000008352820152fd5b5080fd5b5082906020907ffffffffffffffffffffffffffffffffffffffffffffffffffffffffffffffffc9180833601126103dd57813567ffffffffffffffff81116103d9576101a09036908401610dad565b95909373ffffffffffffffffffffffffffffffffffffffff7f0000000000000000000000000000000000000000000000000000000000000000168033036103aa57506101f76101f2889594939561108c565b610f61565b928784526102048861108c565b93838101987fffffffffffffffffffffffffffffffffffffffffffffffffffffffffffffffe0809601368b3761023c6101f28261108c565b978189528661024a8361108c565b01885b8a82821061039b57505050875b82811061031a575050508751977f9cb0e09d000000000000000000000000000000000000000000000000000000008952604489019289015251809152606487019790855b818110610304575050508587030160248601528351918287528187019082808560051b8a0101960194975b8489106102d65787870388fd5b90919293949584806102f2838686600196030188528a5161102e565b980194019801979190949392946102c9565b825115158a52988401989184019160010161029e565b8089808d6103376103326001969d9e9c9d8989610e80565b610eef565b908c610344868a8a610e80565b013561035d610354878b8b610e80565b83810190610f10565b8093519384928337810185815203925af18b6103818361037b610fd4565b926110a4565b5261038c82876110a4565b9015159052019796959761025a565b6060908201890152870161024d565b846024918851917f0a86c02a000000000000000000000000000000000000000000000000000000008352820152fd5b8580fd5b8480fd5b503461014d57827ffffffffffffffffffffffffffffffffffffffffffffffffffffffffffffffffc36011261014d57610418610dde565b610420610e01565b9173ffffffffffffffffffffffffffffffffffffffff7f00000000000000000000000000000000000000000000000000000000000000001680330361011e578461011b8585611152565b5060209060207ffffffffffffffffffffffffffffffffffffffffffffffffffffffffffffffffc3601126105db57803567ffffffffffffffff81116105d7576104b69036908301610dad565b94909273ffffffffffffffffffffffffffffffffffffffff7f0000000000000000000000000000000000000000000000000000000000000000168033036105a85750845b868110610505578580f35b8580610515610332848b8a610e80565b84610521858c8b610e80565b013561053a610531868d8c610e80565b88810190610f10565b91908289519384928337810185815203925af1610555610fd4565b901561056457506001016104fa565b6105a485918580519485947f5c0dee5d0000000000000000000000000000000000000000000000000000000086528501526024840152604483019061102e565b0390fd5b836024918451917f0a86c02a000000000000000000000000000000000000000000000000000000008352820152fd5b8380fd5b8280fd5b508260209060207ffffffffffffffffffffffffffffffffffffffffffffffffffffffffffffffffc3601126105d757823567ffffffffffffffff81116103dd5761062c9036908501610dad565b909373ffffffffffffffffffffffffffffffffffffffff7f000000000000000000000000000000000000000000000000000000000000000016803303610720575050845b81811061067b578580f35b80868061068e610332600195878b610e80565b8761069a85888c610e80565b01356106b36106aa86898d610e80565b89810190610f10565b9190828a519384928337810185815203925af16106ce610fd4565b90156106dc575b5001610670565b6107177f446c70d2c3a7ef80e3641bc32468f1f1432635c1425f71d0033aaa78a59cea67918651918291858352888a8401528883019061102e565b0390a1876106d5565b602492508351917f0a86c02a000000000000000000000000000000000000000000000000000000008352820152fd5b5082807ffffffffffffffffffffffffffffffffffffffffffffffffffffffffffffffffc3601126105db57813567ffffffffffffffff81116105d7576107989036908401610dad565b90602433319273ffffffffffffffffffffffffffffffffffffffff7f0000000000000000000000000000000000000000000000000000000000000000168033036108f35750865b818110610854575050505033319081039081116108285760243511610802578280f35b517f3b5c3088000000000000000000000000000000000000000000000000000000008152fd5b6024846011857f4e487b7100000000000000000000000000000000000000000000000000000000835252fd5b8780610864610332848689610e80565b602061087185878a610e80565b013561088a61088186888b610e80565b8b810190610f10565b9190828c519384928337810185815203925af16108a5610fd4565b90156108b457506001016107df565b6105a48891888681519586957f5c0dee5d000000000000000000000000000000000000000000000000000000008752860152840152604483019061102e565b866024918751917f0a86c02a000000000000000000000000000000000000000000000000000000008352820152fd5b508290346105db5760207ffffffffffffffffffffffffffffffffffffffffffffffffffffffffffffffffc3601126105db57803567ffffffffffffffff81116105d7576109729036908301610d7a565b909173ffffffffffffffffffffffffffffffffffffffff7f000000000000000000000000000000000000000000000000000000000000000016803303610a34575060289360288306610a0e575050835b8181106109cd578480f35b80610a0860148693016109eb6109e58285888a610e24565b90610e3c565b6109ff6109e560609387870190898b610e24565b821c911c611152565b016109c2565b517f947d5a84000000000000000000000000000000000000000000000000000000008152fd5b602492508451917f0a86c02a000000000000000000000000000000000000000000000000000000008352820152fd5b5082346105db57807ffffffffffffffffffffffffffffffffffffffffffffffffffffffffffffffffc3601126105db5760243567ffffffffffffffff81116105d75792610ab560209436908501610d7a565b829192948293855192838782604114610bfc575050604014610bb95750829150815b610b70575b50505073ffffffffffffffffffffffffffffffffffffffff807f000000000000000000000000000000000000000000000000000000000000000016911614610b48575b7fffffffff00000000000000000000000000000000000000000000000000000000905191168152f35b7f1626ba7e000000000000000000000000000000000000000000000000000000009150610b1f565b7f7fffffffffffffffffffffffffffffff5d576e7357a4501ddfe92f46681b20a160608301511015610adc5782935086929160809135815282805260015afa5051848080610adc565b7f7fffffffffffffffffffffffffffffffffffffffffffffffffffffffffffffff81898086940135918260ff1c601b018286015289850137166060820152610ad7565b8092508391930135861a8a84015281830137610ad7565b90508391346105d75760209060207ffffffffffffffffffffffffffffffffffffffffffffffffffffffffffffffffc3601126103dd57803567ffffffffffffffff81116103d957610c679036908301610d7a565b91909373ffffffffffffffffffffffffffffffffffffffff7f000000000000000000000000000000000000000000000000000000000000000016803303610d4f57505060489460488306610a0e575050845b818110610cc4578580f35b80610d17601487930184610cdd6109e58386848c610e24565b610d04610cf66109e58b60609660288a01968792610e24565b841c9287870190898c610e24565b93903593898110610d1d575b501c6110b8565b01610cb9565b7fffffffffffffffffffffffffffffffffffffffffffffffffffffffffffffffff908a0360031b1b909316928c610d10565b6024927f0a86c02a000000000000000000000000000000000000000000000000000000008352820152fd5b9181601f84011215610da85782359167ffffffffffffffff8311610da85760208381860195010111610da857565b600080fd5b9181601f84011215610da85782359167ffffffffffffffff8311610da8576020808501948460051b010111610da857565b6004359073ffffffffffffffffffffffffffffffffffffffff82168203610da857565b6024359073ffffffffffffffffffffffffffffffffffffffff82168203610da857565b90939293848311610da8578411610da8578101920390565b7fffffffffffffffffffffffffffffffffffffffff0000000000000000000000009035818116939260148110610e7157505050565b60140360031b82901b16169150565b9190811015610ec05760051b810135907fffffffffffffffffffffffffffffffffffffffffffffffffffffffffffffffa181360301821215610da8570190565b7f4e487b7100000000000000000000000000000000000000000000000000000000600052603260045260246000fd5b3573ffffffffffffffffffffffffffffffffffffffff81168103610da85790565b9035907fffffffffffffffffffffffffffffffffffffffffffffffffffffffffffffffe181360301821215610da8570180359067ffffffffffffffff8211610da857602001918136038313610da857565b907fffffffffffffffffffffffffffffffffffffffffffffffffffffffffffffffe0601f604051930116820182811067ffffffffffffffff821117610fa557604052565b7f4e487b7100000000000000000000000000000000000000000000000000000000600052604160045260246000fd5b3d15611029573d9067ffffffffffffffff8211610fa55761101c60207fffffffffffffffffffffffffffffffffffffffffffffffffffffffffffffffe0601f85011601610f61565b9182523d6000602084013e565b606090565b919082519283825260005b8481106110785750507fffffffffffffffffffffffffffffffffffffffffffffffffffffffffffffffe0601f8460006020809697860101520116010190565b602081830181015184830182015201611039565b67ffffffffffffffff8111610fa55760051b60200190565b8051821015610ec05760209160051b010190565b916044602092600092604051917fa9059cbb0000000000000000000000000000000000000000000000000000000083526004830152602482015282855af1908161112f575b501561110557565b60046040517ffb7f5079000000000000000000000000000000000000000000000000000000008152fd5b90503d1561114a5750600160005114601f3d11165b386110fd565b3b1515611144565b9061115d8183611215565b15611166575050565b6020600060446040517f095ea7b300000000000000000000000000000000000000000000000000000000815284600482015282602482015282865af1806111f5575b159182156111e3575b50506111b957565b60046040517f19be9a90000000000000000000000000000000000000000000000000000000008152fd5b6111ed9250611215565b1538806111b1565b503d1561120c57600160005114601f3d11166111a8565b813b15156111a8565b919060006044602092604051907f095ea7b300000000000000000000000000000000000000000000000000000000825260048201527fffffffffffffffffffffffffffffffffffffffffffffffffffffffffffffffff602482015282865af1918261127d5750565b9091503d156112955750600160005114601f3d111690565b3b15159056fea2646970667358221220fccad42c216b436f15c2a508be862fa64527527075113012d32c5df2cd5bcbf264736f6c63430008170033",
  "devdoc": {
    "kind": "dev",
    "methods": {
      "isValidSignature(bytes32,bytes)": {
        "details": "Should return whether the signature provided is valid for the provided data",
        "params": {
          "hash": "Hash of the data to be signed",
          "signature": "Signature byte array associated with _data"
        }
      }
    },
    "version": 1
  },
  "userdoc": {
    "kind": "user",
    "methods": {},
    "version": 1
  },
  "storageLayout": {
    "storage": [],
    "types": null
  }
}