{
  "address": "0x14F842974b49A1102a534c43573c430dBC03B344",
  "abi": [
    {
      "inputs": [
        {
          "internalType": "contract ILBPair",
          "name": "pair",
          "type": "address"
        },
        {
          "internalType": "uint24",
          "name": "offset",
          "type": "uint24"
        },
        {
          "internalType": "uint24",
          "name": "size",
          "type": "uint24"
        }
      ],
      "name": "getBins",
      "outputs": [
        {
          "components": [
            {
              "internalType": "uint256",
              "name": "id",
              "type": "uint256"
            },
            {
              "internalType": "uint256",
              "name": "reserveX",
              "type": "uint256"
            },
            {
              "internalType": "uint256",
              "name": "reserveY",
              "type": "uint256"
            }
          ],
          "internalType": "struct TraderJoeHelper_v2_1.BinData[]",
          "name": "data",
          "type": "tuple[]"
        },
        {
          "internalType": "uint24",
          "name": "i",
          "type": "uint24"
        }
      ],
      "stateMutability": "view",
      "type": "function"
    }
  ],
  "transactionHash": "0x3c20a134c4ffa846892b57af4a68630d2d6fa3638c9f80206289b7c8c18674e3",
  "args": [],
  "numDeployments": 1,
  "solcInputHash": "cf890145b32db6437ee5e04ddb577103",
  "bytecode": "0x608080604052346100165761065b908161001c8239f35b600080fdfe6080604052600436101561001257600080fd5b60003560e01c6336d9ec191461002757600080fd5b346105285760607ffffffffffffffffffffffffffffffffffffffffffffffffffffffffffffffffc3601126105285760043573ffffffffffffffffffffffffffffffffffffffff811681036105285760243562ffffff81168103610528576044359062ffffff82168203610528576000916100a662ffffff821661056e565b916100b4604051938461052d565b62ffffff821683527fffffffffffffffffffffffffffffffffffffffffffffffffffffffffffffffe06100eb62ffffff841661056e565b0160005b8181106104ba575050604051907fa41a01fb0000000000000000000000000000000000000000000000000000000082526001600483015262ffffff602483015260208260448173ffffffffffffffffffffffffffffffffffffffff8a165afa91821561029c57600092610499575b505b62ffffff821662ffffff8216108061048b575b15610323576040517f0abe968800000000000000000000000000000000000000000000000000000000815262ffffff8216600482015260408160248173ffffffffffffffffffffffffffffffffffffffff8b165afa90811561029c576000906000926102f1575b506fffffffffffffffffffffffffffffffff809116911681158015906102e8575b6102a8575b505062ffffff604051917fa41a01fb0000000000000000000000000000000000000000000000000000000083526000600484015216602482015260208160448173ffffffffffffffffffffffffffffffffffffffff8a165afa90811561029c5760009161026d575b5061015f565b61028f915060203d602011610295575b610287818361052d565b810190610586565b38610267565b503d61027d565b6040513d6000823e3d90fd5b90869160206102ba60019599896105e2565b51019060406102c9858a6105e2565b5101525262ffffff86166102dd82876105e2565b5152019338806101ff565b508015156101fa565b9050610315915060403d60401161031c575b61030d818361052d565b8101906105be565b90386101d9565b503d610303565b9391859062ffffff80871693168314908161047c575b506103a8575b50508152604051906040820160408352815180915260206060840192019060005b81811061037a5750505062ffffff82931660208301520390f35b9091926020606060019260408751805183528481015185840152015160408201520194019101919091610360565b73ffffffffffffffffffffffffffffffffffffffff93945060409060248251809681937f0abe9688000000000000000000000000000000000000000000000000000000008352866004840152165afa92831561029c5760019360009160009161045b575b50602061041985886105e2565b510191604061042886896105e2565b51016fffffffffffffffffffffffffffffffff809316905216905261044d82856105e2565b51520190600091838061033f565b9050610476915060403d60401161031c5761030d818361052d565b8661040c565b62ffffff915016831086610339565b5062ffffff83168510610172565b6104b391925060203d60201161029557610287818361052d565b903861015d565b60405190606082019180831067ffffffffffffffff8411176104f9576020926040526000815282600081830152600060408301528288010152016100ef565b7f4e487b7100000000000000000000000000000000000000000000000000000000600052604160045260246000fd5b600080fd5b90601f7fffffffffffffffffffffffffffffffffffffffffffffffffffffffffffffffe0910116810190811067ffffffffffffffff8211176104f957604052565b67ffffffffffffffff81116104f95760051b60200190565b90816020910312610528575162ffffff811681036105285790565b51906fffffffffffffffffffffffffffffffff8216820361052857565b9190826040910312610528576105df60206105d8846105a1565b93016105a1565b90565b80518210156105f65760209160051b010190565b7f4e487b7100000000000000000000000000000000000000000000000000000000600052603260045260246000fdfea26469706673582212208051fb15f67ca22007a983f995e108401a859d26103cf1ce0cce3e9cb17056fe64736f6c63430008130033",
  "devdoc": {
    "kind": "dev",
    "methods": {},
    "version": 1
  },
  "userdoc": {
    "kind": "user",
    "methods": {},
    "version": 1
  },
  "storageLayout": {
    "storage": [],
    "types": null
  }
}