{
  "address": "0xF9daA12c1ca20EB1b233Eaf4EE787ceC86b3d6Bc",
  "abi": [
    {
      "inputs": [
        {
          "internalType": "address",
          "name": "pool",
          "type": "address"
        }
      ],
      "name": "get",
      "outputs": [
        {
          "internalType": "bytes",
          "name": "res",
          "type": "bytes"
        }
      ],
      "stateMutability": "view",
      "type": "function"
    }
  ],
  "transactionHash": "0xc7db95133e35c547ab0a0de85d6677d483bb85dd9dc9672e38d36b9a83c2b530",
  "args": [],
  "numDeployments": 1,
  "bytecode": "0x6080806040523461001657610364908161001b8239f35b5f80fdfe60806040818152600480361015610014575f80fd5b5f3560e01c63c2bc2efc14610027575f80fd5b3461032a576020807ffffffffffffffffffffffffffffffffffffffffffffffffffffffffffffffffc36011261032a5781359373ffffffffffffffffffffffffffffffffffffffff8516850361032a5783810194606093606083017f8f8654c5ca72a821aaa615fc86fc88d377c34594fee3f7f92eb858e700000000845284818386865afa156103265751601c8401526024906018840185608086018483875afa15610322575080840160a0850186818484885afa1561031f57519360c086016008870188828683865afa1561031b57505192600c87018860e089018383865afa156103195750601087018861010089018383865afa156103195750601487018861012089018383865afa15610319575050610140869a98979601945b8381126101dc575050505050857fffffffffffffffffffffffffffffffffffffffffffffffffffffffffffffffa091030183528351948593828552519283838601525f5b8481106101c65750505f8484018601525050601f017fffffffffffffffffffffffffffffffffffffffffffffffffffffffffffffffe0168101030190f35b8281018201518882018801528795508301610188565b86869b9798999b017f3fffffffffffffffffffffffffffffffffffffffffffffffffffffffffffffff82167febcb00670000000000000000000000000000000000000000000000000000000089528285528982888b875afa156102e95781516102ed575b7f31f7e3060000000000000000000000000000000000000000000000000000000089528285528982888b875afa156102e9578982516102bd575b507fc00000000000000000000000000000000000000000000000000000000000000081166102b2575b50506001019997969599610144565b90965260015f6102a3565b7f400000000000000000000000000000000000000000000000000000000000000091920191178961027a565b8689fd5b878c0191507f800000000000000000000000000000000000000000000000000000000000000017610240565bfd5b8490fd5b50fd5b9050fd5b5082fd5b5f80fdfea2646970667358221220462224f48470864f7f5f615809733c6c5300df647c3cad4b224ca3c72db8837c64736f6c63430008170033"
}