{
  "address": "0xb338618634Af46a2B530d077FCbA39f7f927D764",
  "abi": [
    {
      "inputs": [
        {
          "internalType": "contract IKyber",
          "name": "pool",
          "type": "address"
        },
        {
          "internalType": "uint256",
          "name": "maxTickNum",
          "type": "uint256"
        }
      ],
      "name": "getTicks",
      "outputs": [
        {
          "internalType": "bytes[]",
          "name": "ticks",
          "type": "bytes[]"
        }
      ],
      "stateMutability": "view",
      "type": "function"
    }
  ],
  "transactionHash": "0x2e0f51dece60c50cf78034cae0bd5206a6fada66c529cc0a14f8a16ebb8759b9",
  "args": [],
  "numDeployments": 1,
  "solcInputHash": "97e4fefd86f366bb4c4f567be2b50d2b",
  "bytecode": "0x6080806040523461001657610863908161001b8239f35b5f80fdfe60806040818152600480361015610014575f80fd5b5f3560e01c638d8fdc0414610027575f80fd5b3461040657817ffffffffffffffffffffffffffffffffffffffffffffffffffffffffffffffffc3601126104065780359173ffffffffffffffffffffffffffffffffffffffff9283811680910361040657602435907f217ac23700000000000000000000000000000000000000000000000000000000865260809586818681855afa9586156106b3575f96610654575b50506100c282610739565b936100cf845195866106bd565b8285526100db83610739565b94602097888201947fffffffffffffffffffffffffffffffffffffffffffffffffffffffffffffffe0809801368737600195835115610628576002998a0b80915287517fc0ac75cf0000000000000000000000000000000000000000000000000000000091828252808783015289826024818b5afa801561061e57908c915f935f916105fb575b508381930b82811415806105f2575b6105b0575b508d0b90811415806105a7575b61058a575b505b808c0b80158d8115809261057f575b1561056e5784900b806104d6575b50858b146104c65761042a575b5083890361018a575050505097969594975b6101cf85610739565b966101dc8a5198896106bd565b858852866101e987610739565b015f5b81811061041b5750505f5b8681106102b2578a8a8a8a835193838594850190808652845180925280838701938360051b8801019501935f905b8382106102325787870388f35b919395909294967fffffffffffffffffffffffffffffffffffffffffffffffffffffffffffffffc0908203018652838288518051908185525f5b82811061029b575050838392601f835f86809660019a0101520116010198019601920187969594929391610225565b81810185015186820186015288948794500161026c565b6102c181859c999a9b9c610751565b51820b8851907ff30dba930000000000000000000000000000000000000000000000000000000082528682015283816024818a5afa8015610411575f915f916103b9575b506103108387610751565b518a5192861b7fffffffffffffffffffffffffffffffff0000000000000000000000000000000016838f015290851b603083015260e81b818a0152602381526060810167ffffffffffffffff81118282101761038d57895260019190610376828d610751565b52610381818c610751565b500199989796996101f7565b6041877f4e487b71000000000000000000000000000000000000000000000000000000005f525260245ffd5b809250858092503d831161040a575b6103d281836106bd565b81010312610406576103e381610810565b8c8201519182600f0b83036104065760606103fe9101610810565b50905f610305565b5f80fd5b503d6103c8565b89513d5f823e3d90fd5b60608a82018c01528a016101ec565b9050895183815281888201528a816024818c5afa9081156104bc575f9161048d575b50808d0b8092141580610484575b1561047c576104749161046d8b89610751565b52986107b6565b975b5f6101b4565b50505f610476565b5081151561045a565b6104ad91508b3d8d116104b5575b6104a581836106bd565b810190610792565b90505f61044c565b503d61049b565b8b513d5f823e3d90fd5b50505050505097969594976101c6565b8c51868152808b01829052919b94508c826024818e5afa918215610564578f908e5f94610544575b505082900b809114158061053b575b15610530579061052891610521868b610751565b52936107b6565b995b5f6101a7565b5092995f935061052a565b5080151561050d565b61055b929450803d106104b5576104a581836106bd565b50915f8e6104fe565b8d513d5f823e3d90fd5b5050505050505097969594976101c6565b5084810b1515610199565b986105a0919961059a8289610751565b526107b6565b975f610188565b50801515610183565b909a885111156105c6578b8801528c995f610176565b6032897f4e487b71000000000000000000000000000000000000000000000000000000005f525260245ffd5b50801515610171565b90506106159193508b3d8d116104b5576104a581836106bd565b9290925f610162565b8a513d5f823e3d90fd5b6032857f4e487b71000000000000000000000000000000000000000000000000000000005f525260245ffd5b909195508682813d83116106ac575b61066d81836106bd565b81010312610406578151908116036104065761068b6020820161072b565b50606061069984830161072b565b9101518015150361040657935f806100b7565b503d610663565b84513d5f823e3d90fd5b90601f7fffffffffffffffffffffffffffffffffffffffffffffffffffffffffffffffe0910116810190811067ffffffffffffffff8211176106fe57604052565b7f4e487b71000000000000000000000000000000000000000000000000000000005f52604160045260245ffd5b51908160020b820361040657565b67ffffffffffffffff81116106fe5760051b60200190565b80518210156107655760209160051b010190565b7f4e487b71000000000000000000000000000000000000000000000000000000005f52603260045260245ffd5b9190826040910312610406576107b360206107ac8461072b565b930161072b565b90565b7fffffffffffffffffffffffffffffffffffffffffffffffffffffffffffffffff81146107e35760010190565b7f4e487b71000000000000000000000000000000000000000000000000000000005f52601160045260245ffd5b51906fffffffffffffffffffffffffffffffff821682036104065756fea264697066735822122025ef2807526bd3ec8498931684af3f887d395abf1a55142f0447f1d7ff7df44564736f6c63430008170033",
  "devdoc": {
    "details": "A contract that includes helper functions for the Kyber protocol.",
    "kind": "dev",
    "methods": {
      "getTicks(address,uint256)": {
        "details": "The function gets the current state of the pool and fetches the ticks by moving in both directions (previous and next) from the current tick. The number of fetched ticks is limited by `maxTickNum`.",
        "params": {
          "maxTickNum": "The maximum number of ticks to fetch.",
          "pool": "The address of the Kyber pool to fetch the ticks from."
        },
        "returns": {
          "ticks": "The bytes array containing the fetched ticks data."
        }
      }
    },
    "title": "KyberHelper",
    "version": 1
  },
  "userdoc": {
    "kind": "user",
    "methods": {
      "getTicks(address,uint256)": {
        "notice": "Fetches initialized ticks from a given Kyber pool."
      }
    },
    "version": 1
  },
  "storageLayout": {
    "storage": [],
    "types": null
  }
}