{
  "address": "0x349425C20D8eD85a2dae6fd59e04F7a45B9FC9cF",
  "abi": [
    {
      "inputs": [
        {
          "internalType": "contract IWETH",
          "name": "weth",
          "type": "address"
        },
        {
          "internalType": "address",
          "name": "owner",
          "type": "address"
        }
      ],
      "stateMutability": "nonpayable",
      "type": "constructor"
    },
    {
      "inputs": [
        {
          "internalType": "uint256",
          "name": "i",
          "type": "uint256"
        },
        {
          "internalType": "bytes",
          "name": "result",
          "type": "bytes"
        }
      ],
      "name": "CallFailed",
      "type": "error"
    },
    {
      "inputs": [],
      "name": "ETHTransferFailed",
      "type": "error"
    },
    {
      "inputs": [
        {
          "internalType": "bool[]",
          "name": "statuses",
          "type": "bool[]"
        },
        {
          "internalType": "bytes[]",
          "name": "results",
          "type": "bytes[]"
        }
      ],
      "name": "EstimationResults",
      "type": "error"
    },
    {
      "inputs": [],
      "name": "ForceApproveFailed",
      "type": "error"
    },
    {
      "inputs": [],
      "name": "InvalidLength",
      "type": "error"
    },
    {
      "inputs": [],
      "name": "LengthMismatch",
      "type": "error"
    },
    {
      "inputs": [],
      "name": "NotEnoughProfit",
      "type": "error"
    },
    {
      "inputs": [],
      "name": "OnlyOwner",
      "type": "error"
    },
    {
      "inputs": [],
      "name": "SafeTransferFailed",
      "type": "error"
    },
    {
      "inputs": [],
      "name": "ZeroAddress",
      "type": "error"
    },
    {
      "anonymous": false,
      "inputs": [
        {
          "indexed": false,
          "internalType": "uint256",
          "name": "i",
          "type": "uint256"
        },
        {
          "indexed": false,
          "internalType": "bytes",
          "name": "result",
          "type": "bytes"
        }
      ],
      "name": "CallFailure",
      "type": "event"
    },
    {
      "inputs": [
        {
          "internalType": "contract IERC20",
          "name": "token",
          "type": "address"
        },
        {
          "internalType": "address",
          "name": "to",
          "type": "address"
        }
      ],
      "name": "approve",
      "outputs": [],
      "stateMutability": "nonpayable",
      "type": "function"
    },
    {
      "inputs": [
        {
          "internalType": "address[]",
          "name": "targets",
          "type": "address[]"
        },
        {
          "internalType": "bytes[]",
          "name": "arguments",
          "type": "bytes[]"
        }
      ],
      "name": "arbitraryCalls",
      "outputs": [],
      "stateMutability": "payable",
      "type": "function"
    },
    {
      "inputs": [
        {
          "internalType": "address[]",
          "name": "targets",
          "type": "address[]"
        },
        {
          "internalType": "bytes[]",
          "name": "arguments",
          "type": "bytes[]"
        },
        {
          "internalType": "uint256[]",
          "name": "values",
          "type": "uint256[]"
        }
      ],
      "name": "arbitraryCalls",
      "outputs": [],
      "stateMutability": "payable",
      "type": "function"
    },
    {
      "inputs": [
        {
          "internalType": "address[]",
          "name": "targets",
          "type": "address[]"
        },
        {
          "internalType": "bytes[]",
          "name": "arguments",
          "type": "bytes[]"
        },
        {
          "internalType": "uint256",
          "name": "minReturn",
          "type": "uint256"
        }
      ],
      "name": "arbitraryCallsWithEthCheck",
      "outputs": [],
      "stateMutability": "payable",
      "type": "function"
    },
    {
      "inputs": [
        {
          "internalType": "address[]",
          "name": "targets",
          "type": "address[]"
        },
        {
          "internalType": "bytes[]",
          "name": "arguments",
          "type": "bytes[]"
        },
        {
          "internalType": "uint256[]",
          "name": "values",
          "type": "uint256[]"
        },
        {
          "internalType": "uint256",
          "name": "minReturn",
          "type": "uint256"
        }
      ],
      "name": "arbitraryCallsWithEthCheck",
      "outputs": [],
      "stateMutability": "payable",
      "type": "function"
    },
    {
      "inputs": [
        {
          "internalType": "address[]",
          "name": "targets",
          "type": "address[]"
        },
        {
          "internalType": "bytes[]",
          "name": "arguments",
          "type": "bytes[]"
        },
        {
          "internalType": "uint256[]",
          "name": "values",
          "type": "uint256[]"
        },
        {
          "internalType": "contract IERC20",
          "name": "token",
          "type": "address"
        },
        {
          "internalType": "uint256",
          "name": "minReturn",
          "type": "uint256"
        }
      ],
      "name": "arbitraryCallsWithTokenCheck",
      "outputs": [],
      "stateMutability": "payable",
      "type": "function"
    },
    {
      "inputs": [
        {
          "internalType": "address[]",
          "name": "targets",
          "type": "address[]"
        },
        {
          "internalType": "bytes[]",
          "name": "arguments",
          "type": "bytes[]"
        },
        {
          "internalType": "contract IERC20",
          "name": "token",
          "type": "address"
        },
        {
          "internalType": "uint256",
          "name": "minReturn",
          "type": "uint256"
        }
      ],
      "name": "arbitraryCallsWithTokenCheck",
      "outputs": [],
      "stateMutability": "payable",
      "type": "function"
    },
    {
      "inputs": [
        {
          "internalType": "bytes",
          "name": "data",
          "type": "bytes"
        }
      ],
      "name": "batchApprove",
      "outputs": [],
      "stateMutability": "nonpayable",
      "type": "function"
    },
    {
      "inputs": [
        {
          "internalType": "bytes",
          "name": "data",
          "type": "bytes"
        }
      ],
      "name": "batchTransfer",
      "outputs": [],
      "stateMutability": "nonpayable",
      "type": "function"
    },
    {
      "inputs": [
        {
          "internalType": "address[]",
          "name": "targets",
          "type": "address[]"
        },
        {
          "internalType": "bytes[]",
          "name": "arguments",
          "type": "bytes[]"
        },
        {
          "internalType": "uint256[]",
          "name": "values",
          "type": "uint256[]"
        }
      ],
      "name": "estimateArbitraryCalls",
      "outputs": [],
      "stateMutability": "payable",
      "type": "function"
    },
    {
      "inputs": [
        {
          "internalType": "address[]",
          "name": "targets",
          "type": "address[]"
        },
        {
          "internalType": "bytes[]",
          "name": "arguments",
          "type": "bytes[]"
        }
      ],
      "name": "estimateArbitraryCalls",
      "outputs": [],
      "stateMutability": "payable",
      "type": "function"
    },
    {
      "inputs": [
        {
          "components": [
            {
              "internalType": "address",
              "name": "to",
              "type": "address"
            },
            {
              "internalType": "uint256",
              "name": "value",
              "type": "uint256"
            },
            {
              "internalType": "bytes",
              "name": "data",
              "type": "bytes"
            }
          ],
          "internalType": "struct LeftoverExchanger.Call[]",
          "name": "calls",
          "type": "tuple[]"
        }
      ],
      "name": "estimateMakeCalls",
      "outputs": [],
      "stateMutability": "payable",
      "type": "function"
    },
    {
      "inputs": [
        {
          "internalType": "bytes32",
          "name": "hash",
          "type": "bytes32"
        },
        {
          "internalType": "bytes",
          "name": "signature",
          "type": "bytes"
        }
      ],
      "name": "isValidSignature",
      "outputs": [
        {
          "internalType": "bytes4",
          "name": "magicValue",
          "type": "bytes4"
        }
      ],
      "stateMutability": "view",
      "type": "function"
    },
    {
      "inputs": [
        {
          "components": [
            {
              "internalType": "address",
              "name": "to",
              "type": "address"
            },
            {
              "internalType": "uint256",
              "name": "value",
              "type": "uint256"
            },
            {
              "internalType": "bytes",
              "name": "data",
              "type": "bytes"
            }
          ],
          "internalType": "struct LeftoverExchanger.Call[]",
          "name": "calls",
          "type": "tuple[]"
        }
      ],
      "name": "makeCalls",
      "outputs": [],
      "stateMutability": "payable",
      "type": "function"
    },
    {
      "inputs": [
        {
          "components": [
            {
              "internalType": "address",
              "name": "to",
              "type": "address"
            },
            {
              "internalType": "uint256",
              "name": "value",
              "type": "uint256"
            },
            {
              "internalType": "bytes",
              "name": "data",
              "type": "bytes"
            }
          ],
          "internalType": "struct LeftoverExchanger.Call[]",
          "name": "calls",
          "type": "tuple[]"
        }
      ],
      "name": "makeCallsNoThrow",
      "outputs": [],
      "stateMutability": "payable",
      "type": "function"
    },
    {
      "inputs": [
        {
          "components": [
            {
              "internalType": "address",
              "name": "to",
              "type": "address"
            },
            {
              "internalType": "uint256",
              "name": "value",
              "type": "uint256"
            },
            {
              "internalType": "bytes",
              "name": "data",
              "type": "bytes"
            }
          ],
          "internalType": "struct LeftoverExchanger.Call[]",
          "name": "calls",
          "type": "tuple[]"
        },
        {
          "internalType": "uint256",
          "name": "minReturn",
          "type": "uint256"
        }
      ],
      "name": "makeCallsWithEthCheck",
      "outputs": [],
      "stateMutability": "payable",
      "type": "function"
    },
    {
      "inputs": [],
      "name": "rescueEther",
      "outputs": [],
      "stateMutability": "nonpayable",
      "type": "function"
    },
    {
      "inputs": [
        {
          "internalType": "contract IERC20",
          "name": "token",
          "type": "address"
        },
        {
          "internalType": "address",
          "name": "to",
          "type": "address"
        },
        {
          "internalType": "uint256",
          "name": "amount",
          "type": "uint256"
        }
      ],
      "name": "transfer",
      "outputs": [],
      "stateMutability": "nonpayable",
      "type": "function"
    },
    {
      "inputs": [
        {
          "internalType": "address payable",
          "name": "receiver",
          "type": "address"
        },
        {
          "internalType": "uint256",
          "name": "amount",
          "type": "uint256"
        }
      ],
      "name": "unwrapTo",
      "outputs": [],
      "stateMutability": "nonpayable",
      "type": "function"
    },
    {
      "stateMutability": "payable",
      "type": "receive"
    }
  ],
  "transactionHash": "0xa53168b3929c5e2b1a76515018a2cc46a502d6435368ff2a20b58bdbd20d05de",
  "args": [
    "0xC02aaA39b223FE8D0A0e5C4F27eAD9083C756Cc2",
    "0xAA74E80De15758Fe983Cb6102176ef2cE195ECfE"
  ],
  "numDeployments": 1,
  "solcInputHash": "97e4fefd86f366bb4c4f567be2b50d2b",
  "bytecode": "0x60c03461011057601f620021ce38819003918201601f19168301916001600160401b038311848410176101145780849260409485528339810103126101105780516001600160a01b0391828216908183036101105760200151928316830361011057156100fe5760805260a0526040516120a590816200012982396080518161019d015260a05181818161014901528181610273015281816102f401528181610495015281816105ce0152818161070d015281816107a00152818161098901528181610bf701528181610db601528181610e8201528181611003015281816110b001528181611221015281816113a7015281816117e90152611d680152f35b60405163d92e233d60e01b8152600490fd5b5f80fd5b634e487b7160e01b5f52604160045260245ffdfe60406080815260048036101561001e575b5050361561001c575f80fd5b005b5f3560e01c8063038ec2ab1461149757806310a890af1461133c5780631626ba7e146111915780631f3177ba1461108d57806320969d0714610fbc578063295861b114610e5b578063343590a414610d5057806336669a3214610b915780633a9d666f14610afa5780633d006abd14610a87578063473aaada146109245780634cbdf31c14610898578063785620281461073d5780637e5465ba146106b557806385c01438146105a6578063ba80b51e1461042f578063bdbb216a146102ce578063beabacc8146102195763c12ea3ca03610010573461021557817ffffffffffffffffffffffffffffffffffffffffffffffffffffffffffffffffc36011261021557803573ffffffffffffffffffffffffffffffffffffffff9182821680920361021557602435927f00000000000000000000000000000000000000000000000000000000000000001633036101ee5782907f2e1a7d4d000000000000000000000000000000000000000000000000000000005f52525f80602481807f00000000000000000000000000000000000000000000000000000000000000005af1156101e4573081036101cc57005b5f80809381935af1156101db57005b513d5f823e3d90fd5b82513d5f823e3d90fd5b83517f5fc483c5000000000000000000000000000000000000000000000000000000008152fd5b5f80fd5b5090346102155760607ffffffffffffffffffffffffffffffffffffffffffffffffffffffffffffffffc36011261021557610252611574565b9061025b6116ae565b9073ffffffffffffffffffffffffffffffffffffffff7f00000000000000000000000000000000000000000000000000000000000000001633036102a65761001c6044358385611e92565b8390517f5fc483c5000000000000000000000000000000000000000000000000000000008152fd5b506102d8366115c5565b73ffffffffffffffffffffffffffffffffffffffff95929391957f0000000000000000000000000000000000000000000000000000000000000000163303610407578084036103df5761032a84611a65565b9561033485611ab4565b945f5b8181106103755785517f9cb0e09d00000000000000000000000000000000000000000000000000000000815280610371898c838d01611c50565b0390fd5b805f8061038d610388600195878b611b1a565b611b57565b610398848936611b1a565b356103a4858a8a611bc9565b9190828d519384928337810185815203925af16103bf6119f0565b6103c9838b611be0565b526103d4828c611be0565b901515905201610337565b8483517fff633a38000000000000000000000000000000000000000000000000000000008152fd5b8483517f5fc483c5000000000000000000000000000000000000000000000000000000008152fd5b5060209160207ffffffffffffffffffffffffffffffffffffffffffffffffffffffffffffffffc36011261021557813567ffffffffffffffff81116102155761047b9036908401611543565b73ffffffffffffffffffffffffffffffffffffffff9291927f000000000000000000000000000000000000000000000000000000000000000016330361057e576104c481611a65565b946104ce82611ab4565b935f5b83811061050b5784517f9cb0e09d00000000000000000000000000000000000000000000000000000000815280610371888b838c01611c50565b805f8061051e6103886001958988611d08565b8661052a858a89611d08565b013561054361053a868b8a611d08565b8b810190611b78565b9190828c519384928337810185815203925af161055e6119f0565b610568838a611be0565b52610573828b611be0565b9015159052016104d1565b8382517f5fc483c5000000000000000000000000000000000000000000000000000000008152fd5b506105b03661162e565b9573ffffffffffffffffffffffffffffffffffffffff9594919392957f000000000000000000000000000000000000000000000000000000000000000016330361068e578582036106675786820361066757505f5b81811061060e57005b5f8061061e61038884868a611b1a565b8a61062a858c8a611b1a565b35610636868c8a611bc9565b8093519384928337810185815203925af161064f6119f0565b501561065d57600101610605565b87513d5f823e3d90fd5b87517fff633a38000000000000000000000000000000000000000000000000000000008152fd5b87517f5fc483c5000000000000000000000000000000000000000000000000000000008152fd5b50903461021557807ffffffffffffffffffffffffffffffffffffffffffffffffffffffffffffffffc360112610215576106ed611574565b6106f56116ae565b9173ffffffffffffffffffffffffffffffffffffffff7f00000000000000000000000000000000000000000000000000000000000000001633036102a65761001c8383611f2a565b5060209160207ffffffffffffffffffffffffffffffffffffffffffffffffffffffffffffffffc36011261021557813567ffffffffffffffff8111610215576107899036908401611543565b73ffffffffffffffffffffffffffffffffffffffff7f0000000000000000000000000000000000000000000000000000000000000000163303610870575f5b8181106107d157005b5f806107e1610388848688611d08565b886107ed858789611d08565b01356108066107fd86888a611d08565b89810190611b78565b9190828a519384928337810185815203925af16108216119f0565b901561083057506001016107c8565b61037186918680519485947f5c0dee5d00000000000000000000000000000000000000000000000000000000865285015260248401526044830190611bf4565b5050517f5fc483c5000000000000000000000000000000000000000000000000000000008152fd5b5060807ffffffffffffffffffffffffffffffffffffffffffffffffffffffffffffffffc3601126102155767ffffffffffffffff8135818111610215576108e29036908401611543565b602492919235828111610215576108fc9036908601611543565b90926044359081116102155761001c9561091891369101611543565b93909260643595611d48565b50906020807ffffffffffffffffffffffffffffffffffffffffffffffffffffffffffffffffc36011261021557823567ffffffffffffffff81116102155761096f9036908501611543565b92909373ffffffffffffffffffffffffffffffffffffffff7f0000000000000000000000000000000000000000000000000000000000000000163303610a6057505f5b8381106109bb57005b805f806109ce610388600195898b611d08565b866109da858a8c611d08565b01356109f36109ea868b8d611d08565b88810190611b78565b91908289519384928337810185815203925af1610a0e6119f0565b9015610a1c575b50016109b2565b610a577f446c70d2c3a7ef80e3641bc32468f1f1432635c1425f71d0033aaa78a59cea67918551918291858352878984015287830190611bf4565b0390a15f610a15565b90517f5fc483c5000000000000000000000000000000000000000000000000000000008152fd5b5060607ffffffffffffffffffffffffffffffffffffffffffffffffffffffffffffffffc3601126102155767ffffffffffffffff813581811161021557610ad19036908401611543565b916024359081116102155761001c93610aec91369101611543565b809291604435943693611d48565b5060807ffffffffffffffffffffffffffffffffffffffffffffffffffffffffffffffffc3601126102155767ffffffffffffffff813581811161021557610b449036908401611543565b91909260243591821161021557610b5d91369101611543565b6044939193359173ffffffffffffffffffffffffffffffffffffffff83168303610215578161001c95606435953693611779565b5090807ffffffffffffffffffffffffffffffffffffffffffffffffffffffffffffffffc36011261021557813567ffffffffffffffff811161021557610bda9036908401611543565b90602433319273ffffffffffffffffffffffffffffffffffffffff7f0000000000000000000000000000000000000000000000000000000000000000163303610d28575f5b818110610c9257505050503331908103908111610c665760243511610c4057005b517f3b5c3088000000000000000000000000000000000000000000000000000000008152fd5b6011837f4e487b71000000000000000000000000000000000000000000000000000000005f525260245ffd5b5f80610ca2610388848689611d08565b6020610caf85878a611d08565b0135610cbf61053a86888b611d08565b9190828c519384928337810185815203925af1610cda6119f0565b9015610ce95750600101610c1f565b6103718891888681519586957f5c0dee5d0000000000000000000000000000000000000000000000000000000087528601528401526044830190611bf4565b8585517f5fc483c5000000000000000000000000000000000000000000000000000000008152fd5b50346102155760207ffffffffffffffffffffffffffffffffffffffffffffffffffffffffffffffffc36011261021557803567ffffffffffffffff811161021557610d9e9036908301611597565b9173ffffffffffffffffffffffffffffffffffffffff7f00000000000000000000000000000000000000000000000000000000000000001633036101ee5760289360288406610e355750505f5b828110610df457005b80610e2f6014869301610e12610e0c82858989611994565b906119ac565b610e26610e0c606093878701908a8a611994565b821c911c611f2a565b01610deb565b517f947d5a84000000000000000000000000000000000000000000000000000000008152fd5b50610e653661162e565b96939492909173ffffffffffffffffffffffffffffffffffffffff7f0000000000000000000000000000000000000000000000000000000000000000163303610f9457808603610f6c57610eb886611a65565b97610ec287611ab4565b965f5b8a828210610f01578a6103718b8b519384937f9cb0e09d0000000000000000000000000000000000000000000000000000000085528401611c50565b90600191610f61825f808b8e8c8f868e610f2f8f8f90610f29610388868094610f3699611b1a565b98611b1a565b3593611bc9565b8093519384928337810185815203925af1928d610f5b83610f556119f0565b92611be0565b52611be0565b901515905201610ec5565b8685517fff633a38000000000000000000000000000000000000000000000000000000008152fd5b8685517f5fc483c5000000000000000000000000000000000000000000000000000000008152fd5b509034610215575f7ffffffffffffffffffffffffffffffffffffffffffffffffffffffffffffffffc3601126102155773ffffffffffffffffffffffffffffffffffffffff7f0000000000000000000000000000000000000000000000000000000000000000163303611067575f80808047335af16110396119f0565b501561104157005b517fb12d13eb000000000000000000000000000000000000000000000000000000008152fd5b517f5fc483c5000000000000000000000000000000000000000000000000000000008152fd5b50611097366115c5565b909373ffffffffffffffffffffffffffffffffffffffff7f000000000000000000000000000000000000000000000000000000000000000016330361116a5781830361114357505f5b8281106110e957005b5f806110f9610388848789611b1a565b611104848636611b1a565b3561111085878b611bc9565b9190828c519384928337810185815203925af161112b6119f0565b5015611139576001016110e0565b85513d5f823e3d90fd5b85517fff633a38000000000000000000000000000000000000000000000000000000008152fd5b85517f5fc483c5000000000000000000000000000000000000000000000000000000008152fd5b503461021557817ffffffffffffffffffffffffffffffffffffffffffffffffffffffffffffffffc360112610215576024359167ffffffffffffffff8311610215576111e260209336908401611597565b5f935f928451928386826041146113255750506040146112e257505f9150815b61129a575b505073ffffffffffffffffffffffffffffffffffffffff807f000000000000000000000000000000000000000000000000000000000000000016911614611272575b7fffffffff00000000000000000000000000000000000000000000000000000000905191168152f35b7f1626ba7e000000000000000000000000000000000000000000000000000000009150611249565b7f7fffffffffffffffffffffffffffffff5d576e7357a4501ddfe92f46681b20a160608301511015611207578592505f9160809135815282805260015afa505f515f80611207565b7f7fffffffffffffffffffffffffffffffffffffffffffffffffffffffffffffff81888086940135918260ff1c601b018286015288850137166060820152611202565b80925083919301355f1a8984015281830137611202565b50346102155760209060207ffffffffffffffffffffffffffffffffffffffffffffffffffffffffffffffffc36011261021557803567ffffffffffffffff81116102155761138d9036908301611597565b92909173ffffffffffffffffffffffffffffffffffffffff7f00000000000000000000000000000000000000000000000000000000000000001633036114705760489460488506610e355750505f5b8381106113e557005b8061143860148793016113fd610e0c82858a8a611994565b90606091611425611417610e0c6028880180958d8d611994565b841c92878701908b8b611994565b9390359388811061143e575b501c611e92565b016113dc565b7fffffffffffffffffffffffffffffffffffffffffffffffffffffffffffffffff90890360031b1b909316925f611431565b84517f5fc483c5000000000000000000000000000000000000000000000000000000008152fd5b5060a07ffffffffffffffffffffffffffffffffffffffffffffffffffffffffffffffffc3601126102155767ffffffffffffffff8135818111610215576114e19036908401611543565b929091602435818111610215576114fb9036908401611543565b9190926044359182116102155761151491369101611543565b916064359373ffffffffffffffffffffffffffffffffffffffff851685036102155761001c9660843596611779565b9181601f840112156102155782359167ffffffffffffffff8311610215576020808501948460051b01011161021557565b6004359073ffffffffffffffffffffffffffffffffffffffff8216820361021557565b9181601f840112156102155782359167ffffffffffffffff8311610215576020838186019501011161021557565b60407ffffffffffffffffffffffffffffffffffffffffffffffffffffffffffffffffc8201126102155767ffffffffffffffff91600435838111610215578261161091600401611543565b939093926024359182116102155761162a91600401611543565b9091565b9060607ffffffffffffffffffffffffffffffffffffffffffffffffffffffffffffffffc8301126102155767ffffffffffffffff600435818111610215578361167991600401611543565b93909392602435838111610215578261169491600401611543565b939093926044359182116102155761162a91600401611543565b6024359073ffffffffffffffffffffffffffffffffffffffff8216820361021557565b90601f7fffffffffffffffffffffffffffffffffffffffffffffffffffffffffffffffe0910116810190811067ffffffffffffffff82111761171257604052565b7f4e487b71000000000000000000000000000000000000000000000000000000005f52604160045260245ffd5b9190820180921161174c57565b7f4e487b71000000000000000000000000000000000000000000000000000000005f52601160045260245ffd5b969490969593919573ffffffffffffffffffffffffffffffffffffffff809516926040978851957f70a08231000000000000000000000000000000000000000000000000000000009485885260049b338d8a01526020998a8a6024818c5afa998a1561198a575f9a61195b575b507f00000000000000000000000000000000000000000000000000000000000000001633036119335782810361190b5781810361190b5790899695949392915f5b8d82821061189d57955050505050506024915051809481938252338b8301525afa928315611139575f9361186b575b5050611862919261173f565b11610c40575050565b90809350813d8311611896575b61188281836116d1565b81010312610215576118629151915f611856565b503d611878565b879899505f91929394959697906118b961038885878695611b1a565b906118c585888c611b1a565b356118d1868a8c611bc9565b8093519384928337810185815203925af16118ea6119f0565b501561190157600101908a97969594939291611827565b8c513d5f823e3d90fd5b8c8c517fff633a38000000000000000000000000000000000000000000000000000000008152fd5b8c8c517f5fc483c5000000000000000000000000000000000000000000000000000000008152fd5b9099508a81813d8311611983575b61197381836116d1565b810103126102155751985f6117e6565b503d611969565b8d513d5f823e3d90fd5b90939293848311610215578411610215578101920390565b7fffffffffffffffffffffffffffffffffffffffff00000000000000000000000090358181169392601481106119e157505050565b60140360031b82901b16169150565b3d15611a48573d9067ffffffffffffffff82116117125760405191611a3d60207fffffffffffffffffffffffffffffffffffffffffffffffffffffffffffffffe0601f84011601846116d1565b82523d5f602084013e565b606090565b67ffffffffffffffff81116117125760051b60200190565b90611a6f82611a4d565b611a7c60405191826116d1565b8281527fffffffffffffffffffffffffffffffffffffffffffffffffffffffffffffffe0611aaa8294611a4d565b0190602036910137565b90611abe82611a4d565b611acb60405191826116d1565b8281527fffffffffffffffffffffffffffffffffffffffffffffffffffffffffffffffe0611af98294611a4d565b01905f5b828110611b0957505050565b806060602080938501015201611afd565b9190811015611b2a5760051b0190565b7f4e487b71000000000000000000000000000000000000000000000000000000005f52603260045260245ffd5b3573ffffffffffffffffffffffffffffffffffffffff811681036102155790565b9035907fffffffffffffffffffffffffffffffffffffffffffffffffffffffffffffffe181360301821215610215570180359067ffffffffffffffff82116102155760200191813603831361021557565b90821015611b2a5761162a9160051b810190611b78565b8051821015611b2a5760209160051b010190565b91908251928382525f5b848110611c3c5750507fffffffffffffffffffffffffffffffffffffffffffffffffffffffffffffffe0601f845f6020809697860101520116010190565b602081830181015184830182015201611bfe565b90604082019160408152815180935260608101926020809301905f5b818110611cf257505050818184039101528251908183528083019281808460051b8301019501935f915b848310611ca65750505050505090565b9091929394958480611ce2837fffffffffffffffffffffffffffffffffffffffffffffffffffffffffffffffe086600196030187528a51611bf4565b9801930193019194939290611c96565b8251151586529484019491840191600101611c6c565b9190811015611b2a5760051b810135907fffffffffffffffffffffffffffffffffffffffffffffffffffffffffffffffa181360301821215610215570190565b92909493919333319573ffffffffffffffffffffffffffffffffffffffff7f0000000000000000000000000000000000000000000000000000000000000000163303611e6857828103611e3e57818103611e3e575f5b818110611de95750505050505050611db89033319261173f565b11611dbf57565b60046040517f3b5c3088000000000000000000000000000000000000000000000000000000008152fd5b611df7610388828489611b1a565b5f80611e0484878a611b1a565b3592611e1185898d611bc9565b90946040958287519384928337810185815203925af1611e2f6119f0565b50156101db5750600101611d9e565b60046040517fff633a38000000000000000000000000000000000000000000000000000000008152fd5b60046040517f5fc483c5000000000000000000000000000000000000000000000000000000008152fd5b9160446020925f92604051917fa9059cbb0000000000000000000000000000000000000000000000000000000083526004830152602482015282855af19081611f08575b5015611ede57565b60046040517ffb7f5079000000000000000000000000000000000000000000000000000000008152fd5b90503d15611f22575060015f5114601f3d11165b5f611ed6565b3b1515611f1c565b90611f358183611feb565b15611f3e575050565b60205f60446040517f095ea7b300000000000000000000000000000000000000000000000000000000815284600482015282602482015282865af180611fcc575b15918215611fba575b5050611f9057565b60046040517f19be9a90000000000000000000000000000000000000000000000000000000008152fd5b611fc49250611feb565b155f80611f88565b503d15611fe25760015f5114601f3d1116611f7f565b813b1515611f7f565b91905f6044602092604051907f095ea7b300000000000000000000000000000000000000000000000000000000825260048201527fffffffffffffffffffffffffffffffffffffffffffffffffffffffffffffffff602482015282865af191826120525750565b9091503d15612069575060015f5114601f3d111690565b3b15159056fea26469706673582212204eca54cfb77c75767d4698f130d811ae9b6de4fa717bbf7d166d55b6614bb03d64736f6c63430008170033",
  "devdoc": {
    "kind": "dev",
    "methods": {
      "isValidSignature(bytes32,bytes)": {
        "details": "Should return whether the signature provided is valid for the provided data",
        "params": {
          "hash": "Hash of the data to be signed",
          "signature": "Signature byte array associated with _data"
        }
      }
    },
    "version": 1
  },
  "userdoc": {
    "kind": "user",
    "methods": {
      "approve(address,address)": {
        "notice": "See {IBalanceManager-approve}."
      },
      "arbitraryCalls(address[],bytes[])": {
        "notice": "See {IBalanceManager-arbitraryCalls}."
      },
      "arbitraryCalls(address[],bytes[],uint256[])": {
        "notice": "See {IBalanceManager-arbitraryCalls}."
      },
      "arbitraryCallsWithEthCheck(address[],bytes[],uint256)": {
        "notice": "See {IBalanceManager-arbitraryCallsWithEthCheck}."
      },
      "arbitraryCallsWithEthCheck(address[],bytes[],uint256[],uint256)": {
        "notice": "See {IBalanceManager-arbitraryCallsWithEthCheck}."
      },
      "arbitraryCallsWithTokenCheck(address[],bytes[],address,uint256)": {
        "notice": "See {IBalanceManager-arbitraryCallsWithTokenCheck}."
      },
      "arbitraryCallsWithTokenCheck(address[],bytes[],uint256[],address,uint256)": {
        "notice": "See {IBalanceManager-arbitraryCallsWithTokenCheck}."
      },
      "batchApprove(bytes)": {
        "notice": "See {IBalanceManager-batchApprove}."
      },
      "batchTransfer(bytes)": {
        "notice": "See {IBalanceManager-batchTransfer}."
      },
      "estimateArbitraryCalls(address[],bytes[])": {
        "notice": "See {IBalanceManager-estimateArbitraryCalls}."
      },
      "estimateArbitraryCalls(address[],bytes[],uint256[])": {
        "notice": "See {IBalanceManager-estimateArbitraryCalls}."
      },
      "rescueEther()": {
        "notice": "See {IBalanceManager-rescueEther}."
      },
      "transfer(address,address,uint256)": {
        "notice": "See {IBalanceManager-transfer}."
      },
      "unwrapTo(address,uint256)": {
        "notice": "See {IBalanceManager-unwrapTo}."
      }
    },
    "version": 1
  },
  "storageLayout": {
    "storage": [],
    "types": null
  }
}