{
  "address": "0x93c04f75Ef81c341D53EBc3337D5cf4aB24A9A7C",
  "abi": [
    {
      "inputs": [
        {
          "internalType": "contract ILBPair",
          "name": "pair",
          "type": "address"
        },
        {
          "internalType": "uint24",
          "name": "offset",
          "type": "uint24"
        },
        {
          "internalType": "uint24",
          "name": "size",
          "type": "uint24"
        }
      ],
      "name": "getBins",
      "outputs": [
        {
          "components": [
            {
              "internalType": "uint256",
              "name": "id",
              "type": "uint256"
            },
            {
              "internalType": "uint256",
              "name": "reserveX",
              "type": "uint256"
            },
            {
              "internalType": "uint256",
              "name": "reserveY",
              "type": "uint256"
            }
          ],
          "internalType": "struct TraderJoeHelper_v2_1.BinData[]",
          "name": "data",
          "type": "tuple[]"
        },
        {
          "internalType": "uint24",
          "name": "i",
          "type": "uint24"
        }
      ],
      "stateMutability": "view",
      "type": "function"
    }
  ],
  "transactionHash": "0x3fe62e1d040532e9bc291263be163bd5c70c052dc16db485e608340246a7d874",
  "args": [],
  "numDeployments": 1,
  "bytecode": "0x608080604052346100165761066d908161001b8239f35b5f80fdfe6040608081526004361015610012575f80fd5b5f3560e01c6336d9ec1914610025575f80fd5b346100fc576060807ffffffffffffffffffffffffffffffffffffffffffffffffffffffffffffffffc3601126100fc576004359073ffffffffffffffffffffffffffffffffffffffff821682036100fc5762ffffff9160243583811681036100fc576044359084821682036100fc576100a092949394610223565b849291925193858501868652845180915260608601946020809101925f905b8382106100d45785871660208a015288880389f35b84518051895280840151898501528a01518a89015296870196938201936001909101906100bf565b5f80fd5b90601f7fffffffffffffffffffffffffffffffffffffffffffffffffffffffffffffffe0910116810190811067ffffffffffffffff82111761014157604052565b7f4e487b71000000000000000000000000000000000000000000000000000000005f52604160045260245ffd5b908160209103126100fc575162ffffff811681036100fc5790565b67ffffffffffffffff81116101415760051b60200190565b51906fffffffffffffffffffffffffffffffff821682036100fc57565b91908260409103126100fc576101df60206101d8846101a1565b93016101a1565b90565b80518210156101f65760209160051b010190565b7f4e487b71000000000000000000000000000000000000000000000000000000005f52603260045260245ffd5b9291604051917fa41a01fb0000000000000000000000000000000000000000000000000000000083526001600484015262ffffff602484015260208360448173ffffffffffffffffffffffffffffffffffffffff89165afa928315610432575f93610616575b5062ffffff8084161461060a575f936102a662ffffff8416610189565b936102b46040519586610100565b62ffffff841685527fffffffffffffffffffffffffffffffffffffffffffffffffffffffffffffffe06102eb62ffffff8616610189565b015f5b8181106105ce57505084925b62ffffff821662ffffff821610806105c0575b156104c0576040517f0abe968800000000000000000000000000000000000000000000000000000000815262ffffff8216600482015260408160248173ffffffffffffffffffffffffffffffffffffffff8d165afa908115610432575f905f9261048e575b506fffffffffffffffffffffffffffffffff9081811615801590610483575b61043d575b50505062ffffff604051917fa41a01fb0000000000000000000000000000000000000000000000000000000083525f600484015216602482015260208160448173ffffffffffffffffffffffffffffffffffffffff8c165afa908115610432575f91610403575b506102fa565b610425915060203d60201161042b575b61041d8183610100565b81019061016e565b5f6103fd565b503d610413565b6040513d5f823e3d90fd5b908992918160206104516001979d8d6101e2565b510193166040610461868d6101e2565b51015216905262ffffff881661047782896101e2565b515201955f8080610396565b508183161515610391565b90506104b2915060403d6040116104b9575b6104aa8183610100565b8101906101be565b905f610372565b503d6104a0565b959396909194929662ffffff8088169316831490816105b1575b506104e457505052565b73ffffffffffffffffffffffffffffffffffffffff9392955060409060248251809681937f0abe9688000000000000000000000000000000000000000000000000000000008352866004840152165afa928315610432576001935f915f91610590575b50602061055485896101e2565b5101916040610563868a6101e2565b51016fffffffffffffffffffffffffffffffff809316905216905261058882866101e2565b5152015f9252565b90506105ab915060403d6040116104b9576104aa8183610100565b5f610547565b62ffffff91501684105f6104da565b5062ffffff8516871061030d565b60405190606082019180831067ffffffffffffffff841117610141576020926040525f81525f838201525f604082015282828a010152016102ee565b50505090506060905f90565b61063091935060203d60201161042b5761041d8183610100565b915f61028956fea264697066735822122057d6161da187ed6ed049d6749979fd18c4a1b84a0a9644f1cdbd4fa5bbbd67f364736f6c63430008170033"
}