{
  "address": "0xe45b28F8dd3C287f08e5049210A757f611fA9a0F",
  "abi": [
    {
      "inputs": [],
      "name": "getAllPoolData",
      "outputs": [
        {
          "internalType": "address[]",
          "name": "pools",
          "type": "address[]"
        },
        {
          "internalType": "address[][]",
          "name": "poolTokens",
          "type": "address[][]"
        },
        {
          "internalType": "address[]",
          "name": "lpTokens",
          "type": "address[]"
        },
        {
          "internalType": "address[]",
          "name": "underlyingTokens",
          "type": "address[]"
        }
      ],
      "stateMutability": "view",
      "type": "function"
    }
  ],
  "transactionHash": "0x68e8f405531e4328d77d913b21939466b40588e5837759e6769f4595050b6c31",
  "args": [],
  "numDeployments": 1,
  "solcInputHash": "97e4fefd86f366bb4c4f567be2b50d2b",
  "bytecode": "0x608080604052346100165761086f908161001b8239f35b5f80fdfe6080604090808252600480361015610015575f80fd5b60e0925f3560e01c6399f283d71461002b575f80fd5b34610337575f7ffffffffffffffffffffffffffffffffffffffffffffffffffffffffffffffffc360112610337577f081e3eda00000000000000000000000000000000000000000000000000000000835260209073489833311676b566f888119c29bd997dc6c958309282858281875afa948515610666575f95610637575b506100b48561073f565b926100be8661073f565b956100c88161073f565b975f965f5b83811061035557505050508487526100e485610727565b946100f1845196876106b9565b8086526100fd81610727565b927fffffffffffffffffffffffffffffffffffffffffffffffffffffffffffffffe0809401835f5b828110610345575050505f5b828110610220576101558a8a8a8a8a8a8a8251978897608089526080890190610670565b908782038189015285519182815281810182808560051b8401019801945f925b8584106101a5578b8a03888d01528b806101a18d6101938e8e610670565b908382036060850152610670565b0390f35b919395999a5091939596978083838893030185528a51908280835192838152019201905f905b8082106101f15750505090806001929b0194019401918b9a999897969491959395610175565b9193806001929473ffffffffffffffffffffffffffffffffffffffff87511681520194019201889392916101cb565b805f73ffffffffffffffffffffffffffffffffffffffff61024285948e6107f8565b51168851938480927faa6ca8080000000000000000000000000000000000000000000000000000000082525afa801561033b575f9061029c575b6001925061028a828b6107f8565b52610295818a6107f8565b5001610131565b50903d805f833e6102ad81836106b9565b81019085818303126103375780519067ffffffffffffffff821161033757019080601f830112156103375781516102e381610727565b926102f08a5194856106b9565b818452878085019260051b8201019283116103375787809101915b83831061031f57505050509060019161027c565b819061032a8461078e565b815201910190879061030b565b5f80fd5b87513d5f823e3d90fd5b606082828c010152018490610125565b86517fb163e79300000000000000000000000000000000000000000000000000000000815281878201526101009060249082818381885afa92831561054e575f936105a7575b50506103a7838b6107f8565b73ffffffffffffffffffffffffffffffffffffffff80931680915289517f2495a59900000000000000000000000000000000000000000000000000000000815288818b81855afa90811561059d579189918f87908d9796955f93610558575b508691610412916107f8565b911690528b51948580927f16f0115b0000000000000000000000000000000000000000000000000000000082525afa92831561054e575f93610517575b508d8c835f925f925b83106104ed5750505015610472575b5050506001016100cd565b90919c9b9a80917fffffffffffffffffffffffffffffffffffffffffffffffffffffffffffffffff82146104c35750916104b78d9e9260019d9e9d809695019d6107f8565b91169052905f80610467565b60118a7f4e487b71000000000000000000000000000000000000000000000000000000005f52525ffd5b826104f7916107f8565b51168486161461050e575b6001018f84908f610458565b60019150610502565b9092508781813d8311610547575b61052f81836106b9565b81010312610337576105409061078e565b915f61044f565b503d610525565b8a513d5f823e3d90fd5b9493975050505081813d8311610596575b61057381836106b9565b810103126103375789938e846104128861058d8e9661078e565b93915091610406565b503d610569565b8b513d5f823e3d90fd5b9080929350813d8311610630575b6105bf81836106b9565b8101031261033757610627856105d48361078e565b926105e08a820161078e565b506105ec8c82016107af565b506105f9606082016107c1565b50610606608082016107c1565b5061061360a082016107de565b5061062060c082016107de565b50016107af565b50905f8061039b565b503d6105b5565b9094508281813d831161065f575b61064f81836106b9565b810103126103375751935f6100aa565b503d610645565b82513d5f823e3d90fd5b9081518082526020808093019301915f5b82811061068f575050505090565b835173ffffffffffffffffffffffffffffffffffffffff1685529381019392810192600101610681565b90601f7fffffffffffffffffffffffffffffffffffffffffffffffffffffffffffffffe0910116810190811067ffffffffffffffff8211176106fa57604052565b7f4e487b71000000000000000000000000000000000000000000000000000000005f52604160045260245ffd5b67ffffffffffffffff81116106fa5760051b60200190565b9061074982610727565b61075660405191826106b9565b8281527fffffffffffffffffffffffffffffffffffffffffffffffffffffffffffffffe06107848294610727565b0190602036910137565b519073ffffffffffffffffffffffffffffffffffffffff8216820361033757565b519064ffffffffff8216820361033757565b51906fffffffffffffffffffffffffffffffff8216820361033757565b51906cffffffffffffffffffffffffff8216820361033757565b805182101561080c5760209160051b010190565b7f4e487b71000000000000000000000000000000000000000000000000000000005f52603260045260245ffdfea2646970667358221220c1c50b18a6199114909b2923786914e188c348088ce0460c9768329d537408b964736f6c63430008170033",
  "devdoc": {
    "kind": "dev",
    "methods": {
      "getAllPoolData()": {
        "returns": {
          "lpTokens": "An array of all LP token addresses.",
          "poolTokens": "A 2D-array of the addresses of the tokens for the specific pools.",
          "pools": "An array of the addresses of all unique pools.",
          "underlyingTokens": "An array of all underlying token addresses associated with the LP tokens."
        }
      }
    },
    "title": "WombatPoolHelper",
    "version": 1
  },
  "userdoc": {
    "kind": "user",
    "methods": {
      "getAllPoolData()": {
        "notice": "Fetches data about all pools."
      }
    },
    "notice": "A helper contract to fetch data about all Wombat pools.",
    "version": 1
  },
  "storageLayout": {
    "storage": [],
    "types": null
  }
}