{
  "address": "0x322E22CC258cBA8b1D40348cB375BeddDD3C2d4C",
  "abi": [
    {
      "inputs": [
        {
          "internalType": "contract IWETH",
          "name": "weth",
          "type": "address"
        },
        {
          "internalType": "address",
          "name": "owner",
          "type": "address"
        }
      ],
      "stateMutability": "nonpayable",
      "type": "constructor"
    },
    {
      "inputs": [
        {
          "internalType": "uint256",
          "name": "i",
          "type": "uint256"
        },
        {
          "internalType": "bytes",
          "name": "result",
          "type": "bytes"
        }
      ],
      "name": "CallFailed",
      "type": "error"
    },
    {
      "inputs": [
        {
          "internalType": "bool[]",
          "name": "statuses",
          "type": "bool[]"
        },
        {
          "internalType": "bytes[]",
          "name": "results",
          "type": "bytes[]"
        }
      ],
      "name": "EstimationResults",
      "type": "error"
    },
    {
      "inputs": [],
      "name": "ForceApproveFailed",
      "type": "error"
    },
    {
      "inputs": [],
      "name": "InvalidLength",
      "type": "error"
    },
    {
      "inputs": [],
      "name": "LengthMismatch",
      "type": "error"
    },
    {
      "inputs": [],
      "name": "NotEnoughProfit",
      "type": "error"
    },
    {
      "inputs": [
        {
          "internalType": "address",
          "name": "owner",
          "type": "address"
        }
      ],
      "name": "OnlyOwner",
      "type": "error"
    },
    {
      "inputs": [],
      "name": "SafeTransferFailed",
      "type": "error"
    },
    {
      "anonymous": false,
      "inputs": [
        {
          "indexed": false,
          "internalType": "uint256",
          "name": "i",
          "type": "uint256"
        },
        {
          "indexed": false,
          "internalType": "bytes",
          "name": "result",
          "type": "bytes"
        }
      ],
      "name": "CallFailure",
      "type": "event"
    },
    {
      "inputs": [
        {
          "internalType": "contract IERC20",
          "name": "token",
          "type": "address"
        },
        {
          "internalType": "address",
          "name": "to",
          "type": "address"
        }
      ],
      "name": "approve",
      "outputs": [],
      "stateMutability": "nonpayable",
      "type": "function"
    },
    {
      "inputs": [
        {
          "internalType": "address[]",
          "name": "targets",
          "type": "address[]"
        },
        {
          "internalType": "bytes[]",
          "name": "arguments",
          "type": "bytes[]"
        }
      ],
      "name": "arbitraryCalls",
      "outputs": [],
      "stateMutability": "nonpayable",
      "type": "function"
    },
    {
      "inputs": [
        {
          "internalType": "address[]",
          "name": "targets",
          "type": "address[]"
        },
        {
          "internalType": "bytes[]",
          "name": "arguments",
          "type": "bytes[]"
        },
        {
          "internalType": "uint256",
          "name": "minReturn",
          "type": "uint256"
        }
      ],
      "name": "arbitraryCallsWithEthCheck",
      "outputs": [],
      "stateMutability": "nonpayable",
      "type": "function"
    },
    {
      "inputs": [
        {
          "internalType": "address[]",
          "name": "targets",
          "type": "address[]"
        },
        {
          "internalType": "bytes[]",
          "name": "arguments",
          "type": "bytes[]"
        },
        {
          "internalType": "contract IERC20",
          "name": "token",
          "type": "address"
        },
        {
          "internalType": "uint256",
          "name": "minReturn",
          "type": "uint256"
        }
      ],
      "name": "arbitraryCallsWithTokenCheck",
      "outputs": [],
      "stateMutability": "nonpayable",
      "type": "function"
    },
    {
      "inputs": [
        {
          "internalType": "bytes",
          "name": "data",
          "type": "bytes"
        }
      ],
      "name": "batchApprove",
      "outputs": [],
      "stateMutability": "nonpayable",
      "type": "function"
    },
    {
      "inputs": [
        {
          "internalType": "bytes",
          "name": "data",
          "type": "bytes"
        }
      ],
      "name": "batchTransfer",
      "outputs": [],
      "stateMutability": "nonpayable",
      "type": "function"
    },
    {
      "inputs": [
        {
          "internalType": "address[]",
          "name": "targets",
          "type": "address[]"
        },
        {
          "internalType": "bytes[]",
          "name": "arguments",
          "type": "bytes[]"
        }
      ],
      "name": "estimateArbitraryCalls",
      "outputs": [],
      "stateMutability": "nonpayable",
      "type": "function"
    },
    {
      "inputs": [
        {
          "components": [
            {
              "internalType": "address",
              "name": "to",
              "type": "address"
            },
            {
              "internalType": "uint256",
              "name": "value",
              "type": "uint256"
            },
            {
              "internalType": "bytes",
              "name": "data",
              "type": "bytes"
            }
          ],
          "internalType": "struct LeftoverExchanger.Call[]",
          "name": "calls",
          "type": "tuple[]"
        }
      ],
      "name": "estimateMakeCalls",
      "outputs": [],
      "stateMutability": "payable",
      "type": "function"
    },
    {
      "inputs": [
        {
          "internalType": "bytes32",
          "name": "hash",
          "type": "bytes32"
        },
        {
          "internalType": "bytes",
          "name": "signature",
          "type": "bytes"
        }
      ],
      "name": "isValidSignature",
      "outputs": [
        {
          "internalType": "bytes4",
          "name": "magicValue",
          "type": "bytes4"
        }
      ],
      "stateMutability": "view",
      "type": "function"
    },
    {
      "inputs": [
        {
          "components": [
            {
              "internalType": "address",
              "name": "to",
              "type": "address"
            },
            {
              "internalType": "uint256",
              "name": "value",
              "type": "uint256"
            },
            {
              "internalType": "bytes",
              "name": "data",
              "type": "bytes"
            }
          ],
          "internalType": "struct LeftoverExchanger.Call[]",
          "name": "calls",
          "type": "tuple[]"
        }
      ],
      "name": "makeCalls",
      "outputs": [],
      "stateMutability": "payable",
      "type": "function"
    },
    {
      "inputs": [
        {
          "components": [
            {
              "internalType": "address",
              "name": "to",
              "type": "address"
            },
            {
              "internalType": "uint256",
              "name": "value",
              "type": "uint256"
            },
            {
              "internalType": "bytes",
              "name": "data",
              "type": "bytes"
            }
          ],
          "internalType": "struct LeftoverExchanger.Call[]",
          "name": "calls",
          "type": "tuple[]"
        }
      ],
      "name": "makeCallsNoThrow",
      "outputs": [],
      "stateMutability": "payable",
      "type": "function"
    },
    {
      "inputs": [
        {
          "components": [
            {
              "internalType": "address",
              "name": "to",
              "type": "address"
            },
            {
              "internalType": "uint256",
              "name": "value",
              "type": "uint256"
            },
            {
              "internalType": "bytes",
              "name": "data",
              "type": "bytes"
            }
          ],
          "internalType": "struct LeftoverExchanger.Call[]",
          "name": "calls",
          "type": "tuple[]"
        },
        {
          "internalType": "uint256",
          "name": "minReturn",
          "type": "uint256"
        }
      ],
      "name": "makeCallsWithEthCheck",
      "outputs": [],
      "stateMutability": "payable",
      "type": "function"
    },
    {
      "inputs": [],
      "name": "rescueEther",
      "outputs": [],
      "stateMutability": "nonpayable",
      "type": "function"
    },
    {
      "inputs": [
        {
          "internalType": "contract IERC20",
          "name": "token",
          "type": "address"
        },
        {
          "internalType": "address",
          "name": "to",
          "type": "address"
        },
        {
          "internalType": "uint256",
          "name": "amount",
          "type": "uint256"
        }
      ],
      "name": "transfer",
      "outputs": [],
      "stateMutability": "nonpayable",
      "type": "function"
    },
    {
      "inputs": [
        {
          "internalType": "address payable",
          "name": "receiver",
          "type": "address"
        },
        {
          "internalType": "uint256",
          "name": "amount",
          "type": "uint256"
        }
      ],
      "name": "unwrapTo",
      "outputs": [],
      "stateMutability": "nonpayable",
      "type": "function"
    },
    {
      "stateMutability": "payable",
      "type": "receive"
    }
  ],
  "transactionHash": "0xa76ab19178f5a1d067492e7543c701a37f839dc66e75cb6443b45740b7ece369",
  "args": [
    "0xe4f05A66Ec68B54A58B17c22107b02e0232cC817",
    "0xa3bf91a131fccfecc43999c9ff4612a25a572859"
  ],
  "numDeployments": 2,
  "solcInputHash": "eb58825ea0176f387dabf5f112f4bd11",
  "bytecode": "0x60c0346100e757601f611cf738819003918201601f19168301916001600160401b038311848410176100ec5780849260409485528339810103126100e75780516001600160a01b039182821682036100e7576020015191821682036100e75760a052608052604051611bf4908161010382396080518181816101260152818161026f0152818161030601528181610478015281816105eb01528181610685015281816107f20152818161097e01528181610b7e01528181610d8901528181610f0101528181610ff001528181611093015281816111de0152611367015260a0518161017f0152f35b600080fd5b634e487b7160e01b600052604160045260246000fdfe60806040818152600480361015610021575b505050361561001f57600080fd5b005b600092833560e01c90816310a890af146112fa575080631626ba7e1461114a5780631f3177ba1461106857806320969d0714610faa578063343590a414610e9a57806336669a3214610d235780633a9d666f14610aa65780633d006abd146108fc578063473aaada1461078c578063785620281461061d5780637e5465ba14610592578063ba80b51e14610412578063bdbb216a146102da578063beabacc8146102145763c12ea3ca03610011573461021057817ffffffffffffffffffffffffffffffffffffffffffffffffffffffffffffffffc3601126102105780359073ffffffffffffffffffffffffffffffffffffffff9081831680930361020c57602435917f0000000000000000000000000000000000000000000000000000000000000000168033036101dd575090808593927f2e1a7d4d000000000000000000000000000000000000000000000000000000008552528280602481807f00000000000000000000000000000000000000000000000000000000000000005af1156101d0573082036101b0578280f35b828092918192611388f1156101c6578181808280f35b51903d90823e3d90fd5b50505051903d90823e3d90fd5b602492508451917f0a86c02a000000000000000000000000000000000000000000000000000000008352820152fd5b8480fd5b8280fd5b508290346102d65760607ffffffffffffffffffffffffffffffffffffffffffffffffffffffffffffffffc3601126102d65761024e61152d565b90610257611550565b9073ffffffffffffffffffffffffffffffffffffffff7f0000000000000000000000000000000000000000000000000000000000000000168033036102a757846102a460443585876119db565b80f35b602492508551917f0a86c02a000000000000000000000000000000000000000000000000000000008352820152fd5b5080fd5b50823461040f576102ea366114c4565b959291939073ffffffffffffffffffffffffffffffffffffffff7f0000000000000000000000000000000000000000000000000000000000000000168033036103e0575061033785611857565b96610341866118a6565b95835b8181106103825786517f9cb0e09d0000000000000000000000000000000000000000000000000000000081528061037e8a8d838e01611921565b0390fd5b80858061039a610395600195878c6115cf565b61160e565b8a826103a7868a8c611680565b8093519384928337810182815203925af16103c0611707565b6103ca838c61190d565b526103d5828d61190d565b901515905201610344565b866024918651917f0a86c02a000000000000000000000000000000000000000000000000000000008352820152fd5b80fd5b508260209260207ffffffffffffffffffffffffffffffffffffffffffffffffffffffffffffffffc3601126102d657823567ffffffffffffffff81116102105761045f9036908501611493565b909273ffffffffffffffffffffffffffffffffffffffff7f00000000000000000000000000000000000000000000000000000000000000001680330361056357506104a982611857565b956104b3836118a6565b94825b8481106104f05785517f9cb0e09d0000000000000000000000000000000000000000000000000000000081528061037e898c838d01611921565b8084806105036103956001958a886117a1565b8661050f858b896117a1565b013561052861051f868c8a6117a1565b8c81019061162f565b9190828d519384928337810185815203925af1610543611707565b61054d838b61190d565b52610558828c61190d565b9015159052016104b6565b856024918551917f0a86c02a000000000000000000000000000000000000000000000000000000008352820152fd5b508290346102d657827ffffffffffffffffffffffffffffffffffffffffffffffffffffffffffffffffc3601126102d6576105cb61152d565b6105d3611550565b9173ffffffffffffffffffffffffffffffffffffffff7f0000000000000000000000000000000000000000000000000000000000000000168033036102a757846102a48585611a75565b50829060209060207ffffffffffffffffffffffffffffffffffffffffffffffffffffffffffffffffc36011261021057803567ffffffffffffffff81116107885761066b9036908301611493565b94909273ffffffffffffffffffffffffffffffffffffffff7f0000000000000000000000000000000000000000000000000000000000000000168033036107595750845b8681106106ba578580f35b85806106ca610395848b8a6117a1565b846106d6858c8b6117a1565b01356106ef6106e6868d8c6117a1565b8881019061162f565b91908289519384928337810185815203925af161070a611707565b901561071957506001016106af565b61037e85918580519485947f5c0dee5d000000000000000000000000000000000000000000000000000000008652850152602484015260448301906117e1565b836024918451917f0a86c02a000000000000000000000000000000000000000000000000000000008352820152fd5b8380fd5b509060209060207ffffffffffffffffffffffffffffffffffffffffffffffffffffffffffffffffc36011261078857823567ffffffffffffffff811161020c576107d99036908501611493565b909373ffffffffffffffffffffffffffffffffffffffff7f0000000000000000000000000000000000000000000000000000000000000000168033036108cd575050845b818110610828578580f35b80868061083b610395600195878b6117a1565b8761084785888c6117a1565b013561086061085786898d6117a1565b8981019061162f565b9190828a519384928337810185815203925af161087b611707565b9015610889575b500161081d565b6108c47f446c70d2c3a7ef80e3641bc32468f1f1432635c1425f71d0033aaa78a59cea67918651918291858352888a840152888301906117e1565b0390a138610882565b602492508351917f0a86c02a000000000000000000000000000000000000000000000000000000008352820152fd5b5090346102105760607ffffffffffffffffffffffffffffffffffffffffffffffffffffffffffffffffc3601126102105767ffffffffffffffff823581811161020c5761094c9036908501611493565b91602435908111610aa2576109649036908601611493565b33319373ffffffffffffffffffffffffffffffffffffffff7f000000000000000000000000000000000000000000000000000000000000000016803303610a735750818103610a4b5790879291835b8181106109fd575050505050506109ce604435913331611765565b106109d7578280f35b517f3b5c3088000000000000000000000000000000000000000000000000000000008152fd5b8480610a0d61039584868b6115cf565b8a82610a1a86898b611680565b8093519384928337810182815203925af1610a33611707565b5015610a41576001016109b3565b87513d86823e3d90fd5b8686517fff633a38000000000000000000000000000000000000000000000000000000008152fd5b876024918851917f0a86c02a000000000000000000000000000000000000000000000000000000008352820152fd5b8580fd5b5090346102105760807ffffffffffffffffffffffffffffffffffffffffffffffffffffffffffffffffc3601126102105767ffffffffffffffff823581811161020c57610af69036908501611493565b91602435908111610aa257610b0e9036908601611493565b9190926044359173ffffffffffffffffffffffffffffffffffffffff94858416809403610d1f578651947f70a082310000000000000000000000000000000000000000000000000000000093848752338a88015260209788886024818a5afa978815610d15578c98610ce2575b507f000000000000000000000000000000000000000000000000000000000000000016803303610cb35750818103610c8b57918a9188959493835b818110610c2d5750505050505060248651809481938252338a8301525afa928315610c23578693610bf1575b50506109ce9060643592611765565b9080929350813d8311610c1c575b610c098183611697565b8101031261020c5751906109ce38610be2565b503d610bff565b84513d88823e3d90fd5b909192938596975080610c456103958486849a6115cf565b8d82610c5286898b611680565b8093519384928337810182815203925af1610c6b611707565b5015610c81576001019089969594939291610bb6565b8a513d86823e3d90fd5b8989517fff633a38000000000000000000000000000000000000000000000000000000008152fd5b8a6024918b51917f0a86c02a000000000000000000000000000000000000000000000000000000008352820152fd5b9097508881813d8311610d0e575b610cfa8183611697565b81010312610d0a57519638610b7b565b8b80fd5b503d610cf0565b8a513d8e823e3d90fd5b8880fd5b5090807ffffffffffffffffffffffffffffffffffffffffffffffffffffffffffffffffc36011261021057813567ffffffffffffffff811161078857610d6c9036908401611493565b90602433319273ffffffffffffffffffffffffffffffffffffffff7f000000000000000000000000000000000000000000000000000000000000000016803303610e6b5750865b818110610dcc57505050506109ce602435913331611765565b8780610ddc6103958486896117a1565b6020610de985878a6117a1565b0135610e02610df986888b6117a1565b8b81019061162f565b9190828c519384928337810185815203925af1610e1d611707565b9015610e2c5750600101610db3565b61037e8891888681519586957f5c0dee5d00000000000000000000000000000000000000000000000000000000875286015284015260448301906117e1565b866024918751917f0a86c02a000000000000000000000000000000000000000000000000000000008352820152fd5b50346102105760207ffffffffffffffffffffffffffffffffffffffffffffffffffffffffffffffffc36011261021057803567ffffffffffffffff811161078857610ee89036908301611460565b909173ffffffffffffffffffffffffffffffffffffffff7f0000000000000000000000000000000000000000000000000000000000000000168033036101dd575060289360288306610f84575050835b818110610f43578480f35b80610f7e6014869301610f61610f5b8285888a611573565b9061158b565b610f75610f5b60609387870190898b611573565b821c911c611a75565b01610f38565b517f947d5a84000000000000000000000000000000000000000000000000000000008152fd5b503461021057827ffffffffffffffffffffffffffffffffffffffffffffffffffffffffffffffffc3601126102105773ffffffffffffffffffffffffffffffffffffffff7f00000000000000000000000000000000000000000000000000000000000000001680330361103b5750508180808047818115611032575b3390f1156101c6575080f35b506108fc611026565b60249251917f0a86c02a000000000000000000000000000000000000000000000000000000008352820152fd5b50903461021057611078366114c4565b9091929473ffffffffffffffffffffffffffffffffffffffff7f0000000000000000000000000000000000000000000000000000000000000000168033036102a75750818403611123575090859291835b8381106110d4578480f35b84806110e461039584888c6115cf565b816110f0858789611680565b9190828c519384928337810182815203925af161110b611707565b5015611119576001016110c9565b85513d86823e3d90fd5b84517fff633a38000000000000000000000000000000000000000000000000000000008152fd5b50903461021057807ffffffffffffffffffffffffffffffffffffffffffffffffffffffffffffffffc3601126102105760243567ffffffffffffffff8111610788579261119c60209436908501611460565b8291929482938551928387826041146112e35750506040146112a05750829150815b611257575b50505073ffffffffffffffffffffffffffffffffffffffff807f00000000000000000000000000000000000000000000000000000000000000001691161461122f575b7fffffffff00000000000000000000000000000000000000000000000000000000905191168152f35b7f1626ba7e000000000000000000000000000000000000000000000000000000009150611206565b7f7fffffffffffffffffffffffffffffff5d576e7357a4501ddfe92f46681b20a1606083015110156111c35782935086929160809135815282805260015afa50513880806111c3565b7f7fffffffffffffffffffffffffffffffffffffffffffffffffffffffffffffff81898086940135918260ff1c601b0182860152898501371660608201526111be565b8092508391930135861a8a840152818301376111be565b919050346107885760209060207ffffffffffffffffffffffffffffffffffffffffffffffffffffffffffffffffc36011261020c57803567ffffffffffffffff8111610aa25761134d9036908301611460565b91909373ffffffffffffffffffffffffffffffffffffffff7f00000000000000000000000000000000000000000000000000000000000000001680330361143557505060489460488306610f84575050845b8181106113aa578580f35b806113fd6014879301846113c3610f5b8386848c611573565b6113ea6113dc610f5b8b60609660288a01968792611573565b841c9287870190898c611573565b93903593898110611403575b501c6119db565b0161139f565b7fffffffffffffffffffffffffffffffffffffffffffffffffffffffffffffffff908a0360031b1b90931692386113f6565b6024927f0a86c02a000000000000000000000000000000000000000000000000000000008352820152fd5b9181601f8401121561148e5782359167ffffffffffffffff831161148e576020838186019501011161148e57565b600080fd5b9181601f8401121561148e5782359167ffffffffffffffff831161148e576020808501948460051b01011161148e57565b60407ffffffffffffffffffffffffffffffffffffffffffffffffffffffffffffffffc82011261148e5767ffffffffffffffff9160043583811161148e578261150f91600401611493565b9390939260243591821161148e5761152991600401611493565b9091565b6004359073ffffffffffffffffffffffffffffffffffffffff8216820361148e57565b6024359073ffffffffffffffffffffffffffffffffffffffff8216820361148e57565b9093929384831161148e57841161148e578101920390565b7fffffffffffffffffffffffffffffffffffffffff00000000000000000000000090358181169392601481106115c057505050565b60140360031b82901b16169150565b91908110156115df5760051b0190565b7f4e487b7100000000000000000000000000000000000000000000000000000000600052603260045260246000fd5b3573ffffffffffffffffffffffffffffffffffffffff8116810361148e5790565b9035907fffffffffffffffffffffffffffffffffffffffffffffffffffffffffffffffe18136030182121561148e570180359067ffffffffffffffff821161148e5760200191813603831361148e57565b908210156115df576115299160051b81019061162f565b90601f7fffffffffffffffffffffffffffffffffffffffffffffffffffffffffffffffe0910116810190811067ffffffffffffffff8211176116d857604052565b7f4e487b7100000000000000000000000000000000000000000000000000000000600052604160045260246000fd5b3d15611760573d9067ffffffffffffffff82116116d8576040519161175460207fffffffffffffffffffffffffffffffffffffffffffffffffffffffffffffffe0601f8401160184611697565b82523d6000602084013e565b606090565b9190820391821161177257565b7f4e487b7100000000000000000000000000000000000000000000000000000000600052601160045260246000fd5b91908110156115df5760051b810135907fffffffffffffffffffffffffffffffffffffffffffffffffffffffffffffffa18136030182121561148e570190565b919082519283825260005b84811061182b5750507fffffffffffffffffffffffffffffffffffffffffffffffffffffffffffffffe0601f8460006020809697860101520116010190565b6020818301810151848301820152016117ec565b67ffffffffffffffff81116116d85760051b60200190565b906118618261183f565b61186e6040519182611697565b8281527fffffffffffffffffffffffffffffffffffffffffffffffffffffffffffffffe061189c829461183f565b0190602036910137565b906118b08261183f565b6118bd6040519182611697565b8281527fffffffffffffffffffffffffffffffffffffffffffffffffffffffffffffffe06118eb829461183f565b019060005b8281106118fc57505050565b8060606020809385010152016118f0565b80518210156115df5760209160051b010190565b906040820191604081528151809352606081019260208093019060005b8181106119c557505050818184039101528251908183528083019281808460051b8301019501936000915b8483106119795750505050505090565b90919293949584806119b5837fffffffffffffffffffffffffffffffffffffffffffffffffffffffffffffffe086600196030187528a516117e1565b9801930193019194939290611969565b825115158652948401949184019160010161193e565b916044602092600092604051917fa9059cbb0000000000000000000000000000000000000000000000000000000083526004830152602482015282855af19081611a52575b5015611a2857565b60046040517ffb7f5079000000000000000000000000000000000000000000000000000000008152fd5b90503d15611a6d5750600160005114601f3d11165b38611a20565b3b1515611a67565b90611a808183611b38565b15611a89575050565b6020600060446040517f095ea7b300000000000000000000000000000000000000000000000000000000815284600482015282602482015282865af180611b18575b15918215611b06575b5050611adc57565b60046040517f19be9a90000000000000000000000000000000000000000000000000000000008152fd5b611b109250611b38565b153880611ad4565b503d15611b2f57600160005114601f3d1116611acb565b813b1515611acb565b919060006044602092604051907f095ea7b300000000000000000000000000000000000000000000000000000000825260048201527fffffffffffffffffffffffffffffffffffffffffffffffffffffffffffffffff602482015282865af19182611ba05750565b9091503d15611bb85750600160005114601f3d111690565b3b15159056fea2646970667358221220d6dbd097ccfe621ec2523dc7219a11ac51241d4a656f621a42854db58b6f589564736f6c63430008170033",
  "devdoc": {
    "kind": "dev",
    "methods": {
      "isValidSignature(bytes32,bytes)": {
        "details": "Should return whether the signature provided is valid for the provided data",
        "params": {
          "hash": "Hash of the data to be signed",
          "signature": "Signature byte array associated with _data"
        }
      }
    },
    "version": 1
  },
  "userdoc": {
    "kind": "user",
    "methods": {},
    "version": 1
  },
  "storageLayout": {
    "storage": [],
    "types": null
  }
}