{
  "address": "0xaFeA5601b0A894451955355E79AD3026515e500d",
  "abi": [
    {
      "inputs": [
        {
          "internalType": "contract IWETH",
          "name": "weth",
          "type": "address"
        },
        {
          "internalType": "address",
          "name": "owner",
          "type": "address"
        }
      ],
      "stateMutability": "nonpayable",
      "type": "constructor"
    },
    {
      "inputs": [
        {
          "internalType": "uint256",
          "name": "i",
          "type": "uint256"
        },
        {
          "internalType": "bytes",
          "name": "result",
          "type": "bytes"
        }
      ],
      "name": "CallFailed",
      "type": "error"
    },
    {
      "inputs": [
        {
          "internalType": "bool[]",
          "name": "statuses",
          "type": "bool[]"
        },
        {
          "internalType": "bytes[]",
          "name": "results",
          "type": "bytes[]"
        }
      ],
      "name": "EstimationResults",
      "type": "error"
    },
    {
      "inputs": [],
      "name": "ForceApproveFailed",
      "type": "error"
    },
    {
      "inputs": [],
      "name": "InvalidLength",
      "type": "error"
    },
    {
      "inputs": [],
      "name": "LengthMismatch",
      "type": "error"
    },
    {
      "inputs": [],
      "name": "NotEnoughProfit",
      "type": "error"
    },
    {
      "inputs": [
        {
          "internalType": "address",
          "name": "owner",
          "type": "address"
        }
      ],
      "name": "OnlyOwner",
      "type": "error"
    },
    {
      "inputs": [],
      "name": "SafeTransferFailed",
      "type": "error"
    },
    {
      "anonymous": false,
      "inputs": [
        {
          "indexed": false,
          "internalType": "uint256",
          "name": "i",
          "type": "uint256"
        },
        {
          "indexed": false,
          "internalType": "bytes",
          "name": "result",
          "type": "bytes"
        }
      ],
      "name": "CallFailure",
      "type": "event"
    },
    {
      "inputs": [
        {
          "internalType": "contract IERC20",
          "name": "token",
          "type": "address"
        },
        {
          "internalType": "address",
          "name": "to",
          "type": "address"
        }
      ],
      "name": "approve",
      "outputs": [],
      "stateMutability": "nonpayable",
      "type": "function"
    },
    {
      "inputs": [
        {
          "internalType": "address[]",
          "name": "targets",
          "type": "address[]"
        },
        {
          "internalType": "bytes[]",
          "name": "arguments",
          "type": "bytes[]"
        }
      ],
      "name": "arbitraryCalls",
      "outputs": [],
      "stateMutability": "nonpayable",
      "type": "function"
    },
    {
      "inputs": [
        {
          "internalType": "address[]",
          "name": "targets",
          "type": "address[]"
        },
        {
          "internalType": "bytes[]",
          "name": "arguments",
          "type": "bytes[]"
        },
        {
          "internalType": "uint256",
          "name": "minReturn",
          "type": "uint256"
        }
      ],
      "name": "arbitraryCallsWithEthCheck",
      "outputs": [],
      "stateMutability": "nonpayable",
      "type": "function"
    },
    {
      "inputs": [
        {
          "internalType": "address[]",
          "name": "targets",
          "type": "address[]"
        },
        {
          "internalType": "bytes[]",
          "name": "arguments",
          "type": "bytes[]"
        },
        {
          "internalType": "contract IERC20",
          "name": "token",
          "type": "address"
        },
        {
          "internalType": "uint256",
          "name": "minReturn",
          "type": "uint256"
        }
      ],
      "name": "arbitraryCallsWithTokenCheck",
      "outputs": [],
      "stateMutability": "nonpayable",
      "type": "function"
    },
    {
      "inputs": [
        {
          "internalType": "bytes",
          "name": "data",
          "type": "bytes"
        }
      ],
      "name": "batchApprove",
      "outputs": [],
      "stateMutability": "nonpayable",
      "type": "function"
    },
    {
      "inputs": [
        {
          "internalType": "bytes",
          "name": "data",
          "type": "bytes"
        }
      ],
      "name": "batchTransfer",
      "outputs": [],
      "stateMutability": "nonpayable",
      "type": "function"
    },
    {
      "inputs": [
        {
          "internalType": "address[]",
          "name": "targets",
          "type": "address[]"
        },
        {
          "internalType": "bytes[]",
          "name": "arguments",
          "type": "bytes[]"
        }
      ],
      "name": "estimateArbitraryCalls",
      "outputs": [],
      "stateMutability": "nonpayable",
      "type": "function"
    },
    {
      "inputs": [
        {
          "components": [
            {
              "internalType": "address",
              "name": "to",
              "type": "address"
            },
            {
              "internalType": "uint256",
              "name": "value",
              "type": "uint256"
            },
            {
              "internalType": "bytes",
              "name": "data",
              "type": "bytes"
            }
          ],
          "internalType": "struct LeftoverExchanger.Call[]",
          "name": "calls",
          "type": "tuple[]"
        }
      ],
      "name": "estimateMakeCalls",
      "outputs": [],
      "stateMutability": "payable",
      "type": "function"
    },
    {
      "inputs": [
        {
          "internalType": "bytes32",
          "name": "hash",
          "type": "bytes32"
        },
        {
          "internalType": "bytes",
          "name": "signature",
          "type": "bytes"
        }
      ],
      "name": "isValidSignature",
      "outputs": [
        {
          "internalType": "bytes4",
          "name": "magicValue",
          "type": "bytes4"
        }
      ],
      "stateMutability": "view",
      "type": "function"
    },
    {
      "inputs": [
        {
          "components": [
            {
              "internalType": "address",
              "name": "to",
              "type": "address"
            },
            {
              "internalType": "uint256",
              "name": "value",
              "type": "uint256"
            },
            {
              "internalType": "bytes",
              "name": "data",
              "type": "bytes"
            }
          ],
          "internalType": "struct LeftoverExchanger.Call[]",
          "name": "calls",
          "type": "tuple[]"
        }
      ],
      "name": "makeCalls",
      "outputs": [],
      "stateMutability": "payable",
      "type": "function"
    },
    {
      "inputs": [
        {
          "components": [
            {
              "internalType": "address",
              "name": "to",
              "type": "address"
            },
            {
              "internalType": "uint256",
              "name": "value",
              "type": "uint256"
            },
            {
              "internalType": "bytes",
              "name": "data",
              "type": "bytes"
            }
          ],
          "internalType": "struct LeftoverExchanger.Call[]",
          "name": "calls",
          "type": "tuple[]"
        }
      ],
      "name": "makeCallsNoThrow",
      "outputs": [],
      "stateMutability": "payable",
      "type": "function"
    },
    {
      "inputs": [
        {
          "components": [
            {
              "internalType": "address",
              "name": "to",
              "type": "address"
            },
            {
              "internalType": "uint256",
              "name": "value",
              "type": "uint256"
            },
            {
              "internalType": "bytes",
              "name": "data",
              "type": "bytes"
            }
          ],
          "internalType": "struct LeftoverExchanger.Call[]",
          "name": "calls",
          "type": "tuple[]"
        },
        {
          "internalType": "uint256",
          "name": "minReturn",
          "type": "uint256"
        }
      ],
      "name": "makeCallsWithEthCheck",
      "outputs": [],
      "stateMutability": "payable",
      "type": "function"
    },
    {
      "inputs": [],
      "name": "rescueEther",
      "outputs": [],
      "stateMutability": "nonpayable",
      "type": "function"
    },
    {
      "inputs": [
        {
          "internalType": "contract IERC20",
          "name": "token",
          "type": "address"
        },
        {
          "internalType": "address",
          "name": "to",
          "type": "address"
        },
        {
          "internalType": "uint256",
          "name": "amount",
          "type": "uint256"
        }
      ],
      "name": "transfer",
      "outputs": [],
      "stateMutability": "nonpayable",
      "type": "function"
    },
    {
      "inputs": [
        {
          "internalType": "address payable",
          "name": "receiver",
          "type": "address"
        },
        {
          "internalType": "uint256",
          "name": "amount",
          "type": "uint256"
        }
      ],
      "name": "unwrapTo",
      "outputs": [],
      "stateMutability": "nonpayable",
      "type": "function"
    },
    {
      "stateMutability": "payable",
      "type": "receive"
    }
  ],
  "transactionHash": "0x263918556d25ff7646c0139bbe31d9c3d4c28d792c546ea22cdab519769ec451",
  "args": [
    "0xC9BdeEd33CD01541e1eeD10f90519d2C06Fe3feB",
    "0xa3bf91a131fccfecc43999c9ff4612a25a572859"
  ],
  "numDeployments": 2,
  "solcInputHash": "31f3306cfc290e17eef2fb2b36a38d8d",
  "bytecode": "0x60c0346100e757601f611c4438819003918201601f19168301916001600160401b038311848410176100eb5780849260409485528339810103126100e75780516001600160a01b039182821682036100e7576020015191821682036100e75760a052608052604051611b44908161010082396080518181816101290152818161025e015281816102bc0152818161042c0152818161059d01528181610631015281816107970152818161091f01528181610b1201528181610d1101528181610e7f01528181610f6c01528181610fdb0152818161114b01526112d0015260a0518161017f0152f35b5f80fd5b634e487b7160e01b5f52604160045260245ffdfe608060409080825260049081361015610022575b5050503615610020575f80fd5b005b5f3560e01c90816310a890af14611266575080631626ba7e146110bb5780631f3177ba14610fb457806320969d0714610f26578063343590a414610e1957806336669a3214610cab5780633a9d666f14610a3a5780633d006abd1461089d578063473aaada1461073257806378562028146105ce5780637e5465ba14610546578063ba80b51e146103c6578063bdbb216a14610292578063beabacc8146102055763c12ea3ca146100d35780610013565b3461020157817ffffffffffffffffffffffffffffffffffffffffffffffffffffffffffffffffc36011261020157803573ffffffffffffffffffffffffffffffffffffffff9182821680920361020157602435927f0000000000000000000000000000000000000000000000000000000000000000168033036101d2575082907f2e1a7d4d000000000000000000000000000000000000000000000000000000005f52525f80602481807f00000000000000000000000000000000000000000000000000000000000000005af1156101c8573081036101ae57005b5f8080938193611388f1156101bf57005b513d5f823e3d90fd5b82513d5f823e3d90fd5b602492508451917f0a86c02a000000000000000000000000000000000000000000000000000000008352820152fd5b5f80fd5b50346102015760607ffffffffffffffffffffffffffffffffffffffffffffffffffffffffffffffffc3601126102015761023d61148f565b906102466114b2565b9073ffffffffffffffffffffffffffffffffffffffff7f0000000000000000000000000000000000000000000000000000000000000000168033036101d2576100206044358486611931565b5034610201576102a136611426565b9491929073ffffffffffffffffffffffffffffffffffffffff7f00000000000000000000000000000000000000000000000000000000000000001680330361039757506102ed846117b0565b956102f7856117ff565b945f5b8181106103385785517f9cb0e09d00000000000000000000000000000000000000000000000000000000815280610334898c838d01611879565b0390fd5b805f8061035061034b600195878b611531565b61156e565b8161035c85898b6115e0565b9190828d519384928337810182815203925af1610377611665565b610381838b611865565b5261038c828c611865565b9015159052016102fa565b856024918551917f0a86c02a000000000000000000000000000000000000000000000000000000008352820152fd5b5060209160207ffffffffffffffffffffffffffffffffffffffffffffffffffffffffffffffffc36011261020157813567ffffffffffffffff81116102015761041290369084016113f5565b73ffffffffffffffffffffffffffffffffffffffff9291927f000000000000000000000000000000000000000000000000000000000000000016803303610517575061045d816117b0565b94610467826117ff565b935f5b8381106104a45784517f9cb0e09d00000000000000000000000000000000000000000000000000000000815280610334888b838c01611879565b805f806104b761034b60019589886116fc565b866104c3858a896116fc565b01356104dc6104d3868b8a6116fc565b8b81019061158f565b9190828c519384928337810185815203925af16104f7611665565b610501838a611865565b5261050c828b611865565b90151590520161046a565b846024918451917f0a86c02a000000000000000000000000000000000000000000000000000000008352820152fd5b503461020157817ffffffffffffffffffffffffffffffffffffffffffffffffffffffffffffffffc3601126102015761057d61148f565b6105856114b2565b9173ffffffffffffffffffffffffffffffffffffffff7f0000000000000000000000000000000000000000000000000000000000000000168033036101d25761002084846119c9565b5060209160207ffffffffffffffffffffffffffffffffffffffffffffffffffffffffffffffffc36011261020157813567ffffffffffffffff81116102015761061a90369084016113f5565b73ffffffffffffffffffffffffffffffffffffffff7f00000000000000000000000000000000000000000000000000000000000000001680330361070357505f5b81811061066457005b5f8061067461034b8486886116fc565b886106808587896116fc565b013561069961069086888a6116fc565b8981019061158f565b9190828a519384928337810185815203925af16106b4611665565b90156106c3575060010161065b565b61033486918680519485947f5c0dee5d0000000000000000000000000000000000000000000000000000000086528501526024840152604483019061173c565b846024918551917f0a86c02a000000000000000000000000000000000000000000000000000000008352820152fd5b50906020807ffffffffffffffffffffffffffffffffffffffffffffffffffffffffffffffffc36011261020157823567ffffffffffffffff81116102015761077d90369085016113f5565b92909373ffffffffffffffffffffffffffffffffffffffff7f0000000000000000000000000000000000000000000000000000000000000000168033036108705750505f5b8381106107cb57005b805f806107de61034b600195898b6116fc565b866107ea858a8c6116fc565b01356108036107fa868b8d6116fc565b8881019061158f565b91908289519384928337810185815203925af161081e611665565b901561082c575b50016107c2565b6108677f446c70d2c3a7ef80e3641bc32468f1f1432635c1425f71d0033aaa78a59cea6791855191829185835287898401528783019061173c565b0390a15f610825565b60249251917f0a86c02a000000000000000000000000000000000000000000000000000000008352820152fd5b5090346102015760607ffffffffffffffffffffffffffffffffffffffffffffffffffffffffffffffffc3601126102015767ffffffffffffffff8235818111610201576108ed90369085016113f5565b916024359081116102015761090590369086016113f5565b33319373ffffffffffffffffffffffffffffffffffffffff7f000000000000000000000000000000000000000000000000000000000000000016803303610a0b57508181036109e3575f5b8181106109945787876044356109678933316116c2565b1061096e57005b517f3b5c3088000000000000000000000000000000000000000000000000000000008152fd5b5f806109a461034b84868a611531565b816109b085888a6115e0565b9190828d519384928337810182815203925af16109cb611665565b50156109d957600101610950565b86513d5f823e3d90fd5b8686517fff633a38000000000000000000000000000000000000000000000000000000008152fd5b876024918851917f0a86c02a000000000000000000000000000000000000000000000000000000008352820152fd5b5090346102015760807ffffffffffffffffffffffffffffffffffffffffffffffffffffffffffffffffc3601126102015767ffffffffffffffff823581811161020157610a8a90369085016113f5565b9160243590811161020157610aa290369086016113f5565b9190926044359173ffffffffffffffffffffffffffffffffffffffff94858416809403610201578651947f70a082310000000000000000000000000000000000000000000000000000000093848752338a88015260209788886024818a5afa978815610ca1575f98610c72575b507f000000000000000000000000000000000000000000000000000000000000000016803303610c435750818103610c1b579087949392915f5b818110610bbf57505050505060248651809481938252338a8301525afa928315610bb5575f93610b83575b505061096790606435926116c2565b9080929350813d8311610bae575b610b9b81836115f7565b810103126102015751906109675f610b74565b503d610b91565b84513d5f823e3d90fd5b909192939495505f80610bd661034b84868a611531565b8c82610be386898b6115e0565b8093519384928337810182815203925af1610bfc611665565b5015610c115760010190889594939291610b49565b89513d5f823e3d90fd5b8989517fff633a38000000000000000000000000000000000000000000000000000000008152fd5b8a6024918b51917f0a86c02a000000000000000000000000000000000000000000000000000000008352820152fd5b9097508881813d8311610c9a575b610c8a81836115f7565b810103126102015751965f610b0f565b503d610c80565b8a513d5f823e3d90fd5b5090807ffffffffffffffffffffffffffffffffffffffffffffffffffffffffffffffffc36011261020157813567ffffffffffffffff811161020157610cf490369084016113f5565b90602433319273ffffffffffffffffffffffffffffffffffffffff7f000000000000000000000000000000000000000000000000000000000000000016803303610dea57505f5b818110610d5457505050506109676024359133316116c2565b5f80610d6461034b8486896116fc565b6020610d7185878a6116fc565b0135610d816104d386888b6116fc565b9190828c519384928337810185815203925af1610d9c611665565b9015610dab5750600101610d3b565b6103348891888681519586957f5c0dee5d000000000000000000000000000000000000000000000000000000008752860152840152604483019061173c565b866024918751917f0a86c02a000000000000000000000000000000000000000000000000000000008352820152fd5b50346102015760207ffffffffffffffffffffffffffffffffffffffffffffffffffffffffffffffffc36011261020157803567ffffffffffffffff811161020157610e6790369083016113c7565b9173ffffffffffffffffffffffffffffffffffffffff7f0000000000000000000000000000000000000000000000000000000000000000168033036101d2575060289360288406610f005750505f5b828110610ebf57005b80610efa6014869301610edd610ed7828589896114d5565b906114ed565b610ef1610ed7606093878701908a8a6114d5565b821c911c6119c9565b01610eb6565b517f947d5a84000000000000000000000000000000000000000000000000000000008152fd5b5034610201575f7ffffffffffffffffffffffffffffffffffffffffffffffffffffffffffffffffc3601126102015773ffffffffffffffffffffffffffffffffffffffff7f00000000000000000000000000000000000000000000000000000000000000001680330361087057825f80808047818115610fab575b3390f1156101bf57005b506108fc610fa1565b503461020157610fc336611426565b9373ffffffffffffffffffffffffffffffffffffffff7f00000000000000000000000000000000000000000000000000000000000000001680330361108c575084830361106557505f5b82811061101657005b5f8061102661034b848789611531565b81611032858a886115e0565b9190828c519384928337810182815203925af161104d611665565b501561105b5760010161100d565b85513d5f823e3d90fd5b85517fff633a38000000000000000000000000000000000000000000000000000000008152fd5b602492508651917f0a86c02a000000000000000000000000000000000000000000000000000000008352820152fd5b503461020157817ffffffffffffffffffffffffffffffffffffffffffffffffffffffffffffffffc360112610201576024359167ffffffffffffffff83116102015761110c602093369084016113c7565b5f935f9284519283868260411461124f57505060401461120c57505f9150815b6111c4575b505073ffffffffffffffffffffffffffffffffffffffff807f00000000000000000000000000000000000000000000000000000000000000001691161461119c575b7fffffffff00000000000000000000000000000000000000000000000000000000905191168152f35b7f1626ba7e000000000000000000000000000000000000000000000000000000009150611173565b7f7fffffffffffffffffffffffffffffff5d576e7357a4501ddfe92f46681b20a160608301511015611131578592505f9160809135815282805260015afa505f515f80611131565b7f7fffffffffffffffffffffffffffffffffffffffffffffffffffffffffffffff81888086940135918260ff1c601b01828601528885013716606082015261112c565b80925083919301355f1a898401528183013761112c565b905034610201576020807ffffffffffffffffffffffffffffffffffffffffffffffffffffffffffffffffc36011261020157823567ffffffffffffffff8111610201576112b690369085016113c7565b93909273ffffffffffffffffffffffffffffffffffffffff7f00000000000000000000000000000000000000000000000000000000000000001680330361139c57505060489460488506610f005750505f5b83811061131157005b806113646014879301611329610ed782858a8a6114d5565b90606091611351611343610ed76028880180958d8d6114d5565b841c92878701908b8b6114d5565b9390359388811061136a575b501c611931565b01611308565b7fffffffffffffffffffffffffffffffffffffffffffffffffffffffffffffffff90890360031b1b909316925f61135d565b6024927f0a86c02a000000000000000000000000000000000000000000000000000000008352820152fd5b9181601f840112156102015782359167ffffffffffffffff8311610201576020838186019501011161020157565b9181601f840112156102015782359167ffffffffffffffff8311610201576020808501948460051b01011161020157565b60407ffffffffffffffffffffffffffffffffffffffffffffffffffffffffffffffffc8201126102015767ffffffffffffffff916004358381116102015782611471916004016113f5565b939093926024359182116102015761148b916004016113f5565b9091565b6004359073ffffffffffffffffffffffffffffffffffffffff8216820361020157565b6024359073ffffffffffffffffffffffffffffffffffffffff8216820361020157565b90939293848311610201578411610201578101920390565b7fffffffffffffffffffffffffffffffffffffffff000000000000000000000000903581811693926014811061152257505050565b60140360031b82901b16169150565b91908110156115415760051b0190565b7f4e487b71000000000000000000000000000000000000000000000000000000005f52603260045260245ffd5b3573ffffffffffffffffffffffffffffffffffffffff811681036102015790565b9035907fffffffffffffffffffffffffffffffffffffffffffffffffffffffffffffffe181360301821215610201570180359067ffffffffffffffff82116102015760200191813603831361020157565b908210156115415761148b9160051b81019061158f565b90601f7fffffffffffffffffffffffffffffffffffffffffffffffffffffffffffffffe0910116810190811067ffffffffffffffff82111761163857604052565b7f4e487b71000000000000000000000000000000000000000000000000000000005f52604160045260245ffd5b3d156116bd573d9067ffffffffffffffff821161163857604051916116b260207fffffffffffffffffffffffffffffffffffffffffffffffffffffffffffffffe0601f84011601846115f7565b82523d5f602084013e565b606090565b919082039182116116cf57565b7f4e487b71000000000000000000000000000000000000000000000000000000005f52601160045260245ffd5b91908110156115415760051b810135907fffffffffffffffffffffffffffffffffffffffffffffffffffffffffffffffa181360301821215610201570190565b91908251928382525f5b8481106117845750507fffffffffffffffffffffffffffffffffffffffffffffffffffffffffffffffe0601f845f6020809697860101520116010190565b602081830181015184830182015201611746565b67ffffffffffffffff81116116385760051b60200190565b906117ba82611798565b6117c760405191826115f7565b8281527fffffffffffffffffffffffffffffffffffffffffffffffffffffffffffffffe06117f58294611798565b0190602036910137565b9061180982611798565b61181660405191826115f7565b8281527fffffffffffffffffffffffffffffffffffffffffffffffffffffffffffffffe06118448294611798565b01905f5b82811061185457505050565b806060602080938501015201611848565b80518210156115415760209160051b010190565b90604082019160408152815180935260608101926020809301905f5b81811061191b57505050818184039101528251908183528083019281808460051b8301019501935f915b8483106118cf5750505050505090565b909192939495848061190b837fffffffffffffffffffffffffffffffffffffffffffffffffffffffffffffffe086600196030187528a5161173c565b98019301930191949392906118bf565b8251151586529484019491840191600101611895565b9160446020925f92604051917fa9059cbb0000000000000000000000000000000000000000000000000000000083526004830152602482015282855af190816119a7575b501561197d57565b60046040517ffb7f5079000000000000000000000000000000000000000000000000000000008152fd5b90503d156119c1575060015f5114601f3d11165b5f611975565b3b15156119bb565b906119d48183611a8a565b156119dd575050565b60205f60446040517f095ea7b300000000000000000000000000000000000000000000000000000000815284600482015282602482015282865af180611a6b575b15918215611a59575b5050611a2f57565b60046040517f19be9a90000000000000000000000000000000000000000000000000000000008152fd5b611a639250611a8a565b155f80611a27565b503d15611a815760015f5114601f3d1116611a1e565b813b1515611a1e565b91905f6044602092604051907f095ea7b300000000000000000000000000000000000000000000000000000000825260048201527fffffffffffffffffffffffffffffffffffffffffffffffffffffffffffffffff602482015282865af19182611af15750565b9091503d15611b08575060015f5114601f3d111690565b3b15159056fea26469706673582212204083042016ca2e2324739a61a3f3422a66b10807ab00f9f3c50c4e946a7dca7a64736f6c63430008170033",
  "devdoc": {
    "kind": "dev",
    "methods": {
      "isValidSignature(bytes32,bytes)": {
        "details": "Should return whether the signature provided is valid for the provided data",
        "params": {
          "hash": "Hash of the data to be signed",
          "signature": "Signature byte array associated with _data"
        }
      }
    },
    "version": 1
  },
  "userdoc": {
    "kind": "user",
    "methods": {},
    "version": 1
  },
  "storageLayout": {
    "storage": [],
    "types": null
  }
}