{
  "address": "0x4EA90d283BD851c26EEfF1A3799FbC9CEfe50EA8",
  "abi": [
    {
      "inputs": [
        {
          "internalType": "contract IWETH",
          "name": "weth",
          "type": "address"
        },
        {
          "internalType": "address",
          "name": "owner",
          "type": "address"
        }
      ],
      "stateMutability": "nonpayable",
      "type": "constructor"
    },
    {
      "inputs": [],
      "name": "ETHTransferFailed",
      "type": "error"
    },
    {
      "inputs": [
        {
          "internalType": "bool[]",
          "name": "statuses",
          "type": "bool[]"
        },
        {
          "internalType": "bytes[]",
          "name": "results",
          "type": "bytes[]"
        }
      ],
      "name": "EstimationResults",
      "type": "error"
    },
    {
      "inputs": [],
      "name": "ForceApproveFailed",
      "type": "error"
    },
    {
      "inputs": [],
      "name": "InvalidLength",
      "type": "error"
    },
    {
      "inputs": [],
      "name": "LengthMismatch",
      "type": "error"
    },
    {
      "inputs": [],
      "name": "NotEnoughProfit",
      "type": "error"
    },
    {
      "inputs": [],
      "name": "OnlyOwner",
      "type": "error"
    },
    {
      "inputs": [],
      "name": "SafeTransferFailed",
      "type": "error"
    },
    {
      "inputs": [
        {
          "internalType": "contract IERC20",
          "name": "token",
          "type": "address"
        },
        {
          "internalType": "address",
          "name": "to",
          "type": "address"
        }
      ],
      "name": "approve",
      "outputs": [],
      "stateMutability": "nonpayable",
      "type": "function"
    },
    {
      "inputs": [
        {
          "internalType": "address[]",
          "name": "targets",
          "type": "address[]"
        },
        {
          "internalType": "bytes[]",
          "name": "arguments",
          "type": "bytes[]"
        }
      ],
      "name": "arbitraryCalls",
      "outputs": [],
      "stateMutability": "payable",
      "type": "function"
    },
    {
      "inputs": [
        {
          "internalType": "address[]",
          "name": "targets",
          "type": "address[]"
        },
        {
          "internalType": "bytes[]",
          "name": "arguments",
          "type": "bytes[]"
        },
        {
          "internalType": "uint256[]",
          "name": "values",
          "type": "uint256[]"
        }
      ],
      "name": "arbitraryCalls",
      "outputs": [],
      "stateMutability": "payable",
      "type": "function"
    },
    {
      "inputs": [
        {
          "internalType": "address[]",
          "name": "targets",
          "type": "address[]"
        },
        {
          "internalType": "bytes[]",
          "name": "arguments",
          "type": "bytes[]"
        },
        {
          "internalType": "uint256",
          "name": "minReturn",
          "type": "uint256"
        }
      ],
      "name": "arbitraryCallsWithEthCheck",
      "outputs": [],
      "stateMutability": "payable",
      "type": "function"
    },
    {
      "inputs": [
        {
          "internalType": "address[]",
          "name": "targets",
          "type": "address[]"
        },
        {
          "internalType": "bytes[]",
          "name": "arguments",
          "type": "bytes[]"
        },
        {
          "internalType": "uint256[]",
          "name": "values",
          "type": "uint256[]"
        },
        {
          "internalType": "uint256",
          "name": "minReturn",
          "type": "uint256"
        }
      ],
      "name": "arbitraryCallsWithEthCheck",
      "outputs": [],
      "stateMutability": "payable",
      "type": "function"
    },
    {
      "inputs": [
        {
          "internalType": "address[]",
          "name": "targets",
          "type": "address[]"
        },
        {
          "internalType": "bytes[]",
          "name": "arguments",
          "type": "bytes[]"
        },
        {
          "internalType": "uint256[]",
          "name": "values",
          "type": "uint256[]"
        },
        {
          "internalType": "contract IERC20",
          "name": "token",
          "type": "address"
        },
        {
          "internalType": "uint256",
          "name": "minReturn",
          "type": "uint256"
        }
      ],
      "name": "arbitraryCallsWithTokenCheck",
      "outputs": [],
      "stateMutability": "payable",
      "type": "function"
    },
    {
      "inputs": [
        {
          "internalType": "address[]",
          "name": "targets",
          "type": "address[]"
        },
        {
          "internalType": "bytes[]",
          "name": "arguments",
          "type": "bytes[]"
        },
        {
          "internalType": "contract IERC20",
          "name": "token",
          "type": "address"
        },
        {
          "internalType": "uint256",
          "name": "minReturn",
          "type": "uint256"
        }
      ],
      "name": "arbitraryCallsWithTokenCheck",
      "outputs": [],
      "stateMutability": "payable",
      "type": "function"
    },
    {
      "inputs": [
        {
          "internalType": "bytes",
          "name": "data",
          "type": "bytes"
        }
      ],
      "name": "batchApprove",
      "outputs": [],
      "stateMutability": "nonpayable",
      "type": "function"
    },
    {
      "inputs": [
        {
          "internalType": "bytes",
          "name": "data",
          "type": "bytes"
        }
      ],
      "name": "batchTransfer",
      "outputs": [],
      "stateMutability": "nonpayable",
      "type": "function"
    },
    {
      "inputs": [
        {
          "internalType": "address[]",
          "name": "targets",
          "type": "address[]"
        },
        {
          "internalType": "bytes[]",
          "name": "arguments",
          "type": "bytes[]"
        },
        {
          "internalType": "uint256[]",
          "name": "values",
          "type": "uint256[]"
        }
      ],
      "name": "estimateArbitraryCalls",
      "outputs": [],
      "stateMutability": "payable",
      "type": "function"
    },
    {
      "inputs": [
        {
          "internalType": "address[]",
          "name": "targets",
          "type": "address[]"
        },
        {
          "internalType": "bytes[]",
          "name": "arguments",
          "type": "bytes[]"
        }
      ],
      "name": "estimateArbitraryCalls",
      "outputs": [],
      "stateMutability": "payable",
      "type": "function"
    },
    {
      "inputs": [
        {
          "internalType": "bytes32",
          "name": "hash",
          "type": "bytes32"
        },
        {
          "internalType": "bytes",
          "name": "signature",
          "type": "bytes"
        }
      ],
      "name": "isValidSignature",
      "outputs": [
        {
          "internalType": "bytes4",
          "name": "magicValue",
          "type": "bytes4"
        }
      ],
      "stateMutability": "view",
      "type": "function"
    },
    {
      "inputs": [],
      "name": "rescueEther",
      "outputs": [],
      "stateMutability": "nonpayable",
      "type": "function"
    },
    {
      "inputs": [
        {
          "internalType": "contract IERC20",
          "name": "token",
          "type": "address"
        },
        {
          "internalType": "address",
          "name": "to",
          "type": "address"
        },
        {
          "internalType": "uint256",
          "name": "amount",
          "type": "uint256"
        }
      ],
      "name": "transfer",
      "outputs": [],
      "stateMutability": "nonpayable",
      "type": "function"
    },
    {
      "inputs": [
        {
          "internalType": "address payable",
          "name": "receiver",
          "type": "address"
        },
        {
          "internalType": "uint256",
          "name": "amount",
          "type": "uint256"
        }
      ],
      "name": "unwrapTo",
      "outputs": [],
      "stateMutability": "nonpayable",
      "type": "function"
    },
    {
      "stateMutability": "payable",
      "type": "receive"
    }
  ],
  "transactionHash": "0x1c021aae81ac40b42ab7c3ee0eb6ca24815212391e55b4853a1d44851e649a8f",
  "args": [
    "0xB31f66AA3C1e785363F0875A1B74E27b85FD66c7",
    "0xa98f85f55f259ef41548251c93409f1d60e804e4"
  ],
  "numDeployments": 1,
  "solcInputHash": "ba9bf8e1d3cc214bd0265829d59c0aed",
  "bytecode": "0x60c0346100d957601f611cd338819003918201601f19168301916001600160401b038311848410176100de5780849260409485528339810103126100d95780516001600160a01b039182821682036100d9576020015191821682036100d95760805260a052604051611bde90816100f5823960805181610180015260a05181818161012901528181610268015281816102f2015281816105bc015281816107080152818161094501528181610a1201528181610d0e01528181610dbf01528181610f3a015281816110be015281816114ea01526118900152f35b600080fd5b634e487b7160e01b600052604160045260246000fdfe60406080815260049081361015610020575b5050361561001e57600080fd5b005b600091823560e01c8063038ec2ab1461118957806310a890af146110565780631626ba7e14610ea65780631f3177ba14610d9a57806320969d0714610cc7578063295861b1146109ec578063343590a4146108de5780633a9d666f146108465780633d006abd146107d25780634cbdf31c146107395780637e5465ba146106af57806385c0143814610592578063bdbb216a146102cc578063beabacc81461020d5763c12ea3ca146100d25750610011565b3461020957817ffffffffffffffffffffffffffffffffffffffffffffffffffffffffffffffffc3601126102095780359073ffffffffffffffffffffffffffffffffffffffff9081831680930361020557602435917f00000000000000000000000000000000000000000000000000000000000000001633036101de5790808593927f2e1a7d4d000000000000000000000000000000000000000000000000000000008552528280602481807f00000000000000000000000000000000000000000000000000000000000000005af1156101d1573082036101b1578280f35b828092918192611388f1156101c7578181808280f35b51903d90823e3d90fd5b50505051903d90823e3d90fd5b83517f5fc483c5000000000000000000000000000000000000000000000000000000008152fd5b8480fd5b8280fd5b509190346102c85760607ffffffffffffffffffffffffffffffffffffffffffffffffffffffffffffffffc3601126102c857610247611270565b906102506113aa565b9073ffffffffffffffffffffffffffffffffffffffff7f00000000000000000000000000000000000000000000000000000000000000001633036102a057509061029d91604435916119c5565b80f35b8490517f5fc483c5000000000000000000000000000000000000000000000000000000008152fd5b5080fd5b506102d6366112c1565b919373ffffffffffffffffffffffffffffffffffffffff9391937f000000000000000000000000000000000000000000000000000000000000000016330361056b578285036105445761032c8594939294611785565b610338875191826113cd565b85815261034486611785565b94602093848301957fffffffffffffffffffffffffffffffffffffffffffffffffffffffffffffffe080980136883761037c89611785565b986103898b519a8b6113cd565b808a528861039682611785565b018c5b8b828210610535575050508b5b8c8c8383106104c2579550505050505051967f9cb0e09d000000000000000000000000000000000000000000000000000000008852604488019288015251809152606486019290875b8181106104ac575050507ffffffffffffffffffffffffffffffffffffffffffffffffffffffffffffffffc85830301602486015283519182815281810182808560051b84010196019488925b8584106104485788880389fd5b9091929394959682828203018452858389518c815191828652815b83811061048d575050818501840152601f011690910181019781019695946001019301919061043b565b8186949692955081935001015182828701015201918c86928a94610463565b82511515855293830193918301916001016103ef565b908083926104df6104da9d9e9c9d600196888c61179d565b6117dc565b906104eb858a3661179d565b356104f7868b8b6117fd565b8093519384928337810185815203925af18c61051b83610515611727565b9261185d565b52610526828961185d565b901515905201989796986103a6565b60609082018a01528801610399565b85517fff633a38000000000000000000000000000000000000000000000000000000008152fd5b85517f5fc483c5000000000000000000000000000000000000000000000000000000008152fd5b50919061059e3661132a565b73ffffffffffffffffffffffffffffffffffffffff969594919392967f00000000000000000000000000000000000000000000000000000000000000001633036106875786820361065f5780820361065f57878099509596975b828110610603578680f35b8680868a8c61062e86610626818a8f6104da838f6106209361179d565b9761179d565b35928b6117fd565b8093519384928337810185815203925af1610647611727565b5015610655576001016105f8565b87513d88823e3d90fd5b8886517fff633a38000000000000000000000000000000000000000000000000000000008152fd5b8886517f5fc483c5000000000000000000000000000000000000000000000000000000008152fd5b509190346102c857807ffffffffffffffffffffffffffffffffffffffffffffffffffffffffffffffffc3601126102c8576106e8611270565b6106f06113aa565b9173ffffffffffffffffffffffffffffffffffffffff7f00000000000000000000000000000000000000000000000000000000000000001633036102a057509061029d91611a5f565b838260807ffffffffffffffffffffffffffffffffffffffffffffffffffffffffffffffffc3601126102c85767ffffffffffffffff81358181116107ce57610784903690840161123a565b6024929192358281116107ca5761079e903690860161123a565b90926044359081116107c65761029d956107ba9136910161123a565b93909260643595611871565b8680fd5b8580fd5b8380fd5b838260607ffffffffffffffffffffffffffffffffffffffffffffffffffffffffffffffffc3601126102c85767ffffffffffffffff81358181116107ce5761081d903690840161123a565b916024359081116102055761029d936108389136910161123a565b809291604435943693611871565b838260807ffffffffffffffffffffffffffffffffffffffffffffffffffffffffffffffffc3601126102c85767ffffffffffffffff81358181116107ce57610891903690840161123a565b919092602435918211610205576108aa9136910161123a565b6044939193359173ffffffffffffffffffffffffffffffffffffffff831683036107ca578161029d95606435953693611479565b50346102095760207ffffffffffffffffffffffffffffffffffffffffffffffffffffffffffffffffc36011261020957803567ffffffffffffffff81116107ce5761092c9036908301611293565b909173ffffffffffffffffffffffffffffffffffffffff7f00000000000000000000000000000000000000000000000000000000000000001633036101de57602893602883066109c6575050835b818110610985578480f35b806109c060148693016109a361099d8285888a6116cb565b906116e3565b6109b761099d60609387870190898b6116cb565b821c911c611a5f565b0161097a565b517f947d5a84000000000000000000000000000000000000000000000000000000008152fd5b506109f63661132a565b9473ffffffffffffffffffffffffffffffffffffffff969294967f0000000000000000000000000000000000000000000000000000000000000000163303610c9f57848703610c77578894918794610a50610aae99611785565b93610a5d8b5195866113cd565b868552610a6987611785565b986020978c8988019a7fffffffffffffffffffffffffffffffffffffffffffffffffffffffffffffffe0809d01368d37610aa283611785565b9082519e8f92836113cd565b8382528d610abb85611785565b01815b818110610c5857505080925b848410610be7579850505050505050505051967f9cb0e09d000000000000000000000000000000000000000000000000000000008852604488019288015251809152606486019290875b818110610bd1575050507ffffffffffffffffffffffffffffffffffffffffffffffffffffffffffffffffc85830301602486015283519182815281810182808560051b84010196019488925b858410610b6d5788880389fd5b9091929394959682828203018452858389518c815191828652815b838110610bb2575050818501840152601f0116909101810197810196959460010193019190610b60565b8186949692955081935001015182828701015201918c86928a94610b88565b8251151585529383019391830191600101610b14565b90809d9e9c9d898594938a610c1d878f610c16828f928f908f60019f6104da91610c109361179d565b9861179d565b35936117fd565b8093519384928337810185815203925af190610c3b83610515611727565b52610c46828b61185d565b9015159052018c8f8f9d9c9b9d610aca565b9150925060608c809e9f9d9383010152018f8f928f929e9d9c9e610abe565b8288517fff633a38000000000000000000000000000000000000000000000000000000008152fd5b8288517f5fc483c5000000000000000000000000000000000000000000000000000000008152fd5b50903461020957827ffffffffffffffffffffffffffffffffffffffffffffffffffffffffffffffffc3601126102095773ffffffffffffffffffffffffffffffffffffffff7f0000000000000000000000000000000000000000000000000000000000000000163303610d74578280808047335af1610d44611727565b5015610d4e578280f35b517fb12d13eb000000000000000000000000000000000000000000000000000000008152fd5b517f5fc483c5000000000000000000000000000000000000000000000000000000008152fd5b5090610da5366112c1565b91929473ffffffffffffffffffffffffffffffffffffffff7f0000000000000000000000000000000000000000000000000000000000000000163303610e7f57828403610e58575090859291835b838110610dfe578480f35b8480610e0e6104da84888c61179d565b610e1984873661179d565b35610e258588886117fd565b9190828c519384928337810185815203925af1610e40611727565b5015610e4e57600101610df3565b85513d86823e3d90fd5b84517fff633a38000000000000000000000000000000000000000000000000000000008152fd5b84517f5fc483c5000000000000000000000000000000000000000000000000000000008152fd5b50903461020957807ffffffffffffffffffffffffffffffffffffffffffffffffffffffffffffffffc3601126102095760243567ffffffffffffffff81116107ce5792610ef860209436908501611293565b82919294829385519283878260411461103f575050604014610ffc5750829150815b610fb3575b50505073ffffffffffffffffffffffffffffffffffffffff807f000000000000000000000000000000000000000000000000000000000000000016911614610f8b575b7fffffffff00000000000000000000000000000000000000000000000000000000905191168152f35b7f1626ba7e000000000000000000000000000000000000000000000000000000009150610f62565b7f7fffffffffffffffffffffffffffffff5d576e7357a4501ddfe92f46681b20a160608301511015610f1f5782935086929160809135815282805260015afa5051388080610f1f565b7f7fffffffffffffffffffffffffffffffffffffffffffffffffffffffffffffff81898086940135918260ff1c601b018286015289850137166060820152610f1a565b8092508391930135861a8a84015281830137610f1a565b5034610209576020807ffffffffffffffffffffffffffffffffffffffffffffffffffffffffffffffffc3601126107ce57813567ffffffffffffffff8111610205576110a59036908401611293565b909273ffffffffffffffffffffffffffffffffffffffff7f0000000000000000000000000000000000000000000000000000000000000000163303610e7f57604894604883066109c6575050845b8181106110fe578580f35b8061115160148793018461111761099d8386848c6116cb565b61113e61113061099d8b60609660288a019687926116cb565b841c9287870190898c6116cb565b93903593898110611157575b501c6119c5565b016110f3565b7fffffffffffffffffffffffffffffffffffffffffffffffffffffffffffffffff908a0360031b1b909316923861114a565b838260a07ffffffffffffffffffffffffffffffffffffffffffffffffffffffffffffffffc3601126102c85767ffffffffffffffff81358181116107ce576111d4903690840161123a565b9290916024358181116107ca576111ee903690840161123a565b9190926044359182116107c6576112079136910161123a565b916064359373ffffffffffffffffffffffffffffffffffffffff851685036112365761029d9660843596611479565b8780fd5b9181601f8401121561126b5782359167ffffffffffffffff831161126b576020808501948460051b01011161126b57565b600080fd5b6004359073ffffffffffffffffffffffffffffffffffffffff8216820361126b57565b9181601f8401121561126b5782359167ffffffffffffffff831161126b576020838186019501011161126b57565b60407ffffffffffffffffffffffffffffffffffffffffffffffffffffffffffffffffc82011261126b5767ffffffffffffffff9160043583811161126b578261130c9160040161123a565b9390939260243591821161126b576113269160040161123a565b9091565b9060607ffffffffffffffffffffffffffffffffffffffffffffffffffffffffffffffffc83011261126b5767ffffffffffffffff60043581811161126b57836113759160040161123a565b9390939260243583811161126b57826113909160040161123a565b9390939260443591821161126b576113269160040161123a565b6024359073ffffffffffffffffffffffffffffffffffffffff8216820361126b57565b90601f7fffffffffffffffffffffffffffffffffffffffffffffffffffffffffffffffe0910116810190811067ffffffffffffffff82111761140e57604052565b7f4e487b7100000000000000000000000000000000000000000000000000000000600052604160045260246000fd5b9190820180921161144a57565b7f4e487b7100000000000000000000000000000000000000000000000000000000600052601160045260246000fd5b969490969593919573ffffffffffffffffffffffffffffffffffffffff809516926040978851957f70a08231000000000000000000000000000000000000000000000000000000009485885260049b308d8a01526020998a8a6024818c5afa998a156116c05760009a611691575b507f0000000000000000000000000000000000000000000000000000000000000000163303611669578281036116415781810361164157908996959493929160005b8d8282106115d157955050505050506024915051809481938252308b8301525afa9283156115c657600093611594575b5050611565919261143d565b1161156e575050565b517f3b5c3088000000000000000000000000000000000000000000000000000000008152fd5b90809350813d83116115bf575b6115ab81836113cd565b8101031261126b5761156591519138611559565b503d6115a1565b85513d6000823e3d90fd5b87989950600091929394959697906115ee6104da8587869561179d565b906115fa85888c61179d565b35611606868a8c6117fd565b8093519384928337810185815203925af161161f611727565b501561163657600101908a97969594939291611529565b8c513d6000823e3d90fd5b8c8c517fff633a38000000000000000000000000000000000000000000000000000000008152fd5b8c8c517f5fc483c5000000000000000000000000000000000000000000000000000000008152fd5b9099508a81813d83116116b9575b6116a981836113cd565b8101031261126b575198386114e7565b503d61169f565b8d513d6000823e3d90fd5b9093929384831161126b57841161126b578101920390565b7fffffffffffffffffffffffffffffffffffffffff000000000000000000000000903581811693926014811061171857505050565b60140360031b82901b16169150565b3d15611780573d9067ffffffffffffffff821161140e576040519161177460207fffffffffffffffffffffffffffffffffffffffffffffffffffffffffffffffe0601f84011601846113cd565b82523d6000602084013e565b606090565b67ffffffffffffffff811161140e5760051b60200190565b91908110156117ad5760051b0190565b7f4e487b7100000000000000000000000000000000000000000000000000000000600052603260045260246000fd5b3573ffffffffffffffffffffffffffffffffffffffff8116810361126b5790565b91908110156117ad5760051b810135907fffffffffffffffffffffffffffffffffffffffffffffffffffffffffffffffe18136030182121561126b57019081359167ffffffffffffffff831161126b57602001823603811361126b579190565b80518210156117ad5760209160051b010190565b929094939193479573ffffffffffffffffffffffffffffffffffffffff7f000000000000000000000000000000000000000000000000000000000000000016330361199b57828103611971578181036119715760005b81811061191157505050505050506118e090479261143d565b116118e757565b60046040517f3b5c3088000000000000000000000000000000000000000000000000000000008152fd5b61191f6104da82848961179d565b60008061192d84878a61179d565b359261193a85898d6117fd565b90946040958287519384928337810185815203925af1611958611727565b501561196757506001016118c7565b513d6000823e3d90fd5b60046040517fff633a38000000000000000000000000000000000000000000000000000000008152fd5b60046040517f5fc483c5000000000000000000000000000000000000000000000000000000008152fd5b916044602092600092604051917fa9059cbb0000000000000000000000000000000000000000000000000000000083526004830152602482015282855af19081611a3c575b5015611a1257565b60046040517ffb7f5079000000000000000000000000000000000000000000000000000000008152fd5b90503d15611a575750600160005114601f3d11165b38611a0a565b3b1515611a51565b90611a6a8183611b22565b15611a73575050565b6020600060446040517f095ea7b300000000000000000000000000000000000000000000000000000000815284600482015282602482015282865af180611b02575b15918215611af0575b5050611ac657565b60046040517f19be9a90000000000000000000000000000000000000000000000000000000008152fd5b611afa9250611b22565b153880611abe565b503d15611b1957600160005114601f3d1116611ab5565b813b1515611ab5565b919060006044602092604051907f095ea7b300000000000000000000000000000000000000000000000000000000825260048201527fffffffffffffffffffffffffffffffffffffffffffffffffffffffffffffffff602482015282865af19182611b8a5750565b9091503d15611ba25750600160005114601f3d111690565b3b15159056fea2646970667358221220b79a501575bec93e090a424375e4918d288f0f0ee26dd65b9037d437efe4f2f364736f6c63430008170033",
  "devdoc": {
    "kind": "dev",
    "methods": {
      "isValidSignature(bytes32,bytes)": {
        "details": "Should return whether the signature provided is valid for the provided data",
        "params": {
          "hash": "Hash of the data to be signed",
          "signature": "Signature byte array associated with _data"
        }
      }
    },
    "version": 1
  },
  "userdoc": {
    "kind": "user",
    "methods": {
      "approve(address,address)": {
        "notice": "See {IBalanceManager-approve}."
      },
      "arbitraryCalls(address[],bytes[])": {
        "notice": "See {IBalanceManager-arbitraryCalls}."
      },
      "arbitraryCalls(address[],bytes[],uint256[])": {
        "notice": "See {IBalanceManager-arbitraryCalls}."
      },
      "arbitraryCallsWithEthCheck(address[],bytes[],uint256)": {
        "notice": "See {IBalanceManager-arbitraryCallsWithEthCheck}."
      },
      "arbitraryCallsWithEthCheck(address[],bytes[],uint256[],uint256)": {
        "notice": "See {IBalanceManager-arbitraryCallsWithEthCheck}."
      },
      "arbitraryCallsWithTokenCheck(address[],bytes[],address,uint256)": {
        "notice": "See {IBalanceManager-arbitraryCallsWithTokenCheck}."
      },
      "arbitraryCallsWithTokenCheck(address[],bytes[],uint256[],address,uint256)": {
        "notice": "See {IBalanceManager-arbitraryCallsWithTokenCheck}."
      },
      "batchApprove(bytes)": {
        "notice": "See {IBalanceManager-batchApprove}."
      },
      "batchTransfer(bytes)": {
        "notice": "See {IBalanceManager-batchTransfer}."
      },
      "estimateArbitraryCalls(address[],bytes[])": {
        "notice": "See {IBalanceManager-estimateArbitraryCalls}."
      },
      "estimateArbitraryCalls(address[],bytes[],uint256[])": {
        "notice": "See {IBalanceManager-estimateArbitraryCalls}."
      },
      "rescueEther()": {
        "notice": "See {IBalanceManager-rescueEther}."
      },
      "transfer(address,address,uint256)": {
        "notice": "See {IBalanceManager-transfer}."
      },
      "unwrapTo(address,uint256)": {
        "notice": "See {IBalanceManager-unwrapTo}."
      }
    },
    "version": 1
  },
  "storageLayout": {
    "storage": [],
    "types": null
  }
}