{
  "address": "0x138CE40d675F9a23E4D6127A8600308Cf7A93381",
  "abi": [
    {
      "inputs": [
        {
          "internalType": "address",
          "name": "owner_",
          "type": "address"
        }
      ],
      "stateMutability": "nonpayable",
      "type": "constructor"
    },
    {
      "anonymous": false,
      "inputs": [
        {
          "indexed": false,
          "internalType": "bool",
          "name": "success",
          "type": "bool"
        },
        {
          "indexed": false,
          "internalType": "address",
          "name": "to",
          "type": "address"
        },
        {
          "indexed": false,
          "internalType": "bytes",
          "name": "result",
          "type": "bytes"
        }
      ],
      "name": "Action",
      "type": "event"
    },
    {
      "anonymous": false,
      "inputs": [
        {
          "indexed": true,
          "internalType": "address",
          "name": "previousOwner",
          "type": "address"
        },
        {
          "indexed": true,
          "internalType": "address",
          "name": "newOwner",
          "type": "address"
        }
      ],
      "name": "OwnershipTransferred",
      "type": "event"
    },
    {
      "inputs": [
        {
          "components": [
            {
              "internalType": "address",
              "name": "to",
              "type": "address"
            },
            {
              "internalType": "uint256",
              "name": "value",
              "type": "uint256"
            },
            {
              "internalType": "bytes",
              "name": "data",
              "type": "bytes"
            }
          ],
          "internalType": "struct LeftoverExchanger.Call[]",
          "name": "calls",
          "type": "tuple[]"
        }
      ],
      "name": "makeCalls",
      "outputs": [],
      "stateMutability": "payable",
      "type": "function"
    },
    {
      "inputs": [
        {
          "components": [
            {
              "internalType": "address",
              "name": "to",
              "type": "address"
            },
            {
              "internalType": "uint256",
              "name": "value",
              "type": "uint256"
            },
            {
              "internalType": "bytes",
              "name": "data",
              "type": "bytes"
            }
          ],
          "internalType": "struct LeftoverExchanger.Call[]",
          "name": "calls",
          "type": "tuple[]"
        }
      ],
      "name": "makeCallsNoThrow",
      "outputs": [],
      "stateMutability": "payable",
      "type": "function"
    },
    {
      "inputs": [],
      "name": "owner",
      "outputs": [
        {
          "internalType": "address",
          "name": "",
          "type": "address"
        }
      ],
      "stateMutability": "view",
      "type": "function"
    },
    {
      "inputs": [],
      "name": "renounceOwnership",
      "outputs": [],
      "stateMutability": "nonpayable",
      "type": "function"
    },
    {
      "inputs": [
        {
          "internalType": "address",
          "name": "newOwner",
          "type": "address"
        }
      ],
      "name": "transferOwnership",
      "outputs": [],
      "stateMutability": "nonpayable",
      "type": "function"
    },
    {
      "stateMutability": "payable",
      "type": "receive"
    }
  ],
  "transactionHash": "0x8d8eeb753afe97331fddce83b12f279fb648e646402de744d8e79b47e63d94ef",
  "args": [
    "0xa3bf91a131fccfecc43999c9ff4612a25a572859"
  ],
  "numDeployments": 1,
  "solcInputHash": "cbcbd6ca82825d0ecb55b5e8df7883aa",
  "bytecode": "0x608060405234801561001057600080fd5b50604051610d15380380610d1583398101604081905261002f91610167565b61003833610047565b61004181610097565b50610197565b600080546001600160a01b038381166001600160a01b0319831681178455604051919092169283917f8be0079c531659141344cd1fd0a4f28419497f9722a3daafe3b4186f6b6457e09190a35050565b6000546001600160a01b031633146100f65760405162461bcd60e51b815260206004820181905260248201527f4f776e61626c653a2063616c6c6572206973206e6f7420746865206f776e657260448201526064015b60405180910390fd5b6001600160a01b03811661015b5760405162461bcd60e51b815260206004820152602660248201527f4f776e61626c653a206e6577206f776e657220697320746865207a65726f206160448201526564647265737360d01b60648201526084016100ed565b61016481610047565b50565b60006020828403121561017957600080fd5b81516001600160a01b038116811461019057600080fd5b9392505050565b610b6f806101a66000396000f3fe60806040526004361061005e5760003560e01c8063785620281161004357806378562028146101005780638da5cb5b14610113578063f2fde38b1461014c57600080fd5b8063473aaada146100d8578063715018a6146100eb57600080fd5b366100d3573233036100d1576040517f08c379a000000000000000000000000000000000000000000000000000000000815260206004820152601460248201527f455448206465706f7369742072656a656374656400000000000000000000000060448201526064015b60405180910390fd5b005b600080fd5b6100d16100e6366004610831565b61016c565b3480156100f757600080fd5b506100d16103fc565b6100d161010e366004610831565b610489565b34801561011f57600080fd5b506000546040805173ffffffffffffffffffffffffffffffffffffffff9092168252519081900360200190f35b34801561015857600080fd5b506100d16101673660046108a6565b61068c565b60005473ffffffffffffffffffffffffffffffffffffffff1633146101ed576040517f08c379a000000000000000000000000000000000000000000000000000000000815260206004820181905260248201527f4f776e61626c653a2063616c6c6572206973206e6f7420746865206f776e657260448201526064016100c8565b60005a905060005b8281101561037857600080858584818110610212576102126108e3565b90506020028101906102249190610912565b6102329060208101906108a6565b73ffffffffffffffffffffffffffffffffffffffff1686868581811061025a5761025a6108e3565b905060200281019061026c9190610912565b60200135878786818110610282576102826108e3565b90506020028101906102949190610912565b6102a2906040810190610950565b6040516102b09291906109bc565b60006040518083038185875af1925050503d80600081146102ed576040519150601f19603f3d011682016040523d82523d6000602084013e6102f2565b606091505b50915091507f15ea97c5f34d18535b75336d587619fcbbcc608d697fbf77bd007514f9bccec38287878681811061032b5761032b6108e3565b905060200281019061033d9190610912565b61034b9060208101906108a6565b8360405161035b939291906109cc565b60405180910390a15050808061037090610a95565b9150506101f5565b5060003a610387366007610acd565b5a6103929085610b0a565b61039e90615208610b21565b6103a89190610b21565b6103b4906107d0610b21565b6103be9190610acd565b90508047106103f657604051329082156108fc029083906000818181858888f193505050501580156103f4573d6000803e3d6000fd5b505b50505050565b60005473ffffffffffffffffffffffffffffffffffffffff16331461047d576040517f08c379a000000000000000000000000000000000000000000000000000000000815260206004820181905260248201527f4f776e61626c653a2063616c6c6572206973206e6f7420746865206f776e657260448201526064016100c8565b61048760006107bc565b565b60005473ffffffffffffffffffffffffffffffffffffffff16331461050a576040517f08c379a000000000000000000000000000000000000000000000000000000000815260206004820181905260248201527f4f776e61626c653a2063616c6c6572206973206e6f7420746865206f776e657260448201526064016100c8565b60005b81811015610687576000838383818110610529576105296108e3565b905060200281019061053b9190610912565b6105499060208101906108a6565b73ffffffffffffffffffffffffffffffffffffffff16848484818110610571576105716108e3565b90506020028101906105839190610912565b60200135858585818110610599576105996108e3565b90506020028101906105ab9190610912565b6105b9906040810190610950565b6040516105c79291906109bc565b60006040518083038185875af1925050503d8060008114610604576040519150601f19603f3d011682016040523d82523d6000602084013e610609565b606091505b5050905080610674576040517f08c379a000000000000000000000000000000000000000000000000000000000815260206004820152600b60248201527f73776170206661696c656400000000000000000000000000000000000000000060448201526064016100c8565b508061067f81610a95565b91505061050d565b505050565b60005473ffffffffffffffffffffffffffffffffffffffff16331461070d576040517f08c379a000000000000000000000000000000000000000000000000000000000815260206004820181905260248201527f4f776e61626c653a2063616c6c6572206973206e6f7420746865206f776e657260448201526064016100c8565b73ffffffffffffffffffffffffffffffffffffffff81166107b0576040517f08c379a000000000000000000000000000000000000000000000000000000000815260206004820152602660248201527f4f776e61626c653a206e6577206f776e657220697320746865207a65726f206160448201527f646472657373000000000000000000000000000000000000000000000000000060648201526084016100c8565b6107b9816107bc565b50565b6000805473ffffffffffffffffffffffffffffffffffffffff8381167fffffffffffffffffffffffff0000000000000000000000000000000000000000831681178455604051919092169283917f8be0079c531659141344cd1fd0a4f28419497f9722a3daafe3b4186f6b6457e09190a35050565b6000806020838503121561084457600080fd5b823567ffffffffffffffff8082111561085c57600080fd5b818501915085601f83011261087057600080fd5b81358181111561087f57600080fd5b8660208260051b850101111561089457600080fd5b60209290920196919550909350505050565b6000602082840312156108b857600080fd5b813573ffffffffffffffffffffffffffffffffffffffff811681146108dc57600080fd5b9392505050565b7f4e487b7100000000000000000000000000000000000000000000000000000000600052603260045260246000fd5b600082357fffffffffffffffffffffffffffffffffffffffffffffffffffffffffffffffa183360301811261094657600080fd5b9190910192915050565b60008083357fffffffffffffffffffffffffffffffffffffffffffffffffffffffffffffffe184360301811261098557600080fd5b83018035915067ffffffffffffffff8211156109a057600080fd5b6020019150368190038213156109b557600080fd5b9250929050565b8183823760009101908152919050565b83151581526000602073ffffffffffffffffffffffffffffffffffffffff85168184015260606040840152835180606085015260005b81811015610a1e57858101830151858201608001528201610a02565b81811115610a30576000608083870101525b50601f017fffffffffffffffffffffffffffffffffffffffffffffffffffffffffffffffe0169290920160800195945050505050565b7f4e487b7100000000000000000000000000000000000000000000000000000000600052601160045260246000fd5b60007fffffffffffffffffffffffffffffffffffffffffffffffffffffffffffffffff8203610ac657610ac6610a66565b5060010190565b6000817fffffffffffffffffffffffffffffffffffffffffffffffffffffffffffffffff0483118215151615610b0557610b05610a66565b500290565b600082821015610b1c57610b1c610a66565b500390565b60008219821115610b3457610b34610a66565b50019056fea2646970667358221220764bde2d3322e5555cd707631e5edffa923423b6abb160455529d914ee3211f364736f6c634300080d0033",
  "devdoc": {
    "kind": "dev",
    "methods": {
      "owner()": {
        "details": "Returns the address of the current owner."
      },
      "renounceOwnership()": {
        "details": "Leaves the contract without owner. It will not be possible to call `onlyOwner` functions anymore. Can only be called by the current owner. NOTE: Renouncing ownership will leave the contract without an owner, thereby removing any functionality that is only available to the owner."
      },
      "transferOwnership(address)": {
        "details": "Transfers ownership of the contract to a new account (`newOwner`). Can only be called by the current owner."
      }
    },
    "version": 1
  },
  "userdoc": {
    "kind": "user",
    "methods": {},
    "version": 1
  },
  "storageLayout": {
    "storage": [
      {
        "astId": 7,
        "contract": "contracts/LeftoverExchanger.sol:LeftoverExchanger",
        "label": "_owner",
        "offset": 0,
        "slot": "0",
        "type": "t_address"
      }
    ],
    "types": {
      "t_address": {
        "encoding": "inplace",
        "label": "address",
        "numberOfBytes": "20"
      }
    }
  }
}