{
  "address": "0xfb45FCb8428ea6487b2c5f1474D82C32c65a3e31",
  "abi": [
    {
      "inputs": [
        {
          "internalType": "contract IJoePair",
          "name": "pair",
          "type": "address"
        },
        {
          "internalType": "uint24",
          "name": "startBin",
          "type": "uint24"
        },
        {
          "internalType": "uint24",
          "name": "endBin",
          "type": "uint24"
        },
        {
          "internalType": "bool",
          "name": "swapY",
          "type": "bool"
        }
      ],
      "name": "getBins",
      "outputs": [
        {
          "components": [
            {
              "internalType": "uint256",
              "name": "id",
              "type": "uint256"
            },
            {
              "internalType": "uint256",
              "name": "reserveX",
              "type": "uint256"
            },
            {
              "internalType": "uint256",
              "name": "reserveY",
              "type": "uint256"
            }
          ],
          "internalType": "struct TraderJoeHelper.BinData[]",
          "name": "data",
          "type": "tuple[]"
        }
      ],
      "stateMutability": "view",
      "type": "function"
    }
  ],
  "transactionHash": "0x6317a33d1880f7fcfb0aa03b8c5bf3641f6b35bfc29eddaa4a6a70f17f514533",
  "args": [],
  "numDeployments": 1,
  "solcInputHash": "aab721f0d76949a104cfd758c533d71d",
  "bytecode": "0x608060405234801561001057600080fd5b50610551806100206000396000f3fe608060405234801561001057600080fd5b506004361061002b5760003560e01c80636590231214610030575b600080fd5b61004361003e366004610357565b610059565b60405161005091906103d1565b60405180910390f35b6060600080610068868661042a565b62ffffff1690508067ffffffffffffffff81111561008857610088610475565b6040519080825280602002602001820160405280156100dd57816020015b6100ca60405180606001604052806000815260200160008152602001600081525090565b8152602001906001900390816100a65790505b506040517f8f919a8300000000000000000000000000000000000000000000000000000000815262ffffff88166004820152851515602482015290935060009073ffffffffffffffffffffffffffffffffffffffff891690638f919a8390604401602060405180830381865afa15801561015b573d6000803e3d6000fd5b505050506040513d601f19601f8201168201806040525081019061017f91906104a4565b90505b8562ffffff168162ffffff161015610337576040517f0abe968800000000000000000000000000000000000000000000000000000000815262ffffff8216600482015273ffffffffffffffffffffffffffffffffffffffff891690630abe9688906024016040805180830381865afa158015610202573d6000803e3d6000fd5b505050506040513d601f19601f8201168201806040525081019061022691906104c8565b858581518110610238576102386104ec565b6020026020010151602001868681518110610255576102556104ec565b6020026020010151604001828152508281525050508062ffffff16848481518110610282576102826104ec565b6020908102919091010151526040517f8f919a8300000000000000000000000000000000000000000000000000000000815262ffffff8216600482015285151560248201526001939093019273ffffffffffffffffffffffffffffffffffffffff891690638f919a8390604401602060405180830381865afa15801561030c573d6000803e3d6000fd5b505050506040513d601f19601f8201168201806040525081019061033091906104a4565b9050610182565b50508152949350505050565b62ffffff8116811461035457600080fd5b50565b6000806000806080858703121561036d57600080fd5b843573ffffffffffffffffffffffffffffffffffffffff8116811461039157600080fd5b935060208501356103a181610343565b925060408501356103b181610343565b9150606085013580151581146103c657600080fd5b939692955090935050565b602080825282518282018190526000919060409081850190868401855b8281101561041d57815180518552868101518786015285015185850152606090930192908501906001016103ee565b5091979650505050505050565b600062ffffff8381169083168181101561046d577f4e487b7100000000000000000000000000000000000000000000000000000000600052601160045260246000fd5b039392505050565b7f4e487b7100000000000000000000000000000000000000000000000000000000600052604160045260246000fd5b6000602082840312156104b657600080fd5b81516104c181610343565b9392505050565b600080604083850312156104db57600080fd5b505080516020909101519092909150565b7f4e487b7100000000000000000000000000000000000000000000000000000000600052603260045260246000fdfea264697066735822122050257b822d5a85460f542b671135173eb3ba18e472172804bf576d4af941265764736f6c634300080f0033",
  "devdoc": {
    "kind": "dev",
    "methods": {},
    "version": 1
  },
  "userdoc": {
    "kind": "user",
    "methods": {},
    "version": 1
  },
  "storageLayout": {
    "storage": [],
    "types": null
  }
}