{
  "address": "0xb52C1ce530ad6F651bc01C234f11F91517970aC9",
  "abi": [
    {
      "inputs": [
        {
          "internalType": "address",
          "name": "pool",
          "type": "address"
        }
      ],
      "name": "get",
      "outputs": [
        {
          "internalType": "bytes",
          "name": "res",
          "type": "bytes"
        }
      ],
      "stateMutability": "view",
      "type": "function"
    }
  ],
  "transactionHash": "0xd35dd1dd23342c86669cc46a4f5157a6adbbf51536f71454863458ac6f8ba014",
  "args": [],
  "numDeployments": 1,
  "solcInputHash": "9a9d44857e0eedeb260db4e985dcbfcb",
  "bytecode": "0x6080806040523461001657610354908161001c8239f35b600080fdfe60806040908082526004908136101561001757600080fd5b600091823560e01c63c2bc2efc1461002e57600080fd5b346102b557602091827ffffffffffffffffffffffffffffffffffffffffffffffffffffffffffffffffc3601126102b15781359373ffffffffffffffffffffffffffffffffffffffff851685036102ae575060e07f8f8654c5ca72a821aaa615fc86fc88d377c34594fee3f7f92eb858e700000000825283818484885afa156102ab5751609c5260249280610100856098885afa156102a657608491610120828186868a5afa156102a15751956101408381876088855afa1561029c5751948361016082608c855afa156102985783610180826090855afa1561029457836101a0826094855afa1561029057506101c0965b85811261015d57887fffffffffffffffffffffffffffffffffffffffffffffffffffffffffffffff20890160c0525180610159816102b9565b0390f35b8388017f3fffffffffffffffffffffffffffffffffffffffffffffffffffffffffffffff82167febcb006700000000000000000000000000000000000000000000000000000000855282875285828a87875afa15610260578151610264575b7f31f7e30600000000000000000000000000000000000000000000000000000000855282875285828a87875afa1561026057858251610234575b507fc0000000000000000000000000000000000000000000000000000000000000008116610229575b5050600101610120565b90985260013861021f565b7f40000000000000000000000000000000000000000000000000000000000000009192019117856101f6565b8885fd5b898b0191507f8000000000000000000000000000000000000000000000000000000000000000176101bc565b6094fd5b6090fd5b608cfd5b856088fd5b505050fd5b836098fd5b50fd5b80fd5b8380fd5b8280fd5b9060209182815260c05192838183015260005b84811061030b5750507fffffffffffffffffffffffffffffffffffffffffffffffffffffffffffffffe0601f8460006040809697860101520116010190565b60e08101518382016040015281016102cc56fea2646970667358221220722fb875ec8596ec5b45c5f38317b998c68377120030f3ca2457ce30c2b8da8a64736f6c63430008130033",
  "devdoc": {
    "kind": "dev",
    "methods": {},
    "version": 1
  },
  "userdoc": {
    "kind": "user",
    "methods": {},
    "version": 1
  },
  "storageLayout": {
    "storage": [],
    "types": null
  }
}