{
  "address": "0xDc49A6e76f017175bA46e5038A4DF6606d961FF3",
  "abi": [
    {
      "inputs": [
        {
          "internalType": "contract IKyber",
          "name": "pool",
          "type": "address"
        },
        {
          "internalType": "uint256",
          "name": "maxTickNum",
          "type": "uint256"
        }
      ],
      "name": "getTicks",
      "outputs": [
        {
          "internalType": "bytes[]",
          "name": "ticks",
          "type": "bytes[]"
        }
      ],
      "stateMutability": "view",
      "type": "function"
    }
  ],
  "transactionHash": "0x8f72799a8d37f7f7f5ef5fd5752c6dea9408da8e82ce82bcbf74467704b28da4",
  "args": [],
  "numDeployments": 1,
  "solcInputHash": "e02235c3b1b7c2897bad8bd80c4e15b1",
  "bytecode": "0x6080806040523461001657610864908161001c8239f35b600080fdfe608080604052600436101561001357600080fd5b60003560e01c638d8fdc041461002857600080fd5b3461045e5760407ffffffffffffffffffffffffffffffffffffffffffffffffffffffffffffffffc36011261045e576004359073ffffffffffffffffffffffffffffffffffffffff808316830361045e577f217ac2370000000000000000000000000000000000000000000000000000000082526080826004818487165afa91821561046b576000926106b3575b506100c2602435610765565b6100cf6040519182610716565b60243581526100df602435610765565b927fffffffffffffffffffffffffffffffffffffffffffffffffffffffffffffffe0602083019401368537600193825115610654578160020b9052604051907fc0ac75cf0000000000000000000000000000000000000000000000000000000082528060020b6004830152604082602481878a165afa90811561046b5760009260009261068f575b50829180938260020b8160020b141580610683575b610636575b5060020b9060020b8114158061062d575b610610575b505b8160020b1580158091610604575b1561054e578160020b610556575b602435861461054e57610488575b60243585036101995750505b6101d883610765565b936101e66040519586610716565b8385527fffffffffffffffffffffffffffffffffffffffffffffffffffffffffffffffe061021385610765565b0160005b81811061047757505060005b8481106102f9578560405160208101916020825280518093526040820192602060408260051b8501019201906000945b8186106102605784840385f35b9091927fffffffffffffffffffffffffffffffffffffffffffffffffffffffffffffffc0858203018252835180519081835260005b8281106102e4575050602080837fffffffffffffffffffffffffffffffffffffffffffffffffffffffffffffffe0601f85600085809860019a0101520116010195019201950194919091610253565b80602080928401015182828701015201610295565b610303818461077d565b5160020b90604051917ff30dba9300000000000000000000000000000000000000000000000000000000835260048301526080826024818887165afa801561046b5760009260009161040d575b5061035b828661077d565b51907fffffffffffffffffffffffffffffffff000000000000000000000000000000006040519460801b16602085015260801b603084015260e81b604083015260238252606082019180831067ffffffffffffffff8411176103de576103d9926040526103c8828961077d565b526103d3818861077d565b506107b5565b610223565b7f4e487b7100000000000000000000000000000000000000000000000000000000600052604160045260246000fd5b9250506080823d608011610463575b8161042960809383610716565b8101031261045e5761043a82610811565b60208301519283600f0b840361045e5760606104569101610811565b509138610350565b600080fd5b3d915061041c565b6040513d6000823e3d90fd5b806060602080938a01015201610217565b9390604051907fc0ac75cf0000000000000000000000000000000000000000000000000000000082528060020b6004830152604082602481888b165afa91821561046b5760009261051b575b508160020b809160020b141580610512575b156105075790610501916104fa848661077d565b52916107b5565b936101c3565b5050926000906101c3565b508015156104e6565b61053e91925060403d604011610547575b6105368183610716565b810190610791565b905090386104d4565b503d61052c565b5050506101cf565b9490604051907fc0ac75cf0000000000000000000000000000000000000000000000000000000082528060020b6004830152604082602481898c165afa91821561046b576000926105e2575b508160020b809160020b1415806105d9575b156105ce57906105c8916104fa848761077d565b946101b5565b5050936000906101b5565b508015156105b4565b6105fc91925060403d604011610547576105368183610716565b5090386105a2565b508160020b15156101a7565b946106269195610620828661077d565b526107b5565b9338610197565b50801515610192565b9096508451600110156106545760020b604085015260029538610181565b7f4e487b7100000000000000000000000000000000000000000000000000000000600052603260045260246000fd5b508060020b151561017c565b9092506106ab915060403d604011610547576105368183610716565b909138610167565b9091506080813d60801161070e575b816106cf60809383610716565b8101031261045e5780518281160361045e576106ed60208201610757565b5060606106fc60408301610757565b9101518015150361045e5790386100b6565b3d91506106c2565b90601f7fffffffffffffffffffffffffffffffffffffffffffffffffffffffffffffffe0910116810190811067ffffffffffffffff8211176103de57604052565b51908160020b820361045e57565b67ffffffffffffffff81116103de5760051b60200190565b80518210156106545760209160051b010190565b919082604091031261045e576107b260206107ab84610757565b9301610757565b90565b7fffffffffffffffffffffffffffffffffffffffffffffffffffffffffffffffff81146107e25760010190565b7f4e487b7100000000000000000000000000000000000000000000000000000000600052601160045260246000fd5b51906fffffffffffffffffffffffffffffffff8216820361045e5756fea2646970667358221220313935c8e94c7f8aba37230eef6291a87dd7211982f413af897a012c5578da1064736f6c63430008130033",
  "devdoc": {
    "kind": "dev",
    "methods": {},
    "version": 1
  },
  "userdoc": {
    "kind": "user",
    "methods": {},
    "version": 1
  },
  "storageLayout": {
    "storage": [],
    "types": null
  }
}