{
  "address": "0x18763F195F35078cC662b2c26B97bb1a015fc778",
  "abi": [
    {
      "inputs": [
        {
          "internalType": "address",
          "name": "owner",
          "type": "address"
        }
      ],
      "stateMutability": "nonpayable",
      "type": "constructor"
    },
    {
      "inputs": [
        {
          "internalType": "uint256",
          "name": "i",
          "type": "uint256"
        },
        {
          "internalType": "bytes",
          "name": "result",
          "type": "bytes"
        }
      ],
      "name": "CallFailed",
      "type": "error"
    },
    {
      "inputs": [
        {
          "internalType": "bool[]",
          "name": "statuses",
          "type": "bool[]"
        },
        {
          "internalType": "bytes[]",
          "name": "results",
          "type": "bytes[]"
        }
      ],
      "name": "EstimationResults",
      "type": "error"
    },
    {
      "inputs": [],
      "name": "ForceApproveFailed",
      "type": "error"
    },
    {
      "inputs": [],
      "name": "InvalidLength",
      "type": "error"
    },
    {
      "inputs": [],
      "name": "NotEnoughProfit",
      "type": "error"
    },
    {
      "inputs": [
        {
          "internalType": "address",
          "name": "owner",
          "type": "address"
        }
      ],
      "name": "OnlyOwner",
      "type": "error"
    },
    {
      "inputs": [],
      "name": "SafeTransferFailed",
      "type": "error"
    },
    {
      "anonymous": false,
      "inputs": [
        {
          "indexed": false,
          "internalType": "uint256",
          "name": "i",
          "type": "uint256"
        },
        {
          "indexed": false,
          "internalType": "bytes",
          "name": "result",
          "type": "bytes"
        }
      ],
      "name": "CallFailure",
      "type": "event"
    },
    {
      "inputs": [
        {
          "internalType": "contract IERC20",
          "name": "token",
          "type": "address"
        },
        {
          "internalType": "address",
          "name": "to",
          "type": "address"
        }
      ],
      "name": "approve",
      "outputs": [],
      "stateMutability": "nonpayable",
      "type": "function"
    },
    {
      "inputs": [
        {
          "internalType": "bytes",
          "name": "data",
          "type": "bytes"
        }
      ],
      "name": "batchApprove",
      "outputs": [],
      "stateMutability": "nonpayable",
      "type": "function"
    },
    {
      "inputs": [
        {
          "internalType": "bytes",
          "name": "data",
          "type": "bytes"
        }
      ],
      "name": "batchTransfer",
      "outputs": [],
      "stateMutability": "nonpayable",
      "type": "function"
    },
    {
      "inputs": [
        {
          "components": [
            {
              "internalType": "address",
              "name": "to",
              "type": "address"
            },
            {
              "internalType": "uint256",
              "name": "value",
              "type": "uint256"
            },
            {
              "internalType": "bytes",
              "name": "data",
              "type": "bytes"
            }
          ],
          "internalType": "struct LeftoverExchanger.Call[]",
          "name": "calls",
          "type": "tuple[]"
        }
      ],
      "name": "estimateMakeCalls",
      "outputs": [],
      "stateMutability": "payable",
      "type": "function"
    },
    {
      "inputs": [
        {
          "internalType": "bytes32",
          "name": "hash",
          "type": "bytes32"
        },
        {
          "internalType": "bytes",
          "name": "signature",
          "type": "bytes"
        }
      ],
      "name": "isValidSignature",
      "outputs": [
        {
          "internalType": "bytes4",
          "name": "magicValue",
          "type": "bytes4"
        }
      ],
      "stateMutability": "view",
      "type": "function"
    },
    {
      "inputs": [
        {
          "components": [
            {
              "internalType": "address",
              "name": "to",
              "type": "address"
            },
            {
              "internalType": "uint256",
              "name": "value",
              "type": "uint256"
            },
            {
              "internalType": "bytes",
              "name": "data",
              "type": "bytes"
            }
          ],
          "internalType": "struct LeftoverExchanger.Call[]",
          "name": "calls",
          "type": "tuple[]"
        }
      ],
      "name": "makeCalls",
      "outputs": [],
      "stateMutability": "payable",
      "type": "function"
    },
    {
      "inputs": [
        {
          "components": [
            {
              "internalType": "address",
              "name": "to",
              "type": "address"
            },
            {
              "internalType": "uint256",
              "name": "value",
              "type": "uint256"
            },
            {
              "internalType": "bytes",
              "name": "data",
              "type": "bytes"
            }
          ],
          "internalType": "struct LeftoverExchanger.Call[]",
          "name": "calls",
          "type": "tuple[]"
        }
      ],
      "name": "makeCallsNoThrow",
      "outputs": [],
      "stateMutability": "payable",
      "type": "function"
    },
    {
      "inputs": [
        {
          "components": [
            {
              "internalType": "address",
              "name": "to",
              "type": "address"
            },
            {
              "internalType": "uint256",
              "name": "value",
              "type": "uint256"
            },
            {
              "internalType": "bytes",
              "name": "data",
              "type": "bytes"
            }
          ],
          "internalType": "struct LeftoverExchanger.Call[]",
          "name": "calls",
          "type": "tuple[]"
        },
        {
          "internalType": "uint256",
          "name": "minReturn",
          "type": "uint256"
        }
      ],
      "name": "makeCallsWithEthCheck",
      "outputs": [],
      "stateMutability": "payable",
      "type": "function"
    },
    {
      "inputs": [
        {
          "internalType": "contract IERC20",
          "name": "token",
          "type": "address"
        },
        {
          "internalType": "address",
          "name": "to",
          "type": "address"
        },
        {
          "internalType": "uint256",
          "name": "amount",
          "type": "uint256"
        }
      ],
      "name": "transfer",
      "outputs": [],
      "stateMutability": "nonpayable",
      "type": "function"
    },
    {
      "stateMutability": "payable",
      "type": "receive"
    }
  ],
  "transactionHash": "0xf92fc1212e883cf10979a3fe9d89e4acf3fe2d6a85915ca5b51d629104214806",
  "args": [
    "0xa3bf91a131fccfecc43999c9ff4612a25a572859"
  ],
  "numDeployments": 1,
  "solcInputHash": "38d37a141f4dafacb25014c6328a469e",
  "bytecode": "0x60a0346100a157601f6112e338819003918201601f19168301916001600160401b038311848410176100a5578084926020946040528339810103126100a157516001600160a01b03811681036100a15760805260405161122990816100ba823960805181818160e9015281816101b701528181610425015281816104b9015281816106230152818161078f0152818161093101528181610a680152610bed0152f35b5f80fd5b634e487b7160e01b5f52604160045260245ffdfe608060409080825260049081361015610022575b5050503615610020575f80fd5b005b5f3560e01c90816310a890af14610b83575080631626ba7e146109d8578063343590a4146108cb57806336669a3214610729578063473aaada146105be57806378562028146104565780637e5465ba146103ce578063ba80b51e146101505763beabacc8146100915780610013565b3461014c5760607ffffffffffffffffffffffffffffffffffffffffffffffffffffffffffffffffc36011261014c576100c8610d43565b906100d1610d66565b9073ffffffffffffffffffffffffffffffffffffffff7f00000000000000000000000000000000000000000000000000000000000000001680330361011d576100206044358486611016565b602492508451917f0a86c02a000000000000000000000000000000000000000000000000000000008352820152fd5b5f80fd5b509060207ffffffffffffffffffffffffffffffffffffffffffffffffffffffffffffffffc90808236011261014c57833567ffffffffffffffff811161014c5761019d9036908601610d12565b91909273ffffffffffffffffffffffffffffffffffffffff7f00000000000000000000000000000000000000000000000000000000000000001680330361039f57506101f26101ed849794610fea565b610ec4565b928684526101ff87610fea565b93838101977fffffffffffffffffffffffffffffffffffffffffffffffffffffffffffffffe0809601368a376102376101ed82610fea565b968188528661024583610fea565b015f5b8181106103905750505f5b828110610313575050508651967f9cb0e09d0000000000000000000000000000000000000000000000000000000088526044880192880152518091526064860196905f5b8181106102fd5750505084860301602485015282519081865280860181808460051b8901019501935f975b8489106102cf5787870388fd5b90919293949584806102eb838686600196030188528a51610f8e565b980194019801979190949392946102c2565b8251151589529784019791840191600101610297565b805f8061032e6103299b9e9b6001958888610de5565b610e52565b8d8b61033b868a8a610de5565b013561035461034b878b8b610de5565b83810190610e73565b8093519384928337810185815203925af161036d610f35565b610377838d611002565b526103828287611002565b901515905201999699610253565b60608a82018901528701610248565b866024918751917f0a86c02a000000000000000000000000000000000000000000000000000000008352820152fd5b503461014c57817ffffffffffffffffffffffffffffffffffffffffffffffffffffffffffffffffc36011261014c57610405610d43565b61040d610d66565b9173ffffffffffffffffffffffffffffffffffffffff7f00000000000000000000000000000000000000000000000000000000000000001680330361011d5761002084846110ae565b5060209160207ffffffffffffffffffffffffffffffffffffffffffffffffffffffffffffffffc36011261014c57813567ffffffffffffffff811161014c576104a29036908401610d12565b73ffffffffffffffffffffffffffffffffffffffff7f00000000000000000000000000000000000000000000000000000000000000001680330361058f57505f5b8181106104ec57005b5f806104fc610329848688610de5565b88610508858789610de5565b013561052161051886888a610de5565b89810190610e73565b9190828a519384928337810185815203925af161053c610f35565b901561054b57506001016104e3565b61058b86918680519485947f5c0dee5d00000000000000000000000000000000000000000000000000000000865285015260248401526044830190610f8e565b0390fd5b846024918551917f0a86c02a000000000000000000000000000000000000000000000000000000008352820152fd5b50906020807ffffffffffffffffffffffffffffffffffffffffffffffffffffffffffffffffc36011261014c57823567ffffffffffffffff811161014c576106099036908501610d12565b92909373ffffffffffffffffffffffffffffffffffffffff7f0000000000000000000000000000000000000000000000000000000000000000168033036106fc5750505f5b83811061065757005b805f8061066a610329600195898b610de5565b86610676858a8c610de5565b013561068f610686868b8d610de5565b88810190610e73565b91908289519384928337810185815203925af16106aa610f35565b90156106b8575b500161064e565b6106f37f446c70d2c3a7ef80e3641bc32468f1f1432635c1425f71d0033aaa78a59cea67918551918291858352878984015287830190610f8e565b0390a15f6106b1565b60249251917f0a86c02a000000000000000000000000000000000000000000000000000000008352820152fd5b5090807ffffffffffffffffffffffffffffffffffffffffffffffffffffffffffffffffc36011261014c57813567ffffffffffffffff811161014c576107729036908401610d12565b90602433319273ffffffffffffffffffffffffffffffffffffffff7f00000000000000000000000000000000000000000000000000000000000000001680330361039f57505f5b81811061082c5750505050333190810390811161080057602435116107da57005b517f3b5c3088000000000000000000000000000000000000000000000000000000008152fd5b6011837f4e487b71000000000000000000000000000000000000000000000000000000005f525260245ffd5b5f8061083c610329848689610de5565b602061084985878a610de5565b013561086261085986888b610de5565b8b810190610e73565b9190828c519384928337810185815203925af161087d610f35565b901561088c57506001016107b9565b61058b8891888681519586957f5c0dee5d0000000000000000000000000000000000000000000000000000000087528601528401526044830190610f8e565b503461014c5760207ffffffffffffffffffffffffffffffffffffffffffffffffffffffffffffffffc36011261014c57803567ffffffffffffffff811161014c576109199036908301610ce4565b9173ffffffffffffffffffffffffffffffffffffffff7f00000000000000000000000000000000000000000000000000000000000000001680330361011d5750602893602884066109b25750505f5b82811061097157005b806109ac601486930161098f61098982858989610d89565b90610da1565b6109a3610989606093878701908a8a610d89565b821c911c6110ae565b01610968565b517f947d5a84000000000000000000000000000000000000000000000000000000008152fd5b503461014c57817ffffffffffffffffffffffffffffffffffffffffffffffffffffffffffffffffc36011261014c576024359167ffffffffffffffff831161014c57610a2960209336908401610ce4565b5f935f92845192838682604114610b6c575050604014610b2957505f9150815b610ae1575b505073ffffffffffffffffffffffffffffffffffffffff807f000000000000000000000000000000000000000000000000000000000000000016911614610ab9575b7fffffffff00000000000000000000000000000000000000000000000000000000905191168152f35b7f1626ba7e000000000000000000000000000000000000000000000000000000009150610a90565b7f7fffffffffffffffffffffffffffffff5d576e7357a4501ddfe92f46681b20a160608301511015610a4e578592505f9160809135815282805260015afa505f515f80610a4e565b7f7fffffffffffffffffffffffffffffffffffffffffffffffffffffffffffffff81888086940135918260ff1c601b018286015288850137166060820152610a49565b80925083919301355f1a8984015281830137610a49565b90503461014c576020807ffffffffffffffffffffffffffffffffffffffffffffffffffffffffffffffffc36011261014c57823567ffffffffffffffff811161014c57610bd39036908501610ce4565b93909273ffffffffffffffffffffffffffffffffffffffff7f000000000000000000000000000000000000000000000000000000000000000016803303610cb9575050604894604885066109b25750505f5b838110610c2e57005b80610c816014879301610c4661098982858a8a610d89565b90606091610c6e610c606109896028880180958d8d610d89565b841c92878701908b8b610d89565b93903593888110610c87575b501c611016565b01610c25565b7fffffffffffffffffffffffffffffffffffffffffffffffffffffffffffffffff90890360031b1b909316925f610c7a565b6024927f0a86c02a000000000000000000000000000000000000000000000000000000008352820152fd5b9181601f8401121561014c5782359167ffffffffffffffff831161014c576020838186019501011161014c57565b9181601f8401121561014c5782359167ffffffffffffffff831161014c576020808501948460051b01011161014c57565b6004359073ffffffffffffffffffffffffffffffffffffffff8216820361014c57565b6024359073ffffffffffffffffffffffffffffffffffffffff8216820361014c57565b9093929384831161014c57841161014c578101920390565b7fffffffffffffffffffffffffffffffffffffffff0000000000000000000000009035818116939260148110610dd657505050565b60140360031b82901b16169150565b9190811015610e255760051b810135907fffffffffffffffffffffffffffffffffffffffffffffffffffffffffffffffa18136030182121561014c570190565b7f4e487b71000000000000000000000000000000000000000000000000000000005f52603260045260245ffd5b3573ffffffffffffffffffffffffffffffffffffffff8116810361014c5790565b9035907fffffffffffffffffffffffffffffffffffffffffffffffffffffffffffffffe18136030182121561014c570180359067ffffffffffffffff821161014c5760200191813603831361014c57565b907fffffffffffffffffffffffffffffffffffffffffffffffffffffffffffffffe0601f604051930116820182811067ffffffffffffffff821117610f0857604052565b7f4e487b71000000000000000000000000000000000000000000000000000000005f52604160045260245ffd5b3d15610f89573d9067ffffffffffffffff8211610f0857610f7d60207fffffffffffffffffffffffffffffffffffffffffffffffffffffffffffffffe0601f85011601610ec4565b9182523d5f602084013e565b606090565b91908251928382525f5b848110610fd65750507fffffffffffffffffffffffffffffffffffffffffffffffffffffffffffffffe0601f845f6020809697860101520116010190565b602081830181015184830182015201610f98565b67ffffffffffffffff8111610f085760051b60200190565b8051821015610e255760209160051b010190565b9160446020925f92604051917fa9059cbb0000000000000000000000000000000000000000000000000000000083526004830152602482015282855af1908161108c575b501561106257565b60046040517ffb7f5079000000000000000000000000000000000000000000000000000000008152fd5b90503d156110a6575060015f5114601f3d11165b5f61105a565b3b15156110a0565b906110b9818361116f565b156110c2575050565b60205f60446040517f095ea7b300000000000000000000000000000000000000000000000000000000815284600482015282602482015282865af180611150575b1591821561113e575b505061111457565b60046040517f19be9a90000000000000000000000000000000000000000000000000000000008152fd5b611148925061116f565b155f8061110c565b503d156111665760015f5114601f3d1116611103565b813b1515611103565b91905f6044602092604051907f095ea7b300000000000000000000000000000000000000000000000000000000825260048201527fffffffffffffffffffffffffffffffffffffffffffffffffffffffffffffffff602482015282865af191826111d65750565b9091503d156111ed575060015f5114601f3d111690565b3b15159056fea26469706673582212202a33d7b820ac1499e981175157e1e075ffe9e58bf7608c5aee3f87837009246064736f6c63430008170033",
  "devdoc": {
    "kind": "dev",
    "methods": {
      "isValidSignature(bytes32,bytes)": {
        "details": "Should return whether the signature provided is valid for the provided data",
        "params": {
          "hash": "Hash of the data to be signed",
          "signature": "Signature byte array associated with _data"
        }
      }
    },
    "version": 1
  },
  "userdoc": {
    "kind": "user",
    "methods": {},
    "version": 1
  },
  "storageLayout": {
    "storage": [],
    "types": null
  }
}