{
  "address": "0xc73Db31a51Aa0B9BF04EFd210faAdD1F92a2e24F",
  "abi": [
    {
      "inputs": [
        {
          "internalType": "contract IWETH",
          "name": "weth",
          "type": "address"
        },
        {
          "internalType": "address",
          "name": "lop",
          "type": "address"
        },
        {
          "internalType": "address",
          "name": "owner",
          "type": "address"
        }
      ],
      "stateMutability": "nonpayable",
      "type": "constructor"
    },
    {
      "inputs": [],
      "name": "AccessDenied",
      "type": "error"
    },
    {
      "inputs": [],
      "name": "ETHTransferFailed",
      "type": "error"
    },
    {
      "inputs": [
        {
          "internalType": "bool[]",
          "name": "statuses",
          "type": "bool[]"
        },
        {
          "internalType": "bytes[]",
          "name": "results",
          "type": "bytes[]"
        }
      ],
      "name": "EstimationResults",
      "type": "error"
    },
    {
      "inputs": [],
      "name": "ForceApproveFailed",
      "type": "error"
    },
    {
      "inputs": [],
      "name": "InvalidLength",
      "type": "error"
    },
    {
      "inputs": [],
      "name": "LengthMismatch",
      "type": "error"
    },
    {
      "inputs": [],
      "name": "NotEnoughProfit",
      "type": "error"
    },
    {
      "inputs": [],
      "name": "OnlyOwner",
      "type": "error"
    },
    {
      "inputs": [],
      "name": "SafeTransferFailed",
      "type": "error"
    },
    {
      "inputs": [],
      "name": "ZeroAddress",
      "type": "error"
    },
    {
      "anonymous": false,
      "inputs": [
        {
          "indexed": false,
          "internalType": "address",
          "name": "newOperator",
          "type": "address"
        }
      ],
      "name": "OperatorChanged",
      "type": "event"
    },
    {
      "inputs": [
        {
          "internalType": "contract IERC20",
          "name": "token",
          "type": "address"
        },
        {
          "internalType": "address",
          "name": "to",
          "type": "address"
        }
      ],
      "name": "approve",
      "outputs": [],
      "stateMutability": "nonpayable",
      "type": "function"
    },
    {
      "inputs": [
        {
          "internalType": "address[]",
          "name": "targets",
          "type": "address[]"
        },
        {
          "internalType": "bytes[]",
          "name": "arguments",
          "type": "bytes[]"
        }
      ],
      "name": "arbitraryCalls",
      "outputs": [],
      "stateMutability": "payable",
      "type": "function"
    },
    {
      "inputs": [
        {
          "internalType": "address[]",
          "name": "targets",
          "type": "address[]"
        },
        {
          "internalType": "bytes[]",
          "name": "arguments",
          "type": "bytes[]"
        },
        {
          "internalType": "uint256[]",
          "name": "values",
          "type": "uint256[]"
        }
      ],
      "name": "arbitraryCalls",
      "outputs": [],
      "stateMutability": "payable",
      "type": "function"
    },
    {
      "inputs": [
        {
          "internalType": "address[]",
          "name": "targets",
          "type": "address[]"
        },
        {
          "internalType": "bytes[]",
          "name": "arguments",
          "type": "bytes[]"
        },
        {
          "internalType": "uint256",
          "name": "minReturn",
          "type": "uint256"
        }
      ],
      "name": "arbitraryCallsWithEthCheck",
      "outputs": [],
      "stateMutability": "payable",
      "type": "function"
    },
    {
      "inputs": [
        {
          "internalType": "address[]",
          "name": "targets",
          "type": "address[]"
        },
        {
          "internalType": "bytes[]",
          "name": "arguments",
          "type": "bytes[]"
        },
        {
          "internalType": "uint256[]",
          "name": "values",
          "type": "uint256[]"
        },
        {
          "internalType": "uint256",
          "name": "minReturn",
          "type": "uint256"
        }
      ],
      "name": "arbitraryCallsWithEthCheck",
      "outputs": [],
      "stateMutability": "payable",
      "type": "function"
    },
    {
      "inputs": [
        {
          "internalType": "address[]",
          "name": "targets",
          "type": "address[]"
        },
        {
          "internalType": "bytes[]",
          "name": "arguments",
          "type": "bytes[]"
        },
        {
          "internalType": "uint256[]",
          "name": "values",
          "type": "uint256[]"
        },
        {
          "internalType": "contract IERC20",
          "name": "token",
          "type": "address"
        },
        {
          "internalType": "uint256",
          "name": "minReturn",
          "type": "uint256"
        }
      ],
      "name": "arbitraryCallsWithTokenCheck",
      "outputs": [],
      "stateMutability": "payable",
      "type": "function"
    },
    {
      "inputs": [
        {
          "internalType": "address[]",
          "name": "targets",
          "type": "address[]"
        },
        {
          "internalType": "bytes[]",
          "name": "arguments",
          "type": "bytes[]"
        },
        {
          "internalType": "contract IERC20",
          "name": "token",
          "type": "address"
        },
        {
          "internalType": "uint256",
          "name": "minReturn",
          "type": "uint256"
        }
      ],
      "name": "arbitraryCallsWithTokenCheck",
      "outputs": [],
      "stateMutability": "payable",
      "type": "function"
    },
    {
      "inputs": [
        {
          "internalType": "bytes",
          "name": "data",
          "type": "bytes"
        }
      ],
      "name": "batchApprove",
      "outputs": [],
      "stateMutability": "nonpayable",
      "type": "function"
    },
    {
      "inputs": [
        {
          "internalType": "bytes",
          "name": "data",
          "type": "bytes"
        }
      ],
      "name": "batchTransfer",
      "outputs": [],
      "stateMutability": "nonpayable",
      "type": "function"
    },
    {
      "inputs": [
        {
          "internalType": "address[]",
          "name": "targets",
          "type": "address[]"
        },
        {
          "internalType": "bytes[]",
          "name": "arguments",
          "type": "bytes[]"
        },
        {
          "internalType": "uint256[]",
          "name": "values",
          "type": "uint256[]"
        }
      ],
      "name": "estimateArbitraryCalls",
      "outputs": [],
      "stateMutability": "payable",
      "type": "function"
    },
    {
      "inputs": [
        {
          "internalType": "address[]",
          "name": "targets",
          "type": "address[]"
        },
        {
          "internalType": "bytes[]",
          "name": "arguments",
          "type": "bytes[]"
        }
      ],
      "name": "estimateArbitraryCalls",
      "outputs": [],
      "stateMutability": "payable",
      "type": "function"
    },
    {
      "inputs": [
        {
          "internalType": "bytes32",
          "name": "hash",
          "type": "bytes32"
        },
        {
          "internalType": "bytes",
          "name": "signature",
          "type": "bytes"
        }
      ],
      "name": "isValidSignature",
      "outputs": [
        {
          "internalType": "bytes4",
          "name": "magicValue",
          "type": "bytes4"
        }
      ],
      "stateMutability": "view",
      "type": "function"
    },
    {
      "inputs": [],
      "name": "operator",
      "outputs": [
        {
          "internalType": "address",
          "name": "",
          "type": "address"
        }
      ],
      "stateMutability": "view",
      "type": "function"
    },
    {
      "inputs": [],
      "name": "rescueEther",
      "outputs": [],
      "stateMutability": "nonpayable",
      "type": "function"
    },
    {
      "inputs": [
        {
          "internalType": "address",
          "name": "newOperator",
          "type": "address"
        }
      ],
      "name": "setOperator",
      "outputs": [],
      "stateMutability": "nonpayable",
      "type": "function"
    },
    {
      "inputs": [
        {
          "internalType": "contract IERC20",
          "name": "token",
          "type": "address"
        },
        {
          "internalType": "address",
          "name": "to",
          "type": "address"
        },
        {
          "internalType": "uint256",
          "name": "amount",
          "type": "uint256"
        }
      ],
      "name": "transfer",
      "outputs": [],
      "stateMutability": "nonpayable",
      "type": "function"
    },
    {
      "inputs": [
        {
          "internalType": "address payable",
          "name": "receiver",
          "type": "address"
        },
        {
          "internalType": "uint256",
          "name": "amount",
          "type": "uint256"
        }
      ],
      "name": "unwrapTo",
      "outputs": [],
      "stateMutability": "nonpayable",
      "type": "function"
    },
    {
      "stateMutability": "payable",
      "type": "receive"
    }
  ],
  "transactionHash": "0xc66c12099d7e89bcd157462562e0ffb5cb59005cbc5014dc14f867cd6d7b8b24",
  "args": [
    "0x039e2fB66102314Ce7b64Ce5Ce3E5183bc94aD38",
    "0x111111125421cA6dc452d289314280a0f8842A65",
    "0xa98f85f55f259ef41548251c93409f1d60e804e4"
  ],
  "numDeployments": 1,
  "bytecode": "0x60e034620000e057601f62001caa38819003918201601f19168301916001600160401b03831184841017620000e457808492606094604052833981010312620000e05780516001600160a01b0380821691828103620000e0576200007460406200006c60208701620000f8565b9501620000f8565b9215620000c25760805280821615908115620000d4575b50620000c25760a05260c052604051611b9c90816200010e823960805181610168015260a05181610578015260c05181610eaf0152f35b60405163d92e233d60e01b8152600490fd5b90508216155f6200008b565b5f80fd5b634e487b7160e01b5f52604160045260245ffd5b51906001600160a01b0382168203620000e05756fe60406080815260048036101561001e575b5050361561001c575f80fd5b005b5f3560e01c8063038ec2ab146110eb57806310a890af14610faf5780631626ba7e14610e415780631f3177ba14610daa57806320969d0714610cf8578063295861b114610a48578063343590a41461095c5780633a9d666f146108c55780633d006abd146108525780634cbdf31c146107c6578063570ca735146107755780637e5465ba1461070c57806385c014381461061c578063b3ab15fb14610526578063bdbb216a1461027a578063beabacc8146101e45763c12ea3ca0361001057346101e057817ffffffffffffffffffffffffffffffffffffffffffffffffffffffffffffffffc3601126101e057803573ffffffffffffffffffffffffffffffffffffffff918282168092036101e057602435925f541633036101b95782907f2e1a7d4d000000000000000000000000000000000000000000000000000000005f52525f80602481807f00000000000000000000000000000000000000000000000000000000000000005af1156101af5730810361019757005b5f80809381935af1156101a657005b513d5f823e3d90fd5b82513d5f823e3d90fd5b83517f5fc483c5000000000000000000000000000000000000000000000000000000008152fd5b5f80fd5b5090346101e05760607ffffffffffffffffffffffffffffffffffffffffffffffffffffffffffffffffc3601126101e05761021d6111c8565b90610226611302565b9073ffffffffffffffffffffffffffffffffffffffff5f541633036102525761001c60443583856118bb565b8390517f5fc483c5000000000000000000000000000000000000000000000000000000008152fd5b5061028436611219565b9092919373ffffffffffffffffffffffffffffffffffffffff5f541633036104ff578185036104d857949392906102ba846116a8565b956102c786519788611325565b8487526102d3856116a8565b93602092838901947fffffffffffffffffffffffffffffffffffffffffffffffffffffffffffffffe080970136873761030b886116a8565b976103188a51998a611325565b80895287610325826116a8565b015f5b8181106104c95750505f5b81811061045157505050505085519687967f9cb0e09d0000000000000000000000000000000000000000000000000000000088526044880192880152518091526064860192905f5b818110610438575050507ffffffffffffffffffffffffffffffffffffffffffffffffffffffffffffffffc8583030160248601528351908183528083019281808460051b8301019601945f915b8483106103d55788880389fd5b919395975091939582828203018752848389518051908185525f5b828110610421575050838392601f835f86809660019a010152011601019901970193019091889796959394926103c8565b8181018501518682018601528994889450016103f0565b825115158552889750938301939183019160010161037b565b805f808d9e98999a9c9d61047061046b600196888c6116c0565b6116fd565b9061047c858a366116c0565b35610488868b8b61171e565b8093519384928337810185815203925af18c6104ac836104a661164b565b9261177e565b526104b7828961177e565b9015159052019a99989695949a610333565b60608b82018901528701610328565b85517fff633a38000000000000000000000000000000000000000000000000000000008152fd5b85517f5fc483c5000000000000000000000000000000000000000000000000000000008152fd5b5090346101e05760207ffffffffffffffffffffffffffffffffffffffffffffffffffffffffffffffffc3601126101e05761055f6111c8565b73ffffffffffffffffffffffffffffffffffffffff92837f00000000000000000000000000000000000000000000000000000000000000001633036105f5577f4721129e0e676ed6a92909bb24e853ccdd63ad72280cc2e974e38e480e0e6e5460208486851690817fffffffffffffffffffffffff00000000000000000000000000000000000000005f5416175f5551908152a1005b82517f4ca88867000000000000000000000000000000000000000000000000000000008152fd5b5061062636611282565b9573ffffffffffffffffffffffffffffffffffffffff5f969592949396541633036106e5578582036106be578682036106be57505f5b81811061066557005b5f8061067561046b84868a6116c0565b8a610681858c8a6116c0565b3561068d868c8a61171e565b8093519384928337810185815203925af16106a661164b565b50156106b45760010161065c565b87513d5f823e3d90fd5b87517fff633a38000000000000000000000000000000000000000000000000000000008152fd5b87517f5fc483c5000000000000000000000000000000000000000000000000000000008152fd5b5090346101e057807ffffffffffffffffffffffffffffffffffffffffffffffffffffffffffffffffc3601126101e0576107446111c8565b61074c611302565b9173ffffffffffffffffffffffffffffffffffffffff5f541633036102525761001c8383611a21565b82346101e0575f7ffffffffffffffffffffffffffffffffffffffffffffffffffffffffffffffffc3601126101e05760209073ffffffffffffffffffffffffffffffffffffffff5f54169051908152f35b5060807ffffffffffffffffffffffffffffffffffffffffffffffffffffffffffffffffc3601126101e05767ffffffffffffffff81358181116101e0576108109036908401611197565b6024929192358281116101e05761082a9036908601611197565b90926044359081116101e05761001c9561084691369101611197565b93909260643595611792565b5060607ffffffffffffffffffffffffffffffffffffffffffffffffffffffffffffffffc3601126101e05767ffffffffffffffff81358181116101e05761089c9036908401611197565b916024359081116101e05761001c936108b791369101611197565b809291604435943693611792565b5060807ffffffffffffffffffffffffffffffffffffffffffffffffffffffffffffffffc3601126101e05767ffffffffffffffff81358181116101e05761090f9036908401611197565b9190926024359182116101e05761092891369101611197565b6044939193359173ffffffffffffffffffffffffffffffffffffffff831683036101e0578161001c956064359536936113cd565b50346101e05760207ffffffffffffffffffffffffffffffffffffffffffffffffffffffffffffffffc3601126101e057803567ffffffffffffffff81116101e0576109aa90369083016111eb565b9173ffffffffffffffffffffffffffffffffffffffff5f541633036101b95760289360288406610a225750505f5b8281106109e157005b80610a1c60148693016109ff6109f9828589896115ef565b90611607565b610a136109f9606093878701908a8a6115ef565b821c911c611a21565b016109d8565b517f947d5a84000000000000000000000000000000000000000000000000000000008152fd5b50610a5236611282565b9473ffffffffffffffffffffffffffffffffffffffff5f979394959754163303610cd057838703610ca857610a8c879694939298976116a8565b97610a998851998a611325565b868952610aa5876116a8565b95602094858b01967fffffffffffffffffffffffffffffffffffffffffffffffffffffffffffffffe0809901368937610add8a6116a8565b99610aea8c519b8c611325565b808b5289610af7826116a8565b015f5b818110610c995750505f5b818110610c25575050505050505085519687967f9cb0e09d0000000000000000000000000000000000000000000000000000000088526044880192880152518091526064860192905f5b818110610c0c575050507ffffffffffffffffffffffffffffffffffffffffffffffffffffffffffffffffc8583030160248601528351908183528083019281808460051b8301019601945f915b848310610ba95788880389fd5b919395975091939582828203018752848389518051908185525f5b828110610bf5575050838392601f835f86809660019a01015201160101990197019301909188979695939492610b9c565b818101850151868201860152899488945001610bc4565b8251151585528897509383019391830191600101610b4f565b808c8e9f999a9b9d9e5f8981928a610c5e878f610c57828f928f908f60019f61046b91610c51936116c0565b986116c0565b359361171e565b8093519384928337810185815203925af190610c7c836104a661164b565b52610c87828b61177e565b9015159052019c9b9a9897969c610b05565b60608d82018b01528901610afa565b8288517fff633a38000000000000000000000000000000000000000000000000000000008152fd5b8288517f5fc483c5000000000000000000000000000000000000000000000000000000008152fd5b5090346101e0575f7ffffffffffffffffffffffffffffffffffffffffffffffffffffffffffffffffc3601126101e05773ffffffffffffffffffffffffffffffffffffffff5f54163303610d84575f80808047335af1610d5661164b565b5015610d5e57005b517fb12d13eb000000000000000000000000000000000000000000000000000000008152fd5b517f5fc483c5000000000000000000000000000000000000000000000000000000008152fd5b50610db436611219565b909373ffffffffffffffffffffffffffffffffffffffff5f541633036104ff578183036104d857505f5b828110610de757005b5f80610df761046b8487896116c0565b610e028486366116c0565b35610e0e85878b61171e565b9190828c519384928337810185815203925af1610e2961164b565b5015610e3757600101610dde565b85513d5f823e3d90fd5b50346101e057817ffffffffffffffffffffffffffffffffffffffffffffffffffffffffffffffffc3601126101e05780359167ffffffffffffffff6024358181116101e057610e9390369085016111eb565b945f9473ffffffffffffffffffffffffffffffffffffffff93337f0000000000000000000000000000000000000000000000000000000000000000861603610f4357505094610ee491602096611953565b905b805f5416911614610f1b575b7fffffffff00000000000000000000000000000000000000000000000000000000905191168152f35b7f1626ba7e000000000000000000000000000000000000000000000000000000009150610ef2565b855191602083019384523060601b8784015260348352606083019183831090831117610f8357508552519020602095610f7d929091611953565b90610ee6565b6041907f4e487b71000000000000000000000000000000000000000000000000000000005f525260245ffd5b50346101e05760209060207ffffffffffffffffffffffffffffffffffffffffffffffffffffffffffffffffc3601126101e057803567ffffffffffffffff81116101e05761100090369083016111eb565b92909173ffffffffffffffffffffffffffffffffffffffff5f541633036110c45760489460488506610a225750505f5b83811061103957005b8061108c60148793016110516109f982858a8a6115ef565b9060609161107961106b6109f96028880180958d8d6115ef565b841c92878701908b8b6115ef565b93903593888110611092575b501c6118bb565b01611030565b7fffffffffffffffffffffffffffffffffffffffffffffffffffffffffffffffff90890360031b1b909316925f611085565b84517f5fc483c5000000000000000000000000000000000000000000000000000000008152fd5b5060a07ffffffffffffffffffffffffffffffffffffffffffffffffffffffffffffffffc3601126101e05767ffffffffffffffff81358181116101e0576111359036908401611197565b9290916024358181116101e05761114f9036908401611197565b9190926044359182116101e05761116891369101611197565b916064359373ffffffffffffffffffffffffffffffffffffffff851685036101e05761001c96608435966113cd565b9181601f840112156101e05782359167ffffffffffffffff83116101e0576020808501948460051b0101116101e057565b6004359073ffffffffffffffffffffffffffffffffffffffff821682036101e057565b9181601f840112156101e05782359167ffffffffffffffff83116101e057602083818601950101116101e057565b60407ffffffffffffffffffffffffffffffffffffffffffffffffffffffffffffffffc8201126101e05767ffffffffffffffff916004358381116101e0578261126491600401611197565b939093926024359182116101e05761127e91600401611197565b9091565b9060607ffffffffffffffffffffffffffffffffffffffffffffffffffffffffffffffffc8301126101e05767ffffffffffffffff6004358181116101e057836112cd91600401611197565b939093926024358381116101e057826112e891600401611197565b939093926044359182116101e05761127e91600401611197565b6024359073ffffffffffffffffffffffffffffffffffffffff821682036101e057565b90601f7fffffffffffffffffffffffffffffffffffffffffffffffffffffffffffffffe0910116810190811067ffffffffffffffff82111761136657604052565b7f4e487b71000000000000000000000000000000000000000000000000000000005f52604160045260245ffd5b919082018092116113a057565b7f4e487b71000000000000000000000000000000000000000000000000000000005f52601160045260245ffd5b969490969593919573ffffffffffffffffffffffffffffffffffffffff809516926040978851957f70a08231000000000000000000000000000000000000000000000000000000009485885260049b308d8a01526020998a8a6024818c5afa998a156115e5575f9a6115b6575b505f5416330361158e57828103611566578181036115665790899695949392915f5b8d8282106114f857955050505050506024915051809481938252308b8301525afa928315610e37575f936114c6575b50506114979192611393565b116114a0575050565b517f3b5c3088000000000000000000000000000000000000000000000000000000008152fd5b90809350813d83116114f1575b6114dd8183611325565b810103126101e0576114979151915f61148b565b503d6114d3565b879899505f919293949596979061151461046b858786956116c0565b9061152085888c6116c0565b3561152c868a8c61171e565b8093519384928337810185815203925af161154561164b565b501561155c57600101908a9796959493929161145c565b8c513d5f823e3d90fd5b8c8c517fff633a38000000000000000000000000000000000000000000000000000000008152fd5b8c8c517f5fc483c5000000000000000000000000000000000000000000000000000000008152fd5b9099508a81813d83116115de575b6115ce8183611325565b810103126101e05751985f61143a565b503d6115c4565b8d513d5f823e3d90fd5b909392938483116101e05784116101e0578101920390565b7fffffffffffffffffffffffffffffffffffffffff000000000000000000000000903581811693926014811061163c57505050565b60140360031b82901b16169150565b3d156116a3573d9067ffffffffffffffff8211611366576040519161169860207fffffffffffffffffffffffffffffffffffffffffffffffffffffffffffffffe0601f8401160184611325565b82523d5f602084013e565b606090565b67ffffffffffffffff81116113665760051b60200190565b91908110156116d05760051b0190565b7f4e487b71000000000000000000000000000000000000000000000000000000005f52603260045260245ffd5b3573ffffffffffffffffffffffffffffffffffffffff811681036101e05790565b91908110156116d05760051b810135907fffffffffffffffffffffffffffffffffffffffffffffffffffffffffffffffe1813603018212156101e057019081359167ffffffffffffffff83116101e05760200182360381136101e0579190565b80518210156116d05760209160051b010190565b929094939193479573ffffffffffffffffffffffffffffffffffffffff5f541633036118915782810361186757818103611867575f5b81811061181257505050505050506117e1904792611393565b116117e857565b60046040517f3b5c3088000000000000000000000000000000000000000000000000000000008152fd5b61182061046b8284896116c0565b5f8061182d84878a6116c0565b359261183a85898d61171e565b90946040958287519384928337810185815203925af161185861164b565b50156101a657506001016117c8565b60046040517fff633a38000000000000000000000000000000000000000000000000000000008152fd5b60046040517f5fc483c5000000000000000000000000000000000000000000000000000000008152fd5b9160446020925f92604051917fa9059cbb0000000000000000000000000000000000000000000000000000000083526004830152602482015282855af19081611931575b501561190757565b60046040517ffb7f5079000000000000000000000000000000000000000000000000000000008152fd5b90503d1561194b575060015f5114601f3d11165b5f6118ff565b3b1515611945565b6040515f94939092908360418214611a0857506040146119c357505f9150815b61197b575050565b7f7fffffffffffffffffffffffffffffff5d576e7357a4501ddfe92f46681b20a16060830151106119aa575050565b6020929350816080915f935282805260015afa505f5190565b7f7fffffffffffffffffffffffffffffffffffffffffffffffffffffffffffffff8160208086940135918260ff1c601b01828601526040850137166060820152611973565b9160408092508101355f1a602084015281830137611973565b90611a2c8183611ae2565b15611a35575050565b60205f60446040517f095ea7b300000000000000000000000000000000000000000000000000000000815284600482015282602482015282865af180611ac3575b15918215611ab1575b5050611a8757565b60046040517f19be9a90000000000000000000000000000000000000000000000000000000008152fd5b611abb9250611ae2565b155f80611a7f565b503d15611ad95760015f5114601f3d1116611a76565b813b1515611a76565b91905f6044602092604051907f095ea7b300000000000000000000000000000000000000000000000000000000825260048201527fffffffffffffffffffffffffffffffffffffffffffffffffffffffffffffffff602482015282865af19182611b495750565b9091503d15611b60575060015f5114601f3d111690565b3b15159056fea2646970667358221220db25d05f2b2895fbd3c9dbc9c3c83b4adf8b61ba42d37e4d07b7a2f08e2df90564736f6c63430008170033"
}